{
  "abi": [
    {
      "inputs": [
        {
          "internalType": "address",
          "name": "_vgInstantiatorAddress",
          "type": "address"
        }
      ],
      "stateMutability": "nonpayable",
      "type": "constructor"
    },
    {
      "anonymous": false,
      "inputs": [
        {
          "indexed": false,
          "internalType": "uint256",
          "name": "_index",
          "type": "uint256"
        }
      ],
      "name": "ChallengeStarted",
      "type": "event"
    },
    {
      "anonymous": false,
      "inputs": [
        {
          "indexed": false,
          "internalType": "uint256",
          "name": "_index",
          "type": "uint256"
        },
        {
          "indexed": false,
          "internalType": "bytes32",
          "name": "_claimedFinalHash",
          "type": "bytes32"
        }
      ],
      "name": "ClaimSubmitted",
      "type": "event"
    },
    {
      "anonymous": false,
      "inputs": [
        {
          "indexed": false,
          "internalType": "uint256",
          "name": "_index",
          "type": "uint256"
        },
        {
          "indexed": false,
          "internalType": "address",
          "name": "_challenger",
          "type": "address"
        },
        {
          "indexed": false,
          "internalType": "address",
          "name": "_claimer",
          "type": "address"
        },
        {
          "indexed": false,
          "internalType": "uint256",
          "name": "_roundDuration",
          "type": "uint256"
        },
        {
          "indexed": false,
          "internalType": "address",
          "name": "_machineAddress",
          "type": "address"
        },
        {
          "indexed": false,
          "internalType": "bytes32",
          "name": "_initialHash",
          "type": "bytes32"
        },
        {
          "indexed": false,
          "internalType": "uint256",
          "name": "_finalTime",
          "type": "uint256"
        }
      ],
      "name": "ComputeCreated",
      "type": "event"
    },
    {
      "anonymous": false,
      "inputs": [
        {
          "indexed": false,
          "internalType": "uint256",
          "name": "_index",
          "type": "uint256"
        },
        {
          "indexed": false,
          "internalType": "uint8",
          "name": "_state",
          "type": "uint8"
        }
      ],
      "name": "ComputeFinished",
      "type": "event"
    },
    {
      "anonymous": false,
      "inputs": [
        {
          "indexed": false,
          "internalType": "uint256",
          "name": "_index",
          "type": "uint256"
        }
      ],
      "name": "ResultConfirmed",
      "type": "event"
    },
    {
      "inputs": [
        {
          "internalType": "uint256",
          "name": "_index",
          "type": "uint256"
        }
      ],
      "name": "challenge",
      "outputs": [],
      "stateMutability": "nonpayable",
      "type": "function"
    },
    {
      "inputs": [
        {
          "internalType": "uint256",
          "name": "_index",
          "type": "uint256"
        }
      ],
      "name": "claimVictoryByTime",
      "outputs": [],
      "stateMutability": "nonpayable",
      "type": "function"
    },
    {
      "inputs": [
        {
          "internalType": "uint256",
          "name": "_index",
          "type": "uint256"
        }
      ],
      "name": "confirm",
      "outputs": [],
      "stateMutability": "nonpayable",
      "type": "function"
    },
    {
      "inputs": [],
      "name": "currentIndex",
      "outputs": [
        {
          "internalType": "uint256",
          "name": "",
          "type": "uint256"
        }
      ],
      "stateMutability": "view",
      "type": "function"
    },
    {
      "inputs": [
        {
          "internalType": "uint256",
          "name": "_index",
          "type": "uint256"
        }
      ],
      "name": "deactivate",
      "outputs": [],
      "stateMutability": "nonpayable",
      "type": "function"
    },
    {
      "inputs": [
        {
          "internalType": "uint256",
          "name": "_index",
          "type": "uint256"
        }
      ],
      "name": "getCurrentState",
      "outputs": [
        {
          "internalType": "bytes32",
          "name": "",
          "type": "bytes32"
        }
      ],
      "stateMutability": "view",
      "type": "function"
    },
    {
      "inputs": [
        {
          "internalType": "uint256",
          "name": "_roundDuration",
          "type": "uint256"
        },
        {
          "internalType": "uint256",
          "name": "_timeToStartMachine",
          "type": "uint256"
        },
        {
          "internalType": "uint256",
          "name": "_partitionSize",
          "type": "uint256"
        },
        {
          "internalType": "uint256",
          "name": "_maxCycle",
          "type": "uint256"
        },
        {
          "internalType": "uint256",
          "name": "_picoSecondsToRunInsn",
          "type": "uint256"
        }
      ],
      "name": "getMaxInstanceDuration",
      "outputs": [
        {
          "internalType": "uint256",
          "name": "",
          "type": "uint256"
        }
      ],
      "stateMutability": "view",
      "type": "function"
    },
    {
      "inputs": [
        {
          "internalType": "uint256",
          "name": "_index",
          "type": "uint256"
        }
      ],
      "name": "getNonce",
      "outputs": [
        {
          "internalType": "uint256",
          "name": "currentNonce",
          "type": "uint256"
        }
      ],
      "stateMutability": "view",
      "type": "function"
    },
    {
      "inputs": [
        {
          "internalType": "uint256",
          "name": "_index",
          "type": "uint256"
        },
        {
          "internalType": "address",
          "name": "",
          "type": "address"
        }
      ],
      "name": "getState",
      "outputs": [
        {
          "internalType": "address",
          "name": "_challenger",
          "type": "address"
        },
        {
          "internalType": "address",
          "name": "_claimer",
          "type": "address"
        },
        {
          "internalType": "uint256",
          "name": "_deadline",
          "type": "uint256"
        },
        {
          "internalType": "address",
          "name": "_machine",
          "type": "address"
        },
        {
          "internalType": "bytes32",
          "name": "_initialHash",
          "type": "bytes32"
        },
        {
          "internalType": "uint256",
          "name": "_finalTime",
          "type": "uint256"
        },
        {
          "internalType": "bytes32",
          "name": "_claimedFinalHash",
          "type": "bytes32"
        },
        {
          "internalType": "bytes32",
          "name": "_currentState",
          "type": "bytes32"
        }
      ],
      "stateMutability": "view",
      "type": "function"
    },
    {
      "inputs": [
        {
          "internalType": "uint256",
          "name": "_index",
          "type": "uint256"
        },
        {
          "internalType": "address",
          "name": "",
          "type": "address"
        }
      ],
      "name": "getSubInstances",
      "outputs": [
        {
          "internalType": "address[]",
          "name": "_addresses",
          "type": "address[]"
        },
        {
          "internalType": "uint256[]",
          "name": "_indices",
          "type": "uint256[]"
        }
      ],
      "stateMutability": "view",
      "type": "function"
    },
    {
      "inputs": [
        {
          "internalType": "address",
          "name": "_challenger",
          "type": "address"
        },
        {
          "internalType": "address",
          "name": "_claimer",
          "type": "address"
        },
        {
          "internalType": "uint256",
          "name": "_roundDuration",
          "type": "uint256"
        },
        {
          "internalType": "address",
          "name": "_machineAddress",
          "type": "address"
        },
        {
          "internalType": "bytes32",
          "name": "_initialHash",
          "type": "bytes32"
        },
        {
          "internalType": "uint256",
          "name": "_finalTime",
          "type": "uint256"
        }
      ],
      "name": "instantiate",
      "outputs": [
        {
          "internalType": "uint256",
          "name": "",
          "type": "uint256"
        }
      ],
      "stateMutability": "nonpayable",
      "type": "function"
    },
    {
      "inputs": [
        {
          "internalType": "uint256",
          "name": "_index",
          "type": "uint256"
        }
      ],
      "name": "isActive",
      "outputs": [
        {
          "internalType": "bool",
          "name": "",
          "type": "bool"
        }
      ],
      "stateMutability": "view",
      "type": "function"
    },
    {
      "inputs": [
        {
          "internalType": "uint256",
          "name": "_index",
          "type": "uint256"
        },
        {
          "internalType": "address",
          "name": "_user",
          "type": "address"
        }
      ],
      "name": "isConcerned",
      "outputs": [
        {
          "internalType": "bool",
          "name": "",
          "type": "bool"
        }
      ],
      "stateMutability": "view",
      "type": "function"
    },
    {
      "inputs": [
        {
          "internalType": "uint256",
          "name": "_index",
          "type": "uint256"
        }
      ],
      "name": "stateIsChallengerWon",
      "outputs": [
        {
          "internalType": "bool",
          "name": "",
          "type": "bool"
        }
      ],
      "stateMutability": "view",
      "type": "function"
    },
    {
      "inputs": [
        {
          "internalType": "uint256",
          "name": "_index",
          "type": "uint256"
        }
      ],
      "name": "stateIsClaimerMissedDeadline",
      "outputs": [
        {
          "internalType": "bool",
          "name": "",
          "type": "bool"
        }
      ],
      "stateMutability": "view",
      "type": "function"
    },
    {
      "inputs": [
        {
          "internalType": "uint256",
          "name": "_index",
          "type": "uint256"
        }
      ],
      "name": "stateIsClaimerWon",
      "outputs": [
        {
          "internalType": "bool",
          "name": "",
          "type": "bool"
        }
      ],
      "stateMutability": "view",
      "type": "function"
    },
    {
      "inputs": [
        {
          "internalType": "uint256",
          "name": "_index",
          "type": "uint256"
        }
      ],
      "name": "stateIsConsensusResult",
      "outputs": [
        {
          "internalType": "bool",
          "name": "",
          "type": "bool"
        }
      ],
      "stateMutability": "view",
      "type": "function"
    },
    {
      "inputs": [
        {
          "internalType": "uint256",
          "name": "_index",
          "type": "uint256"
        }
      ],
      "name": "stateIsWaitingChallange",
      "outputs": [
        {
          "internalType": "bool",
          "name": "",
          "type": "bool"
        }
      ],
      "stateMutability": "view",
      "type": "function"
    },
    {
      "inputs": [
        {
          "internalType": "uint256",
          "name": "_index",
          "type": "uint256"
        }
      ],
      "name": "stateIsWaitingClaim",
      "outputs": [
        {
          "internalType": "bool",
          "name": "",
          "type": "bool"
        }
      ],
      "stateMutability": "view",
      "type": "function"
    },
    {
      "inputs": [
        {
          "internalType": "uint256",
          "name": "_index",
          "type": "uint256"
        }
      ],
      "name": "stateIsWaitingConfirmation",
      "outputs": [
        {
          "internalType": "bool",
          "name": "",
          "type": "bool"
        }
      ],
      "stateMutability": "view",
      "type": "function"
    },
    {
      "inputs": [
        {
          "internalType": "uint256",
          "name": "_index",
          "type": "uint256"
        },
        {
          "internalType": "bytes32",
          "name": "_claimedFinalHash",
          "type": "bytes32"
        }
      ],
      "name": "submitClaim",
      "outputs": [],
      "stateMutability": "nonpayable",
      "type": "function"
    },
    {
      "inputs": [
        {
          "internalType": "uint256",
          "name": "_index",
          "type": "uint256"
        }
      ],
      "name": "winByVG",
      "outputs": [],
      "stateMutability": "nonpayable",
      "type": "function"
    }
  ],
  "address": "0xc6956323f9AC641e2e9ee1F70766efec43aB8CEC",
  "args": [
    "0xc2e23F01f5685E35D83Cf104Cf2F0CAE1E64Fb1F"
  ],
  "solcInputHash": "0x42b609482474b272bec93b3bfa26f2c87c2a0a56d0daaf2511deb7af6d8c3952",
  "bytecode": "0x60806040526000805534801561001457600080fd5b506040516120083803806120088339818101604052602081101561003757600080fd5b5051600380546001600160a01b0319166001600160a01b03909216919091179055611fa1806100676000396000f3fe608060405234801561001057600080fd5b50600436106101425760003560e01c8063a0c222b4116100b8578063c19e71c31161007c578063c19e71c3146103c8578063c526656c14610412578063ce73b628146104d7578063d0a068cf146104f4578063ded4df6314610511578063e174b3bf1461052e57610142565b8063a0c222b414610331578063a20d952b14610354578063a2dc797314610371578063ab82d9a01461038e578063ba0179b5146103ab57610142565b80635748c1301161010a5780635748c130146102105780636547429e1461022d5780636c092edd1461024a57806373df16121461026757806382afd23b146102f5578063916b9bef1461031257610142565b806301ff62ab1461014757806326987b6014610187578063370f31aa146101a1578063388e43be146101d65780633d46b819146101f3575b600080fd5b6101736004803603604081101561015d57600080fd5b50803590602001356001600160a01b031661054b565b604080519115158252519081900360200190f35b61018f610596565b60408051918252519081900360200190f35b61018f600480360360a08110156101b757600080fd5b508035906020810135906040810135906060810135906080013561059c565b610173600480360360208110156101ec57600080fd5b50356105e4565b61018f6004803603602081101561020957600080fd5b5035610658565b61018f6004803603602081101561022657600080fd5b50356106fe565b6101736004803603602081101561024357600080fd5b5035610954565b6101736004803603602081101561026057600080fd5b50356109a2565b6102936004803603604081101561027d57600080fd5b50803590602001356001600160a01b03166109f0565b60405180896001600160a01b03168152602001886001600160a01b03168152602001878152602001866001600160a01b031681526020018581526020018481526020018381526020018281526020019850505050505050505060405180910390f35b6101736004803603602081101561030b57600080fd5b5035610d58565b61032f6004803603602081101561032857600080fd5b5035610d6d565b005b61032f6004803603604081101561034757600080fd5b5080359060200135610d90565b6101736004803603602081101561036a57600080fd5b5035610f2e565b61032f6004803603602081101561038757600080fd5b5035610f7c565b61032f600480360360208110156103a457600080fd5b50356111e4565b61032f600480360360208110156103c157600080fd5b503561143b565b61018f600480360360c08110156103de57600080fd5b506001600160a01b038135811691602081013582169160408201359160608101359091169060808101359060a001356115bb565b61043e6004803603604081101561042857600080fd5b50803590602001356001600160a01b0316611723565b604051808060200180602001838103835285818151815260200191508051906020019060200280838360005b8381101561048257818101518382015260200161046a565b50505050905001838103825284818151815260200191508051906020019060200280838360005b838110156104c15781810151838201526020016104a9565b5050505090500194505050505060405180910390f35b610173600480360360208110156104ed57600080fd5b5035611818565b6101736004803603602081101561050a57600080fd5b5035611866565b61032f6004803603602081101561052757600080fd5b50356118b4565b6101736004803603602081101561054457600080fd5b5035611adb565b6000828152600460205260408120546001600160a01b038381169116148061058f57506000838152600460205260409020600101546001600160a01b038381169116145b9392505050565b60005481565b6000806105ae60008888888888611b29565b905060006105c160018989898989611b29565b905060006105d460038a8a8a8a8a611b29565b9190920101979650505050505050565b600081806000541161062b576040805162461bcd60e51b81526020600482015260166024820152600080516020611f4c833981519152604482015290519081900360640190fd5b60015b60008481526004602052604090206009015460ff16600681111561064e57fe5b1491505b50919050565b600081806000541161069f576040805162461bcd60e51b81526020600482015260166024820152600080516020611f4c833981519152604482015290519081900360640190fd5b6106a881610d58565b6106ea576040805162461bcd60e51b815260206004820152600e60248201526d496e64657820696e61637469766560901b604482015290519081900360640190fd5b505060009081526002602052604090205490565b6000818060005411610745576040805162461bcd60e51b81526020600482015260166024820152600080516020611f4c833981519152604482015290519081900360640190fd5b60008381526004602052604081206009015460ff16600681111561076557fe5b1415610782576b57616974696e67436c61696d60a01b9150610652565b600160008481526004602052604090206009015460ff1660068111156107a457fe5b14156107c857722bb0b4ba34b733a1b7b73334b936b0ba34b7b760691b9150610652565b600260008481526004602052604090206009015460ff1660068111156107ea57fe5b14156108105774436c61696d65724d6973736564446561646c696e6560581b9150610652565b600360008481526004602052604090206009015460ff16600681111561083257fe5b1415610853576f57616974696e674368616c6c656e676560801b9150610652565b600460008481526004602052604090206009015460ff16600681111561087557fe5b1415610893576c21b430b63632b733b2b92bb7b760991b9150610652565b600560008481526004602052604090206009015460ff1660068111156108b557fe5b14156108d0576921b630b4b6b2b92bb7b760b11b9150610652565b600660008481526004602052604090206009015460ff1660068111156108f257fe5b1415610912576e10dbdb9cd95b9cdd5cd4995cdd5b1d608a1b9150610652565b6040805162461bcd60e51b8152602060048201526012602482015271556e7265636f676e697a656420737461746560701b604482015290519081900360640190fd5b600081806000541161099b576040805162461bcd60e51b81526020600482015260166024820152600080516020611f4c833981519152604482015290519081900360640190fd5b600461062e565b60008180600054116109e9576040805162461bcd60e51b81526020600482015260166024820152600080516020611f4c833981519152604482015290519081900360640190fd5b600261062e565b600080600080600080600080610a04611e29565b60008b81526004602081815260409283902083516101408101855281546001600160a01b03908116825260018301548116938201939093526002820154948101949094526003810154606085015291820154166080830152600581015460a083015260068082015460c0840152600782015460e08401526008820154610100840152600982015461012084019160ff90911690811115610aa057fe5b6006811115610aab57fe5b90525090506001806000808461012001516006811115610ac757fe5b1415610adf57506b57616974696e67436c61696d60a01b5b60018461012001516006811115610af257fe5b1415610b115750722bb0b4ba34b733a1b7b73334b936b0ba34b7b760691b5b60028461012001516006811115610b2457fe5b1415610b45575074436c61696d65724d6973736564446561646c696e6560581b5b60038461012001516006811115610b5857fe5b1415610c71575060035461010084015160408051630c91927b60e01b81526004810192909252516f57616974696e674368616c6c656e676560801b926001600160a01b031691630c91927b916024808301926020929190829003018186803b158015610bc357600080fd5b505afa158015610bd7573d6000803e3d6000fd5b505050506040513d6020811015610bed57600080fd5b505160035461010086015160408051622231c360e11b81526004810192909252519295506001600160a01b03909116916244638691602480820192602092909190829003018186803b158015610c4257600080fd5b505afa158015610c56573d6000803e3d6000fd5b505050506040513d6020811015610c6c57600080fd5b505191505b60048461012001516006811115610c8457fe5b1415610c9d57506c21b430b63632b733b2b92bb7b760991b5b60058461012001516006811115610cb057fe5b1415610cc657506921b630b4b6b2b92bb7b760b11b5b60068461012001516006811115610cd957fe5b1415610cf457506e10dbdb9cd95b9cdd5cd4995cdd5b1d608a1b5b83600001518460200151610d1c86610120015187604001516028888a60c001516101f4611b29565b86606001510186608001518760a001518860c001518960e00151879b509b509b509b509b509b509b509b50505050509295985092959890939650565b60009081526001602052604090205460ff1690565b6000908152600160209081526040808320805460ff191690556002909152812055565b818060005411610dd5576040805162461bcd60e51b81526020600482015260166024820152600080516020611f4c833981519152604482015290519081900360640190fd5b6000838152600460205260409020600101546001600160a01b0316338114610e3f576040805162461bcd60e51b815260206004820152601860248201527721b0b73737ba1031329031b0b63632b210313c903ab9b2b960411b604482015290519081900360640190fd5b600084815260026020526040812080546001019055849060008681526004602052604090206009015460ff166006811115610e7657fe5b14610ec8576040805162461bcd60e51b815260206004820152601c60248201527f53746174652073686f756c642062652057616974696e67436c61696d00000000604482015290519081900360640190fd5b60008581526004602090815260409182902060078101879055600901805460ff19166001179055815187815290810186905281517f1e9358f673ff367487ce56f136412ae5b69bf2c06e223aad2756d748c2a9b52a929181900390910190a15050505050565b6000818060005411610f75576040805162461bcd60e51b81526020600482015260166024820152600080516020611f4c833981519152604482015290519081900360640190fd5b600061062e565b808060005411610fc1576040805162461bcd60e51b81526020600482015260166024820152600080516020611f4c833981519152604482015290519081900360640190fd5b6000828152600260208181526040808420805460019081019091556004909252832060098101549281015460069091015486949361100c9360ff9091169291602891906101f4611b29565b60008581526004602052604090206003015401421190508061105f5760405162461bcd60e51b815260040180806020018281038252602c815260200180611e9f602c913960400191505060405180910390fd5b6000848152600460205260409020546001600160a01b0316331480156110a2575060008481526004602052604081206009015460ff1660068111156110a057fe5b145b1561113857600084815260046020526040902060090180546002919060ff19166001835b02179055506110d484610d6d565b6000848152600460205260409020600901547fce5d57dc06bffee515dc9f8ca3a267203dbbe503f6bfad687a7120d00756913e90859060ff16600681111561111857fe5b6040805192835260ff90911660208301528051918290030190a1506111df565b6000848152600460205260409020600101546001600160a01b0316331480156111805750600160008581526004602052604090206009015460ff16600681111561117e57fe5b145b156111a857600084815260046020526040902060090180546006919060ff19166001836110c6565b60405162461bcd60e51b815260040180806020018281038252602f815260200180611f1d602f913960400191505060405180910390fd5b505050565b808060005411611229576040805162461bcd60e51b81526020600482015260166024820152600080516020611f4c833981519152604482015290519081900360640190fd5b6000828152600460205260409020546001600160a01b0316338114611290576040805162461bcd60e51b815260206004820152601860248201527721b0b73737ba1031329031b0b63632b210313c903ab9b2b960411b604482015290519081900360640190fd5b600083815260026020526040902080546001908101909155839060008581526004602052604090206009015460ff1660068111156112ca57fe5b146113065760405162461bcd60e51b8152600401808060200182810382526023815260200180611e7c6023913960400191505060405180910390fd5b60035460008581526004602081815260408084208054600182015460028301548387015460058501546007860154600690960154875163020b738760e41b81526001600160a01b039687169a81019a909a5293851660248a0152604489019290925283166064880152608487015260a486019290925260c485019190915290519416936320b738709360e4808501948390030190829087803b1580156113ab57600080fd5b505af11580156113bf573d6000803e3d6000fd5b505050506040513d60208110156113d557600080fd5b50516000858152600460205260409020600881019190915560090180546003919060ff191660018302179055506040805185815290517fa895da4b794aeba8d8082db237265459db7b7ffdb5aa7c2332a7c5eafbfae7359181900360200190a150505050565b808060005411611480576040805162461bcd60e51b81526020600482015260166024820152600080516020611f4c833981519152604482015290519081900360640190fd5b6000828152600460205260409020546001600160a01b03163381146114e7576040805162461bcd60e51b815260206004820152601860248201527721b0b73737ba1031329031b0b63632b210313c903ab9b2b960411b604482015290519081900360640190fd5b600083815260026020526040902080546001908101909155839060008581526004602052604090206009015460ff16600681111561152157fe5b1461155d5760405162461bcd60e51b8152600401808060200182810382526023815260200180611e7c6023913960400191505060405180910390fd5b6000848152600460205260409020600901805460ff1916600617905561158284611c84565b6040805185815290517fa832892b4543448b594422a93bf38c889d54ae5938a065c6ec5f4636161f522a9181900360200190a150505050565b6000856001600160a01b0316876001600160a01b0316141561160e5760405162461bcd60e51b8152600401808060200182810382526025815260200180611ef86025913960400191505060405180910390fd5b600080548152600460208190526040822080546001600160a01b03808c166001600160a01b0319928316178355600180840180548d8416908516179055600284018b90559383018054918a16919092161790556005810186905560068101859055600981018054919392909160ff191690830217905550426003820155600054604080519182526001600160a01b03808b166020840152808a1683830152606083018990528716608083015260a0820186905260c08201859052517f9f53c9493351536908d5efd56da31dfb5a53a510ac3e216afe64af077b558d509181900360e00190a150506000805481526001602081905260408220805460ff19168217905581549081019091555b9695505050505050565b6060808080600360008781526004602052604090206009015460ff16600681111561174a57fe5b14156117f45760408051600180825281830190925290602080830190803683375050604080516001808252818301909252929450905060208083019080368337505060035484519293506001600160a01b0316918491506000906117aa57fe5b6001600160a01b039092166020928302919091018201526000878152600490915260408120600801548251909183916117df57fe5b60209081029190910101529092509050611811565b505060408051600080825260208201908152818301909252925090505b9250929050565b600081806000541161185f576040805162461bcd60e51b81526020600482015260166024820152600080516020611f4c833981519152604482015290519081900360640190fd5b600361062e565b60008180600054116118ad576040805162461bcd60e51b81526020600482015260166024820152600080516020611f4c833981519152604482015290519081900360640190fd5b600561062e565b8080600054116118f9576040805162461bcd60e51b81526020600482015260166024820152600080516020611f4c833981519152604482015290519081900360640190fd5b60008281526002602052604090208054600101905581600360008481526004602052604090206009015460ff16600681111561193157fe5b1461196d5760405162461bcd60e51b815260040180806020018281038252602d815260200180611ecb602d913960400191505060405180910390fd5b60008381526004602081815260409283902060080154600354845163b6b5c31960e01b8152938401829052935190936001600160a01b03169263b6b5c319926024808301939192829003018186803b1580156119c857600080fd5b505afa1580156119dc573d6000803e3d6000fd5b505050506040513d60208110156119f257600080fd5b505115611a0857611a0284611ce5565b506111df565b60035460408051633664f8bf60e11b81526004810184905290516001600160a01b0390921691636cc9f17e91602480820192602092909190829003018186803b158015611a5457600080fd5b505afa158015611a68573d6000803e3d6000fd5b505050506040513d6020811015611a7e57600080fd5b505115611a8e57611a0284611db8565b6040805162461bcd60e51b815260206004820152601860248201527f5374617465206f66205647206973206e6f742066696e616c0000000000000000604482015290519081900360640190fd5b6000818060005411611b22576040805162461bcd60e51b81526020600482015260166024820152600080516020611f4c833981519152604482015290519081900360640190fd5b600661062e565b600080876006811115611b3857fe5b1415611b54578564e8d4a510008484025b048601019050611719565b6001876006811115611b6257fe5b1415611b77578564e8d4a51000848402611b49565b6003876006811115611b8557fe5b1415611c265760035460408051631b8798d560e11b81526004810189905260248101889052604481018790526064810186905260848101859052905188926001600160a01b03169163370f31aa9160a4808301926020929190829003018186803b158015611bf257600080fd5b505afa158015611c06573d6000803e3d6000fd5b505050506040513d6020811015611c1c57600080fd5b5051019050611719565b6005876006811115611c3457fe5b1480611c4b57506004876006811115611c4957fe5b145b80611c6157506002876006811115611c5f57fe5b145b80611c7757506006876006811115611c7557fe5b145b1561171957506000611719565b6000818152600460208190526040822080546001600160a01b031990811682556001820180548216905560028201849055600382018490559181018054909216909155600581018290556006810182905560080155611ce281610d6d565b50565b808060005411611d2a576040805162461bcd60e51b81526020600482015260166024820152600080516020611f4c833981519152604482015290519081900360640190fd5b611d3382611c84565b6000828152600460208190526040909120600901805460ff19166001835b02179055506000828152600460205260409020600901547fce5d57dc06bffee515dc9f8ca3a267203dbbe503f6bfad687a7120d00756913e90839060ff166006811115611d9a57fe5b6040805192835260ff90911660208301528051918290030190a15050565b808060005411611dfd576040805162461bcd60e51b81526020600482015260166024820152600080516020611f4c833981519152604482015290519081900360640190fd5b611e0682611c84565b600082815260046020526040902060090180546005919060ff1916600183611d51565b6040805161014081018252600080825260208201819052918101829052606081018290526080810182905260a0810182905260c0810182905260e081018290526101008101829052906101208201529056fe53746174652073686f756c642062652057616974696e67436f6e6669726d6174696f6e446561646c696e65206973206e6f74206f76657220666f7220746869732073706563696669632073746174655374617465206973206e6f742057616974696e674368616c6c656e67652c2063616e6e6f742077696e427956474368616c6c656e67657220616e6420436c61696d6572206e65656420746f206469666665724661696c20746f20436c61696d566963746f7279427954696d6520696e2063757272656e7420636f6e646974696f6e496e646578206e6f7420696e7374616e74696174656400000000000000000000a2646970667358221220fa8588b61beef60da0676ddba3c40de659b9383472cb4e58e89f27d1a9e7b9e964736f6c63430007010033",
  "devdoc": {
    "kind": "dev",
    "methods": {
      "challenge(uint256)": {
        "params": {
          "_index": "Index of compute instance which challenger is starting the VG."
        }
      },
      "confirm(uint256)": {
        "params": {
          "_index": "Index of compute instance that the challenger is confirming the claim."
        }
      },
      "getMaxInstanceDuration(uint256,uint256,uint256,uint256,uint256)": {
        "params": {
          "_maxCycle": "number of instructions until the machine is forcibly halted",
          "_picoSecondsToRunInsn": "time the offchain will take to run one instruction"
        }
      },
      "instantiate(address,address,uint256,address,bytes32,uint256)": {
        "params": {
          "_challenger": "address of the challenger.",
          "_claimer": "address of the claimer.",
          "_finalTime": "max cycle of the machine for that computation",
          "_initialHash": "hash in which both claimer and challenger agree on",
          "_machineAddress": "address of the machine that will run the instruction",
          "_roundDuration": "duration of the round (security param)"
        },
        "returns": {
          "_0": "Compute index."
        }
      },
      "submitClaim(uint256,bytes32)": {
        "params": {
          "_claimedFinalHash": "hash of the machine after computation is completed.",
          "_index": "Index of instance that the claimer is interacting with"
        }
      },
      "winByVG(uint256)": {
        "params": {
          "_index": "Index of compute instance which challenger is starting the VG."
        }
      }
    },
    "version": 1
  },
  "userdoc": {
    "kind": "user",
    "methods": {
      "challenge(uint256)": {
        "notice": "Challenger disputes the claim, starting a verification game."
      },
      "claimVictoryByTime(uint256)": {
        "notice": "Claim victory for opponent timeout."
      },
      "confirm(uint256)": {
        "notice": "Challenger accepts claim."
      },
      "instantiate(address,address,uint256,address,bytes32,uint256)": {
        "notice": "Instantiates a compute instance."
      },
      "submitClaim(uint256,bytes32)": {
        "notice": "Claimer claims the hash of the result of a computation"
      },
      "winByVG(uint256)": {
        "notice": "In case one of the parties wins the verification game, then he or she can call this function to claim victory in this contract as well."
      }
    },
    "version": 1
  },
  "storageLayout": {
    "storage": [
      {
        "astId": 94,
        "contract": "contracts/ComputeInstantiator.sol:ComputeInstantiator",
        "label": "currentIndex",
        "offset": 0,
        "slot": "0",
        "type": "t_uint256"
      },
      {
        "astId": 98,
        "contract": "contracts/ComputeInstantiator.sol:ComputeInstantiator",
        "label": "active",
        "offset": 0,
        "slot": "1",
        "type": "t_mapping(t_uint256,t_bool)"
      },
      {
        "astId": 102,
        "contract": "contracts/ComputeInstantiator.sol:ComputeInstantiator",
        "label": "nonce",
        "offset": 0,
        "slot": "2",
        "type": "t_mapping(t_uint256,t_uint256)"
      },
      {
        "astId": 587,
        "contract": "contracts/ComputeInstantiator.sol:ComputeInstantiator",
        "label": "vg",
        "offset": 0,
        "slot": "3",
        "type": "t_contract(VGInterface)6511"
      },
      {
        "astId": 612,
        "contract": "contracts/ComputeInstantiator.sol:ComputeInstantiator",
        "label": "instance",
        "offset": 0,
        "slot": "4",
        "type": "t_mapping(t_uint256,t_struct(ComputeCtx)608_storage)"
      }
    ],
    "types": {
      "t_address": {
        "encoding": "inplace",
        "label": "address",
        "numberOfBytes": "20"
      },
      "t_bool": {
        "encoding": "inplace",
        "label": "bool",
        "numberOfBytes": "1"
      },
      "t_bytes32": {
        "encoding": "inplace",
        "label": "bytes32",
        "numberOfBytes": "32"
      },
      "t_contract(VGInterface)6511": {
        "encoding": "inplace",
        "label": "contract VGInterface",
        "numberOfBytes": "20"
      },
      "t_enum(state)1941": {
        "encoding": "inplace",
        "label": "enum ComputeInterface.state",
        "numberOfBytes": "1"
      },
      "t_mapping(t_uint256,t_bool)": {
        "encoding": "mapping",
        "key": "t_uint256",
        "label": "mapping(uint256 => bool)",
        "numberOfBytes": "32",
        "value": "t_bool"
      },
      "t_mapping(t_uint256,t_struct(ComputeCtx)608_storage)": {
        "encoding": "mapping",
        "key": "t_uint256",
        "label": "mapping(uint256 => struct ComputeInstantiator.ComputeCtx)",
        "numberOfBytes": "32",
        "value": "t_struct(ComputeCtx)608_storage"
      },
      "t_mapping(t_uint256,t_uint256)": {
        "encoding": "mapping",
        "key": "t_uint256",
        "label": "mapping(uint256 => uint256)",
        "numberOfBytes": "32",
        "value": "t_uint256"
      },
      "t_struct(ComputeCtx)608_storage": {
        "encoding": "inplace",
        "label": "struct ComputeInstantiator.ComputeCtx",
        "members": [
          {
            "astId": 589,
            "contract": "contracts/ComputeInstantiator.sol:ComputeInstantiator",
            "label": "challenger",
            "offset": 0,
            "slot": "0",
            "type": "t_address"
          },
          {
            "astId": 591,
            "contract": "contracts/ComputeInstantiator.sol:ComputeInstantiator",
            "label": "claimer",
            "offset": 0,
            "slot": "1",
            "type": "t_address"
          },
          {
            "astId": 593,
            "contract": "contracts/ComputeInstantiator.sol:ComputeInstantiator",
            "label": "roundDuration",
            "offset": 0,
            "slot": "2",
            "type": "t_uint256"
          },
          {
            "astId": 595,
            "contract": "contracts/ComputeInstantiator.sol:ComputeInstantiator",
            "label": "timeOfLastMove",
            "offset": 0,
            "slot": "3",
            "type": "t_uint256"
          },
          {
            "astId": 597,
            "contract": "contracts/ComputeInstantiator.sol:ComputeInstantiator",
            "label": "machine",
            "offset": 0,
            "slot": "4",
            "type": "t_address"
          },
          {
            "astId": 599,
            "contract": "contracts/ComputeInstantiator.sol:ComputeInstantiator",
            "label": "initialHash",
            "offset": 0,
            "slot": "5",
            "type": "t_bytes32"
          },
          {
            "astId": 601,
            "contract": "contracts/ComputeInstantiator.sol:ComputeInstantiator",
            "label": "finalTime",
            "offset": 0,
            "slot": "6",
            "type": "t_uint256"
          },
          {
            "astId": 603,
            "contract": "contracts/ComputeInstantiator.sol:ComputeInstantiator",
            "label": "claimedFinalHash",
            "offset": 0,
            "slot": "7",
            "type": "t_bytes32"
          },
          {
            "astId": 605,
            "contract": "contracts/ComputeInstantiator.sol:ComputeInstantiator",
            "label": "vgInstance",
            "offset": 0,
            "slot": "8",
            "type": "t_uint256"
          },
          {
            "astId": 607,
            "contract": "contracts/ComputeInstantiator.sol:ComputeInstantiator",
            "label": "currentState",
            "offset": 0,
            "slot": "9",
            "type": "t_enum(state)1941"
          }
        ],
        "numberOfBytes": "320"
      },
      "t_uint256": {
        "encoding": "inplace",
        "label": "uint256",
        "numberOfBytes": "32"
      }
    }
  },
  "gasEstimates": {
    "creation": {
      "codeDepositCost": "1619400",
      "executionCost": "infinite",
      "totalCost": "infinite"
    },
    "external": {
      "challenge(uint256)": "infinite",
      "claimVictoryByTime(uint256)": "infinite",
      "confirm(uint256)": "infinite",
      "currentIndex()": "1044",
      "deactivate(uint256)": "26269",
      "getCurrentState(uint256)": "infinite",
      "getMaxInstanceDuration(uint256,uint256,uint256,uint256,uint256)": "infinite",
      "getNonce(uint256)": "infinite",
      "getState(uint256,address)": "infinite",
      "getSubInstances(uint256,address)": "infinite",
      "instantiate(address,address,uint256,address,bytes32,uint256)": "infinite",
      "isActive(uint256)": "1229",
      "isConcerned(uint256,address)": "2138",
      "stateIsChallengerWon(uint256)": "infinite",
      "stateIsClaimerMissedDeadline(uint256)": "infinite",
      "stateIsClaimerWon(uint256)": "infinite",
      "stateIsConsensusResult(uint256)": "infinite",
      "stateIsWaitingChallange(uint256)": "infinite",
      "stateIsWaitingClaim(uint256)": "infinite",
      "stateIsWaitingConfirmation(uint256)": "infinite",
      "submitClaim(uint256,bytes32)": "infinite",
      "winByVG(uint256)": "infinite"
    },
    "internal": {
      "challengerWins(uint256)": "infinite",
      "claimerWins(uint256)": "infinite",
      "clearInstance(uint256)": "113616",
      "getMaxStateDuration(enum ComputeInterface.state,uint256,uint256,uint256,uint256,uint256)": "infinite"
    }
  }
}