{
  "abi": [
    {
      "anonymous": false,
      "inputs": [
        {
          "indexed": false,
          "internalType": "uint256",
          "name": "_index",
          "type": "uint256"
        }
      ],
      "name": "FinishedProofs",
      "type": "event"
    },
    {
      "anonymous": false,
      "inputs": [
        {
          "indexed": false,
          "internalType": "uint256",
          "name": "_index",
          "type": "uint256"
        }
      ],
      "name": "FinishedReplay",
      "type": "event"
    },
    {
      "anonymous": false,
      "inputs": [
        {
          "indexed": false,
          "internalType": "uint256",
          "name": "_index",
          "type": "uint256"
        },
        {
          "indexed": false,
          "internalType": "bytes32",
          "name": "_initialHash",
          "type": "bytes32"
        }
      ],
      "name": "MemoryCreated",
      "type": "event"
    },
    {
      "anonymous": false,
      "inputs": [
        {
          "indexed": false,
          "internalType": "uint256",
          "name": "_index",
          "type": "uint256"
        },
        {
          "indexed": false,
          "internalType": "bool",
          "name": "_wasRead",
          "type": "bool"
        },
        {
          "indexed": false,
          "internalType": "uint64",
          "name": "_position",
          "type": "uint64"
        },
        {
          "indexed": false,
          "internalType": "bytes8",
          "name": "_value",
          "type": "bytes8"
        }
      ],
      "name": "ValueProved",
      "type": "event"
    },
    {
      "anonymous": false,
      "inputs": [
        {
          "indexed": false,
          "internalType": "uint256",
          "name": "_index",
          "type": "uint256"
        },
        {
          "indexed": false,
          "internalType": "uint64",
          "name": "_position",
          "type": "uint64"
        },
        {
          "indexed": false,
          "internalType": "bytes8",
          "name": "_value",
          "type": "bytes8"
        }
      ],
      "name": "ValueRead",
      "type": "event"
    },
    {
      "anonymous": false,
      "inputs": [
        {
          "indexed": false,
          "internalType": "uint256",
          "name": "_index",
          "type": "uint256"
        },
        {
          "indexed": false,
          "internalType": "uint64",
          "name": "_position",
          "type": "uint64"
        },
        {
          "indexed": false,
          "internalType": "bytes8",
          "name": "_value",
          "type": "bytes8"
        }
      ],
      "name": "ValueWritten",
      "type": "event"
    },
    {
      "inputs": [
        {
          "internalType": "uint256",
          "name": "_index",
          "type": "uint256"
        }
      ],
      "name": "client",
      "outputs": [
        {
          "internalType": "address",
          "name": "",
          "type": "address"
        }
      ],
      "stateMutability": "view",
      "type": "function"
    },
    {
      "inputs": [],
      "name": "currentIndex",
      "outputs": [
        {
          "internalType": "uint256",
          "name": "",
          "type": "uint256"
        }
      ],
      "stateMutability": "view",
      "type": "function"
    },
    {
      "inputs": [
        {
          "internalType": "uint256",
          "name": "_index",
          "type": "uint256"
        }
      ],
      "name": "deactivate",
      "outputs": [],
      "stateMutability": "nonpayable",
      "type": "function"
    },
    {
      "inputs": [
        {
          "internalType": "uint256",
          "name": "_index",
          "type": "uint256"
        }
      ],
      "name": "finishProofPhase",
      "outputs": [],
      "stateMutability": "nonpayable",
      "type": "function"
    },
    {
      "inputs": [
        {
          "internalType": "uint256",
          "name": "_index",
          "type": "uint256"
        }
      ],
      "name": "finishReplayPhase",
      "outputs": [],
      "stateMutability": "nonpayable",
      "type": "function"
    },
    {
      "inputs": [
        {
          "internalType": "uint256",
          "name": "_index",
          "type": "uint256"
        }
      ],
      "name": "getCurrentState",
      "outputs": [
        {
          "internalType": "bytes32",
          "name": "",
          "type": "bytes32"
        }
      ],
      "stateMutability": "view",
      "type": "function"
    },
    {
      "inputs": [
        {
          "internalType": "uint256",
          "name": "_roundDuration",
          "type": "uint256"
        },
        {
          "internalType": "uint256",
          "name": "_timeToStartMachine",
          "type": "uint256"
        }
      ],
      "name": "getMaxInstanceDuration",
      "outputs": [
        {
          "internalType": "uint256",
          "name": "",
          "type": "uint256"
        }
      ],
      "stateMutability": "pure",
      "type": "function"
    },
    {
      "inputs": [
        {
          "internalType": "uint256",
          "name": "_index",
          "type": "uint256"
        }
      ],
      "name": "getNonce",
      "outputs": [
        {
          "internalType": "uint256",
          "name": "currentNonce",
          "type": "uint256"
        }
      ],
      "stateMutability": "view",
      "type": "function"
    },
    {
      "inputs": [
        {
          "internalType": "uint256",
          "name": "_index",
          "type": "uint256"
        },
        {
          "internalType": "address",
          "name": "",
          "type": "address"
        }
      ],
      "name": "getState",
      "outputs": [
        {
          "internalType": "address",
          "name": "_provider",
          "type": "address"
        },
        {
          "internalType": "address",
          "name": "_client",
          "type": "address"
        },
        {
          "internalType": "bytes32",
          "name": "_initialHash",
          "type": "bytes32"
        },
        {
          "internalType": "bytes32",
          "name": "_newHash",
          "type": "bytes32"
        },
        {
          "internalType": "uint256",
          "name": "_numberSubmitted",
          "type": "uint256"
        },
        {
          "internalType": "bytes32",
          "name": "_currentState",
          "type": "bytes32"
        }
      ],
      "stateMutability": "view",
      "type": "function"
    },
    {
      "inputs": [
        {
          "internalType": "uint256",
          "name": "",
          "type": "uint256"
        },
        {
          "internalType": "address",
          "name": "",
          "type": "address"
        }
      ],
      "name": "getSubInstances",
      "outputs": [
        {
          "internalType": "address[]",
          "name": "",
          "type": "address[]"
        },
        {
          "internalType": "uint256[]",
          "name": "",
          "type": "uint256[]"
        }
      ],
      "stateMutability": "pure",
      "type": "function"
    },
    {
      "inputs": [
        {
          "internalType": "uint256",
          "name": "_index",
          "type": "uint256"
        }
      ],
      "name": "initialHash",
      "outputs": [
        {
          "internalType": "bytes32",
          "name": "",
          "type": "bytes32"
        }
      ],
      "stateMutability": "view",
      "type": "function"
    },
    {
      "inputs": [
        {
          "internalType": "address",
          "name": "_provider",
          "type": "address"
        },
        {
          "internalType": "address",
          "name": "_client",
          "type": "address"
        },
        {
          "internalType": "bytes32",
          "name": "_initialHash",
          "type": "bytes32"
        }
      ],
      "name": "instantiate",
      "outputs": [
        {
          "internalType": "uint256",
          "name": "",
          "type": "uint256"
        }
      ],
      "stateMutability": "nonpayable",
      "type": "function"
    },
    {
      "inputs": [
        {
          "internalType": "uint256",
          "name": "_index",
          "type": "uint256"
        }
      ],
      "name": "isActive",
      "outputs": [
        {
          "internalType": "bool",
          "name": "",
          "type": "bool"
        }
      ],
      "stateMutability": "view",
      "type": "function"
    },
    {
      "inputs": [
        {
          "internalType": "uint256",
          "name": "_index",
          "type": "uint256"
        },
        {
          "internalType": "address",
          "name": "_user",
          "type": "address"
        }
      ],
      "name": "isConcerned",
      "outputs": [
        {
          "internalType": "bool",
          "name": "",
          "type": "bool"
        }
      ],
      "stateMutability": "view",
      "type": "function"
    },
    {
      "inputs": [
        {
          "internalType": "uint256",
          "name": "_index",
          "type": "uint256"
        }
      ],
      "name": "newHash",
      "outputs": [
        {
          "internalType": "bytes32",
          "name": "",
          "type": "bytes32"
        }
      ],
      "stateMutability": "view",
      "type": "function"
    },
    {
      "inputs": [
        {
          "internalType": "uint256",
          "name": "_index",
          "type": "uint256"
        },
        {
          "internalType": "uint64",
          "name": "_position",
          "type": "uint64"
        },
        {
          "internalType": "bytes8",
          "name": "_value",
          "type": "bytes8"
        },
        {
          "internalType": "bytes32[]",
          "name": "proof",
          "type": "bytes32[]"
        }
      ],
      "name": "proveRead",
      "outputs": [],
      "stateMutability": "nonpayable",
      "type": "function"
    },
    {
      "inputs": [
        {
          "internalType": "uint256",
          "name": "_index",
          "type": "uint256"
        },
        {
          "internalType": "uint64",
          "name": "_position",
          "type": "uint64"
        },
        {
          "internalType": "bytes8",
          "name": "_oldValue",
          "type": "bytes8"
        },
        {
          "internalType": "bytes8",
          "name": "_newValue",
          "type": "bytes8"
        },
        {
          "internalType": "bytes32[]",
          "name": "proof",
          "type": "bytes32[]"
        }
      ],
      "name": "proveWrite",
      "outputs": [],
      "stateMutability": "nonpayable",
      "type": "function"
    },
    {
      "inputs": [
        {
          "internalType": "uint256",
          "name": "_index",
          "type": "uint256"
        }
      ],
      "name": "provider",
      "outputs": [
        {
          "internalType": "address",
          "name": "",
          "type": "address"
        }
      ],
      "stateMutability": "view",
      "type": "function"
    },
    {
      "inputs": [
        {
          "internalType": "uint256",
          "name": "_index",
          "type": "uint256"
        },
        {
          "internalType": "uint64",
          "name": "_position",
          "type": "uint64"
        }
      ],
      "name": "read",
      "outputs": [
        {
          "internalType": "bytes8",
          "name": "",
          "type": "bytes8"
        }
      ],
      "stateMutability": "nonpayable",
      "type": "function"
    },
    {
      "inputs": [
        {
          "internalType": "uint256",
          "name": "index",
          "type": "uint256"
        },
        {
          "internalType": "uint64",
          "name": "position",
          "type": "uint64"
        }
      ],
      "name": "readWrapper",
      "outputs": [],
      "stateMutability": "nonpayable",
      "type": "function"
    },
    {
      "inputs": [
        {
          "internalType": "uint256",
          "name": "index",
          "type": "uint256"
        },
        {
          "internalType": "bool[]",
          "name": "listOfWasRead",
          "type": "bool[]"
        },
        {
          "internalType": "uint64[]",
          "name": "listOfPositions",
          "type": "uint64[]"
        },
        {
          "internalType": "bytes8[]",
          "name": "listOfValues",
          "type": "bytes8[]"
        }
      ],
      "name": "setHistoryAtIndex",
      "outputs": [],
      "stateMutability": "nonpayable",
      "type": "function"
    },
    {
      "inputs": [
        {
          "internalType": "uint256",
          "name": "index",
          "type": "uint256"
        },
        {
          "internalType": "uint256",
          "name": "pointer",
          "type": "uint256"
        }
      ],
      "name": "setHistoryPointerAtIndex",
      "outputs": [],
      "stateMutability": "nonpayable",
      "type": "function"
    },
    {
      "inputs": [
        {
          "internalType": "uint256",
          "name": "index",
          "type": "uint256"
        },
        {
          "internalType": "bytes32",
          "name": "newHash",
          "type": "bytes32"
        }
      ],
      "name": "setNewHashAtIndex",
      "outputs": [],
      "stateMutability": "nonpayable",
      "type": "function"
    },
    {
      "inputs": [
        {
          "internalType": "uint256",
          "name": "index",
          "type": "uint256"
        },
        {
          "internalType": "enum MMInterface.state",
          "name": "toState",
          "type": "uint8"
        }
      ],
      "name": "setState",
      "outputs": [],
      "stateMutability": "nonpayable",
      "type": "function"
    },
    {
      "inputs": [
        {
          "internalType": "uint256",
          "name": "_index",
          "type": "uint256"
        }
      ],
      "name": "stateIsFinishedReplay",
      "outputs": [
        {
          "internalType": "bool",
          "name": "",
          "type": "bool"
        }
      ],
      "stateMutability": "view",
      "type": "function"
    },
    {
      "inputs": [
        {
          "internalType": "uint256",
          "name": "_index",
          "type": "uint256"
        }
      ],
      "name": "stateIsWaitingProofs",
      "outputs": [
        {
          "internalType": "bool",
          "name": "",
          "type": "bool"
        }
      ],
      "stateMutability": "view",
      "type": "function"
    },
    {
      "inputs": [
        {
          "internalType": "uint256",
          "name": "_index",
          "type": "uint256"
        }
      ],
      "name": "stateIsWaitingReplay",
      "outputs": [
        {
          "internalType": "bool",
          "name": "",
          "type": "bool"
        }
      ],
      "stateMutability": "view",
      "type": "function"
    },
    {
      "inputs": [
        {
          "internalType": "uint256",
          "name": "_index",
          "type": "uint256"
        },
        {
          "internalType": "uint64",
          "name": "_position",
          "type": "uint64"
        },
        {
          "internalType": "bytes8",
          "name": "_value",
          "type": "bytes8"
        }
      ],
      "name": "write",
      "outputs": [],
      "stateMutability": "nonpayable",
      "type": "function"
    }
  ],
  "address": "0xd40a7B051A2c0Dde0a4B3d4EDfdf66B505F649f2",
  "args": [],
  "solcInputHash": "0x42b609482474b272bec93b3bfa26f2c87c2a0a56d0daaf2511deb7af6d8c3952",
  "bytecode": "0x60806040526000805534801561001457600080fd5b5061279f806100246000396000f3fe608060405234801561001057600080fd5b50600436106101c45760003560e01c806382afd23b116100f957806396f429ba11610097578063ade5f41711610071578063ade5f4171461087b578063c526656c14610898578063c5eeb1ba1461095d578063d53b22e914610980576101c4565b806396f429ba146106c7578063a9c7a1e6146106e4578063ac448b16146107b4576101c4565b8063902c9306116100d3578063902c9306146104bb5780639064584014610667578063916b9bef14610684578063965ff5bc146106a1576101c4565b806382afd23b1461044557806384dfd44d146104625780638a05e47814610485576101c4565b806346336cd31161016657806373df16121161014057806373df1612146103745780637c835498146103df5780637d036b0d1461040b578063812e321914610428576101c4565b806346336cd3146102d557806352cc70c61461031e5780635748c13014610357576101c4565b8063281ca73e116101a2578063281ca73e146102405780633d46b8191461027e5780633ed5d4561461029b57806343d4b78b146102b8576101c4565b806301ff62ab146101c95780631c5d3c601461020957806326987b6014610226575b600080fd5b6101f5600480360360408110156101df57600080fd5b50803590602001356001600160a01b03166109a3565b604080519115158252519081900360200190f35b6101f56004803603602081101561021f57600080fd5b50356109ee565b61022e610a62565b60408051918252519081900360200190f35b61027c6004803603606081101561025657600080fd5b5080359060208101356001600160401b031690604001356001600160c01b031916610a68565b005b61022e6004803603602081101561029457600080fd5b5035610d8d565b61027c600480360360208110156102b157600080fd5b5035610e33565b6101f5600480360360208110156102ce57600080fd5b503561101a565b610301600480360360408110156102eb57600080fd5b50803590602001356001600160401b0316611068565b604080516001600160c01b03199092168252519081900360200190f35b61033b6004803603602081101561033457600080fd5b503561135e565b604080516001600160a01b039092168252519081900360200190f35b61022e6004803603602081101561036d57600080fd5b50356113c2565b6103a06004803603604081101561038a57600080fd5b50803590602001356001600160a01b031661150a565b604080516001600160a01b039788168152959096166020860152848601939093526060840191909152608083015260a082015290519081900360c00190f35b61027c600480360360408110156103f557600080fd5b50803590602001356001600160401b031661169f565b61027c6004803603602081101561042157600080fd5b50356116ae565b61033b6004803603602081101561043e57600080fd5b5035611824565b6101f56004803603602081101561045b57600080fd5b503561188b565b61022e6004803603604081101561047857600080fd5b50803590602001356118a0565b61022e6004803603606081101561049b57600080fd5b506001600160a01b038135811691602081013590911690604001356118dc565b61027c600480360360808110156104d157600080fd5b81359190810190604081016020820135600160201b8111156104f257600080fd5b82018360208201111561050457600080fd5b803590602001918460208302840111600160201b8311171561052557600080fd5b9190808060200260200160405190810160405280939291908181526020018383602002808284376000920191909152509295949360208101935035915050600160201b81111561057457600080fd5b82018360208201111561058657600080fd5b803590602001918460208302840111600160201b831117156105a757600080fd5b9190808060200260200160405190810160405280939291908181526020018383602002808284376000920191909152509295949360208101935035915050600160201b8111156105f657600080fd5b82018360208201111561060857600080fd5b803590602001918460208302840111600160201b8311171561062957600080fd5b9190808060200260200160405190810160405280939291908181526020018383602002808284376000920191909152509295506119f3945050505050565b61022e6004803603602081101561067d57600080fd5b5035611afa565b61027c6004803603602081101561069a57600080fd5b5035611b59565b61027c600480360360408110156106b757600080fd5b508035906020013560ff16611b7c565b6101f5600480360360208110156106dd57600080fd5b5035611bad565b61027c600480360360a08110156106fa57600080fd5b8135916001600160401b03602082013516916001600160c01b0319604083013581169260608101359091169181019060a081016080820135600160201b81111561074357600080fd5b82018360208201111561075557600080fd5b803590602001918460208302840111600160201b8311171561077657600080fd5b919080806020026020016040519081016040528093929190818152602001838360200280828437600092019190915250929550611bfb945050505050565b61027c600480360360808110156107ca57600080fd5b8135916001600160401b03602082013516916001600160c01b03196040830135169190810190608081016060820135600160201b81111561080a57600080fd5b82018360208201111561081c57600080fd5b803590602001918460208302840111600160201b8311171561083d57600080fd5b91908080602002602001604051908101604052809392919081815260200183836020028082843760009201919091525092955061201b945050505050565b61022e6004803603602081101561089157600080fd5b5035612370565b6108c4600480360360408110156108ae57600080fd5b50803590602001356001600160a01b03166123ce565b604051808060200180602001838103835285818151815260200191508051906020019060200280838360005b838110156109085781810151838201526020016108f0565b50505050905001838103825284818151815260200191508051906020019060200280838360005b8381101561094757818101518382015260200161092f565b5050505090500194505050505060405180910390f35b61027c6004803603604081101561097357600080fd5b50803590602001356123e9565b61027c6004803603604081101561099657600080fd5b50803590602001356123fe565b6000828152600360205260408120546001600160a01b03838116911614806109e757506000838152600360205260409020600101546001600160a01b038381169116145b9392505050565b6000818060005411610a35576040805162461bcd60e51b81526020600482015260166024820152600080516020612725833981519152604482015290519081900360640190fd5b60005b60008481526003602052604090206006015460ff166002811115610a5857fe5b1491505b50919050565b60005481565b828060005411610aad576040805162461bcd60e51b81526020600482015260166024820152600080516020612725833981519152604482015290519081900360640190fd5b6000848152600260209081526040808320805460019081019091556003909252909120015484906001600160a01b03163214610b1a5760405162461bcd60e51b815260040180806020018281038252602e81526020018061265f602e913960400191505060405180910390fd5b600160008681526003602052604090206006015460ff166002811115610b3c57fe5b14610b785760405162461bcd60e51b815260040180806020018281038252602f8152602001806126f6602f913960400191505060405180910390fd5b6007841615610bc8576040805162461bcd60e51b8152602060048201526017602482015276141bdcda5d1a5bdb881a5cc81b9bdd08185b1a59db9959604a1b604482015290519081900360640190fd5b600085815260036020526040812060058101546004909101805491929183908110610bef57fe5b6000918252602090912001805490915060ff1615610c3e5760405162461bcd60e51b815260040180806020018281038252602181526020018061263e6021913960400191505060405180910390fd5b80546001600160401b038781166101009092041614610c8e5760405162461bcd60e51b81526004018080602001828103825260288152602001806125c16028913960400191505060405180910390fd5b80546001600160c01b0319868116600160481b90920460c01b1614610ce45760405162461bcd60e51b81526004018080602001828103825260258152602001806125626025913960400191505060405180910390fd5b6000878152600360205260409020600401805483908110610d0157fe5b6000918252602080832090910180546001600160881b0319169055888252600381526040918290206005018054600101905581518981526001600160401b038916918101919091526001600160c01b031987168183015290517f1a89c2c5f3636ceb6d880c0d97e9bb38407469e452f527cf78b9553d04b55dc49181900360600190a150505050505050565b6000818060005411610dd4576040805162461bcd60e51b81526020600482015260166024820152600080516020612725833981519152604482015290519081900360640190fd5b610ddd8161188b565b610e1f576040805162461bcd60e51b815260206004820152600e60248201526d496e64657820696e61637469766560901b604482015290519081900360640190fd5b505060009081526002602052604090205490565b808060005411610e78576040805162461bcd60e51b81526020600482015260166024820152600080516020612725833981519152604482015290519081900360640190fd5b6000828152600260209081526040808320805460019081019091556003909252909120015482906001600160a01b03163214610ee55760405162461bcd60e51b815260040180806020018281038252602e81526020018061265f602e913960400191505060405180910390fd5b600160008481526003602052604090206006015460ff166002811115610f0757fe5b14610f435760405162461bcd60e51b815260040180806020018281038252603b81526020018061268d603b913960400191505060405180910390fd5b6000838152600360205260409020600481015460059091015414610f985760405162461bcd60e51b81526004018080602001828103825260258152602001806127456025913960400191505060405180910390fd5b6000838152600360205260408120610fb59160049091019061246c565b60008381526003602052604081206005810191909155600601805460ff19166002179055610fe283611b59565b6040805184815290517feac25e5c6b8f91fcaaec2cbaed6317b8403630d1f793fc32c10fa4731a464e879181900360200190a1505050565b6000818060005411611061576040805162461bcd60e51b81526020600482015260166024820152600080516020612725833981519152604482015290519081900360640190fd5b6001610a38565b60008280600054116110af576040805162461bcd60e51b81526020600482015260166024820152600080516020612725833981519152604482015290519081900360640190fd5b6000848152600260209081526040808320805460019081019091556003909252909120015484906001600160a01b0316321461111c5760405162461bcd60e51b815260040180806020018281038252602e81526020018061265f602e913960400191505060405180910390fd5b600160008681526003602052604090206006015460ff16600281111561113e57fe5b1461117a5760405162461bcd60e51b815260040180806020018281038252602e8152602001806126c8602e913960400191505060405180910390fd5b60078416156111ca576040805162461bcd60e51b8152602060048201526017602482015276141bdcda5d1a5bdb881a5cc81b9bdd08185b1a59db9959604a1b604482015290519081900360640190fd5b6000858152600360205260408120600581015460049091018054919291839081106111f157fe5b6000918252602090912001805490915060ff16611255576040805162461bcd60e51b815260206004820181905260248201527f506f696e74496e486973746f727920776173206e6f7420726561642074797065604482015290519081900360640190fd5b80546001600160401b0387811661010090920416146112a55760405162461bcd60e51b81526004018080602001828103825260288152602001806125c16028913960400191505060405180910390fd5b805460008881526003602052604090206004018054600160481b90920460c01b91849081106112d057fe5b6000918252602080832090910180546001600160881b0319169055898252600381526040918290206005018054600101905581518a81526001600160401b038a16918101919091526001600160c01b031983168183015290517f0cac98cb64b0a437ae48678c1884bcbf0e7c702bf74c7e16c6986454e8990d629181900360600190a1979650505050505050565b60008180600054116113a5576040805162461bcd60e51b81526020600482015260166024820152600080516020612725833981519152604482015290519081900360640190fd5b50506000908152600360205260409020546001600160a01b031690565b6000818060005411611409576040805162461bcd60e51b81526020600482015260166024820152600080516020612725833981519152604482015290519081900360640190fd5b60008381526003602052604081206006015460ff16600281111561142957fe5b1415611447576c57616974696e6750726f6f667360981b9150610a5c565b600160008481526003602052604090206006015460ff16600281111561146957fe5b1415611487576c57616974696e675265706c617960981b9150610a5c565b600260008481526003602052604090206006015460ff1660028111156114a957fe5b14156114c8576d46696e69736865645265706c617960901b9150610a5c565b6040805162461bcd60e51b8152602060048201526012602482015271556e7265636f676e697a656420737461746560701b604482015290519081900360640190fd5b600080600080600080878060005411611558576040805162461bcd60e51b81526020600482015260166024820152600080516020612725833981519152604482015290519081900360640190fd5b61156061248d565b60008a8152600360208181526040808420815160e08101835281546001600160a01b039081168252600183015416818501526002820154818401529381015460608501526004810180548351818602810186019094528084529495919460808701949192909184015b8282101561162a576000848152602090819020604080516060810182529185015460ff81161515835261010081046001600160401b031683850152600160481b900460c01b6001600160c01b031916908201528252600190920191016115c9565b5050509082525060058201546020820152600682015460409091019060ff16600281111561165457fe5b600281111561165f57fe5b81525050905080600001518160200151826040015183606001518460800151516116888f6113c2565b949f939e50919c509a509850909650945050505050565b6116a98282611068565b505050565b8080600054116116f3576040805162461bcd60e51b81526020600482015260166024820152600080516020612725833981519152604482015290519081900360640190fd5b6000828152600360205260409020546001600160a01b031633811461175a576040805162461bcd60e51b815260206004820152601860248201527721b0b73737ba1031329031b0b63632b210313c903ab9b2b960411b604482015290519081900360640190fd5b600083815260026020526040812080546001019055839060008581526003602052604090206006015460ff16600281111561179157fe5b146117cd5760405162461bcd60e51b815260040180806020018281038252603a815260200180612587603a913960400191505060405180910390fd5b600084815260036020908152604091829020600601805460ff19166001179055815186815291517f0b1229d47b7ccd1dde07b4148a6c9336fd9d5fb57cca980e709576e96ae600ed9281900390910190a150505050565b600081806000541161186b576040805162461bcd60e51b81526020600482015260166024820152600080516020612725833981519152604482015290519081900360640190fd5b50506000908152600360205260409020600101546001600160a01b031690565b60009081526001602052604090205460ff1690565b6000806118af60008585612415565b905060006118bf60018686612415565b905060006118cf60008787612415565b9190920101949350505050565b6000826001600160a01b0316846001600160a01b0316141561192f5760405162461bcd60e51b815260040180806020018281038252602281526020018061261c6022913960400191505060405180910390fd5b60008054815260036020818152604080842080546001600160a01b038a81166001600160a01b0319928316178355600183018054918b1691909216179055600281018790559283018690556005830184905560068301805460ff1916905592548351908152908101859052825191927f9d7a7145d65060279d0bc06f7f03a791000bbaa9b8a8e75c3c10e2d24348791b92918290030190a150506000805481526001602081905260408220805460ff19168217905581549081019091559392505050565b60005b8351811015611af357611a076124c6565b848281518110611a1357fe5b6020908102919091010151151581528351849083908110611a3057fe5b6020908102919091018101516001600160401b0316908201528251839083908110611a5757fe5b6020908102919091018101516001600160c01b0319166040808401918252600089815260038452908120600401805460018181018355918352918490208551920180549590940151925160c01c600160481b0267ffffffffffffffff60481b196001600160401b039094166101000268ffffffffffffffff001993151560ff1990971696909617929092169490941791909116179055016119f6565b5050505050565b6000818060005411611b41576040805162461bcd60e51b81526020600482015260166024820152600080516020612725833981519152604482015290519081900360640190fd5b50506000908152600360208190526040909120015490565b6000908152600160209081526040808320805460ff191690556002909152812055565b6000828152600360205260409020600601805482919060ff19166001836002811115611ba457fe5b02179055505050565b6000818060005411611bf4576040805162461bcd60e51b81526020600482015260166024820152600080516020612725833981519152604482015290519081900360640190fd5b6002610a38565b848060005411611c40576040805162461bcd60e51b81526020600482015260166024820152600080516020612725833981519152604482015290519081900360640190fd5b6000868152600360205260409020546001600160a01b0316338114611ca7576040805162461bcd60e51b815260206004820152601860248201527721b0b73737ba1031329031b0b63632b210313c903ab9b2b960411b604482015290519081900360640190fd5b600087815260026020526040812080546001019055879060008981526003602052604090206006015460ff166002811115611cde57fe5b14611d1a5760405162461bcd60e51b815260040180806020018281038252603481526020018061250a6034913960400191505060405180910390fd5b600360008981526020019081526020016000206003015473__$c7dbd794b8c7b5c2028db781007df1176e$__638492d93b8989886040518463ffffffff1660e01b815260040180846001600160401b03168152602001836001600160c01b031916815260200180602001828103825283818151815260200191508051906020019060200280838360005b83811015611dbc578181015183820152602001611da4565b5050505090500194505050505060206040518083038186803b158015611de157600080fd5b505af4158015611df5573d6000803e3d6000fd5b505050506040513d6020811015611e0b57600080fd5b505114611e495760405162461bcd60e51b815260040180806020018281038252602481526020018061253e6024913960400191505060405180910390fd5b604051638492d93b60e01b81526001600160401b038816600482019081526001600160c01b03198716602483015260606044830190815286516064840152865173__$c7dbd794b8c7b5c2028db781007df1176e$__93638492d93b938c938b938b93608401906020808601910280838360005b83811015611ed4578181015183820152602001611ebc565b5050505090500194505050505060206040518083038186803b158015611ef957600080fd5b505af4158015611f0d573d6000803e3d6000fd5b505050506040513d6020811015611f2357600080fd5b50516000898152600360208181526040808420928301949094558351606080820186528482526001600160401b03808e168385018181526001600160c01b03198e16858a0181815260049098018054600181018255908a52878a209651960180549251985160c01c600160481b0267ffffffffffffffff60481b19999095166101000268ffffffffffffffff001997151560ff19909416939093179690961691909117969096169190911790925585518e815292830194909452818501529182015290517f912a59309f29407977c171115122b2599e36be67312d6366767f7dbeb3d831ce9181900360800190a15050505050505050565b838060005411612060576040805162461bcd60e51b81526020600482015260166024820152600080516020612725833981519152604482015290519081900360640190fd5b6000858152600360205260409020546001600160a01b03163381146120c7576040805162461bcd60e51b815260206004820152601860248201527721b0b73737ba1031329031b0b63632b210313c903ab9b2b960411b604482015290519081900360640190fd5b600086815260026020526040812080546001019055869060008881526003602052604090206006015460ff1660028111156120fe57fe5b1461213a5760405162461bcd60e51b81526004018080602001828103825260338152602001806125e96033913960400191505060405180910390fd5b600360008881526020019081526020016000206003015473__$c7dbd794b8c7b5c2028db781007df1176e$__638492d93b8888886040518463ffffffff1660e01b815260040180846001600160401b03168152602001836001600160c01b031916815260200180602001828103825283818151815260200191508051906020019060200280838360005b838110156121dc5781810151838201526020016121c4565b5050505090500194505050505060206040518083038186803b15801561220157600080fd5b505af4158015612215573d6000803e3d6000fd5b505050506040513d602081101561222b57600080fd5b50511461227f576040805162461bcd60e51b815260206004820152601b60248201527f4d65726b6c652070726f6f6620646f6573206e6f74206d617463680000000000604482015290519081900360640190fd5b600087815260036020908152604080832081516060808201845260018083526001600160401b03808e168488018181526001600160c01b03198f16868901818152600490980180548087018255908c529a8a9020965196909a0180549151975160c01c600160481b0267ffffffffffffffff60481b19989094166101000268ffffffffffffffff001997151560ff19909316929092179690961617959095161790925583518d8152948501919091528383019190915282019290925290517f912a59309f29407977c171115122b2599e36be67312d6366767f7dbeb3d831ce9181900360800190a150505050505050565b60008180600054116123b7576040805162461bcd60e51b81526020600482015260166024820152600080516020612725833981519152604482015290519081900360640190fd5b505060009081526003602052604090206002015490565b50506040805160008082526020820190815281830190925291565b60009182526003602052604090912060050155565b600091825260036020819052604090922090910155565b60008084600281111561242457fe5b141561243657506002820281016109e7565b600184600281111561244457fe5b14156124515750816109e7565b600284600281111561245f57fe5b14156114c85750816109e7565b508054600082559060005260206000209081019061248a91906124e6565b50565b6040805160e0810182526000808252602082018190529181018290526060808201839052608082015260a081018290529060c082015290565b604080516060810182526000808252602082018190529181019190915290565b5b808211156125055780546001600160881b03191681556001016124e7565b509056fe43757272656e745374617465206973206e6f742057616974696e6750726f6f66732c2063616e6e6f742070726f766557726974654d65726b6c652070726f6f66206f6620777269746520646f6573206e6f74206d61746368506f696e74496e486973746f727927732076616c756520646f6573206e6f74206d6174636843757272656e745374617465206973206e6f742057616974696e6750726f6f66732c2063616e6e6f742066696e69736850726f6f665068617365506f696e74496e486973746f7279277320706f736974696f6e20646f6573206e6f74206d6174636843757272656e745374617465206973206e6f742057616974696e6750726f6f66732c2063616e6e6f742070726f76655265616450726f766964657220616e6420636c69656e74206e65656420746f20646966666572506f696e74496e486973746f727920776173206e6f7420777269746520747970655472616e73616374696f6e2068617320746f206265206f726967696e617465642062792074686520636c69656e7443757272656e745374617465206973206e6f742057616974696e675265706c61792c2063616e6e6f742066696e6973685265706c6179506861736543757272656e745374617465206973206e6f742057616974696e675265706c61792c2063616e6e6f74207265616443757272656e745374617465206973206e6f742057616974696e675265706c61792c2063616e6e6f74207772697465496e646578206e6f7420696e7374616e74696174656400000000000000000000486973746f727920706f696e74657220646f6573206e6f74206d61746368206c656e677468a26469706673582212207e69b4710dce8c5d537b8c7db716e02ef361431b891054d9c7051be7bca4345164736f6c63430007010033",
  "libraries": {
    "Merkle": "0xe319796b2d69ce96bbfad9ab8ef7259a06c7c7d6"
  },
  "devdoc": {
    "kind": "dev",
    "methods": {
      "getMaxInstanceDuration(uint256,uint256)": {
        "params": {
          "_timeToStartMachine": "time to build the machine for the first time"
        }
      },
      "instantiate(address,address,bytes32)": {
        "params": {
          "_client": "address that will consume memory values/proofs.",
          "_initialHash": "hash before divergence, in which both client and provider agree.",
          "_provider": "address that will provide memory values/proofs."
        },
        "returns": {
          "_0": "MemoryManager index."
        }
      },
      "proveWrite(uint256,uint64,bytes8,bytes8,bytes32[])": {
        "params": {
          "_newValue": "to be written",
          "_oldValue": "before write",
          "_position": "to be written",
          "proof": "The proof that the old value was correct"
        }
      },
      "read(uint256,uint64)": {
        "params": {
          "_position": "of the desired memory"
        }
      },
      "write(uint256,uint64,bytes8)": {
        "params": {
          "_position": "of the write",
          "_value": "to be written"
        }
      }
    },
    "version": 1
  },
  "userdoc": {
    "kind": "user",
    "methods": {
      "finishProofPhase(uint256)": {
        "notice": "Stop memory insertion and start read and write phase"
      },
      "finishReplayPhase(uint256)": {
        "notice": "Stop write (or read) phase"
      },
      "instantiate(address,address,bytes32)": {
        "notice": "Instantiate a memory manager instance."
      },
      "proveRead(uint256,uint64,bytes8,bytes32[])": {
        "notice": "Proves that a certain value in current memory is correct"
      },
      "proveWrite(uint256,uint64,bytes8,bytes8,bytes32[])": {
        "notice": "Register a write operation and update newHash"
      },
      "read(uint256,uint64)": {
        "notice": "Replays a read in memory that has been proved to be correct according to initial hash"
      },
      "write(uint256,uint64,bytes8)": {
        "notice": "Replays a write in memory that was proved correct"
      }
    },
    "version": 1
  },
  "storageLayout": {
    "storage": [
      {
        "astId": 94,
        "contract": "contracts/test/MMInstantiatorTestAux.sol:MMInstantiatorTestAux",
        "label": "currentIndex",
        "offset": 0,
        "slot": "0",
        "type": "t_uint256"
      },
      {
        "astId": 98,
        "contract": "contracts/test/MMInstantiatorTestAux.sol:MMInstantiatorTestAux",
        "label": "active",
        "offset": 0,
        "slot": "1",
        "type": "t_mapping(t_uint256,t_bool)"
      },
      {
        "astId": 102,
        "contract": "contracts/test/MMInstantiatorTestAux.sol:MMInstantiatorTestAux",
        "label": "nonce",
        "offset": 0,
        "slot": "2",
        "type": "t_mapping(t_uint256,t_uint256)"
      },
      {
        "astId": 2166,
        "contract": "contracts/test/MMInstantiatorTestAux.sol:MMInstantiatorTestAux",
        "label": "instance",
        "offset": 0,
        "slot": "3",
        "type": "t_mapping(t_uint256,t_struct(MMCtx)2162_storage)"
      }
    ],
    "types": {
      "t_address": {
        "encoding": "inplace",
        "label": "address",
        "numberOfBytes": "20"
      },
      "t_array(t_struct(ReadWrite)2146_storage)dyn_storage": {
        "base": "t_struct(ReadWrite)2146_storage",
        "encoding": "dynamic_array",
        "label": "struct MMInstantiator.ReadWrite[]",
        "numberOfBytes": "32"
      },
      "t_bool": {
        "encoding": "inplace",
        "label": "bool",
        "numberOfBytes": "1"
      },
      "t_bytes32": {
        "encoding": "inplace",
        "label": "bytes32",
        "numberOfBytes": "32"
      },
      "t_bytes8": {
        "encoding": "inplace",
        "label": "bytes8",
        "numberOfBytes": "8"
      },
      "t_enum(state)3174": {
        "encoding": "inplace",
        "label": "enum MMInterface.state",
        "numberOfBytes": "1"
      },
      "t_mapping(t_uint256,t_bool)": {
        "encoding": "mapping",
        "key": "t_uint256",
        "label": "mapping(uint256 => bool)",
        "numberOfBytes": "32",
        "value": "t_bool"
      },
      "t_mapping(t_uint256,t_struct(MMCtx)2162_storage)": {
        "encoding": "mapping",
        "key": "t_uint256",
        "label": "mapping(uint256 => struct MMInstantiator.MMCtx)",
        "numberOfBytes": "32",
        "value": "t_struct(MMCtx)2162_storage"
      },
      "t_mapping(t_uint256,t_uint256)": {
        "encoding": "mapping",
        "key": "t_uint256",
        "label": "mapping(uint256 => uint256)",
        "numberOfBytes": "32",
        "value": "t_uint256"
      },
      "t_struct(MMCtx)2162_storage": {
        "encoding": "inplace",
        "label": "struct MMInstantiator.MMCtx",
        "members": [
          {
            "astId": 2148,
            "contract": "contracts/test/MMInstantiatorTestAux.sol:MMInstantiatorTestAux",
            "label": "provider",
            "offset": 0,
            "slot": "0",
            "type": "t_address"
          },
          {
            "astId": 2150,
            "contract": "contracts/test/MMInstantiatorTestAux.sol:MMInstantiatorTestAux",
            "label": "client",
            "offset": 0,
            "slot": "1",
            "type": "t_address"
          },
          {
            "astId": 2152,
            "contract": "contracts/test/MMInstantiatorTestAux.sol:MMInstantiatorTestAux",
            "label": "initialHash",
            "offset": 0,
            "slot": "2",
            "type": "t_bytes32"
          },
          {
            "astId": 2154,
            "contract": "contracts/test/MMInstantiatorTestAux.sol:MMInstantiatorTestAux",
            "label": "newHash",
            "offset": 0,
            "slot": "3",
            "type": "t_bytes32"
          },
          {
            "astId": 2157,
            "contract": "contracts/test/MMInstantiatorTestAux.sol:MMInstantiatorTestAux",
            "label": "history",
            "offset": 0,
            "slot": "4",
            "type": "t_array(t_struct(ReadWrite)2146_storage)dyn_storage"
          },
          {
            "astId": 2159,
            "contract": "contracts/test/MMInstantiatorTestAux.sol:MMInstantiatorTestAux",
            "label": "historyPointer",
            "offset": 0,
            "slot": "5",
            "type": "t_uint256"
          },
          {
            "astId": 2161,
            "contract": "contracts/test/MMInstantiatorTestAux.sol:MMInstantiatorTestAux",
            "label": "currentState",
            "offset": 0,
            "slot": "6",
            "type": "t_enum(state)3174"
          }
        ],
        "numberOfBytes": "224"
      },
      "t_struct(ReadWrite)2146_storage": {
        "encoding": "inplace",
        "label": "struct MMInstantiator.ReadWrite",
        "members": [
          {
            "astId": 2141,
            "contract": "contracts/test/MMInstantiatorTestAux.sol:MMInstantiatorTestAux",
            "label": "wasRead",
            "offset": 0,
            "slot": "0",
            "type": "t_bool"
          },
          {
            "astId": 2143,
            "contract": "contracts/test/MMInstantiatorTestAux.sol:MMInstantiatorTestAux",
            "label": "position",
            "offset": 1,
            "slot": "0",
            "type": "t_uint64"
          },
          {
            "astId": 2145,
            "contract": "contracts/test/MMInstantiatorTestAux.sol:MMInstantiatorTestAux",
            "label": "value",
            "offset": 9,
            "slot": "0",
            "type": "t_bytes8"
          }
        ],
        "numberOfBytes": "32"
      },
      "t_uint256": {
        "encoding": "inplace",
        "label": "uint256",
        "numberOfBytes": "32"
      },
      "t_uint64": {
        "encoding": "inplace",
        "label": "uint64",
        "numberOfBytes": "8"
      }
    }
  },
  "gasEstimates": {
    "creation": {
      "codeDepositCost": "2028600",
      "executionCost": "7155",
      "totalCost": "2035755"
    },
    "external": {
      "client(uint256)": "infinite",
      "currentIndex()": "1089",
      "deactivate(uint256)": "26225",
      "finishProofPhase(uint256)": "infinite",
      "finishReplayPhase(uint256)": "infinite",
      "getCurrentState(uint256)": "infinite",
      "getMaxInstanceDuration(uint256,uint256)": "infinite",
      "getNonce(uint256)": "infinite",
      "getState(uint256,address)": "infinite",
      "getSubInstances(uint256,address)": "678",
      "initialHash(uint256)": "infinite",
      "instantiate(address,address,bytes32)": "infinite",
      "isActive(uint256)": "1164",
      "isConcerned(uint256,address)": "2161",
      "newHash(uint256)": "infinite",
      "proveRead(uint256,uint64,bytes8,bytes32[])": "infinite",
      "proveWrite(uint256,uint64,bytes8,bytes8,bytes32[])": "infinite",
      "provider(uint256)": "infinite",
      "read(uint256,uint64)": "infinite",
      "readWrapper(uint256,uint64)": "infinite",
      "setHistoryAtIndex(uint256,bool[],uint64[],bytes8[])": "infinite",
      "setHistoryPointerAtIndex(uint256,uint256)": "20367",
      "setNewHashAtIndex(uint256,bytes32)": "20398",
      "setState(uint256,uint8)": "21263",
      "stateIsFinishedReplay(uint256)": "infinite",
      "stateIsWaitingProofs(uint256)": "infinite",
      "stateIsWaitingReplay(uint256)": "infinite",
      "write(uint256,uint64,bytes8)": "infinite"
    }
  }
}