{
  "contractName": "ComputeInstantiator",
  "sourceName": "contracts/ComputeInstantiator.sol",
  "abi": [
    {
      "inputs": [
        {
          "internalType": "address",
          "name": "_vgInstantiatorAddress",
          "type": "address"
        }
      ],
      "stateMutability": "nonpayable",
      "type": "constructor"
    },
    {
      "anonymous": false,
      "inputs": [
        {
          "indexed": false,
          "internalType": "uint256",
          "name": "_index",
          "type": "uint256"
        }
      ],
      "name": "ChallengeStarted",
      "type": "event"
    },
    {
      "anonymous": false,
      "inputs": [
        {
          "indexed": false,
          "internalType": "uint256",
          "name": "_index",
          "type": "uint256"
        },
        {
          "indexed": false,
          "internalType": "bytes32",
          "name": "_claimedFinalHash",
          "type": "bytes32"
        }
      ],
      "name": "ClaimSubmitted",
      "type": "event"
    },
    {
      "anonymous": false,
      "inputs": [
        {
          "indexed": false,
          "internalType": "uint256",
          "name": "_index",
          "type": "uint256"
        },
        {
          "indexed": false,
          "internalType": "address",
          "name": "_challenger",
          "type": "address"
        },
        {
          "indexed": false,
          "internalType": "address",
          "name": "_claimer",
          "type": "address"
        },
        {
          "indexed": false,
          "internalType": "uint256",
          "name": "_roundDuration",
          "type": "uint256"
        },
        {
          "indexed": false,
          "internalType": "address",
          "name": "_machineAddress",
          "type": "address"
        },
        {
          "indexed": false,
          "internalType": "bytes32",
          "name": "_initialHash",
          "type": "bytes32"
        },
        {
          "indexed": false,
          "internalType": "uint256",
          "name": "_finalTime",
          "type": "uint256"
        }
      ],
      "name": "ComputeCreated",
      "type": "event"
    },
    {
      "anonymous": false,
      "inputs": [
        {
          "indexed": false,
          "internalType": "uint256",
          "name": "_index",
          "type": "uint256"
        },
        {
          "indexed": false,
          "internalType": "uint8",
          "name": "_state",
          "type": "uint8"
        }
      ],
      "name": "ComputeFinished",
      "type": "event"
    },
    {
      "anonymous": false,
      "inputs": [
        {
          "indexed": false,
          "internalType": "uint256",
          "name": "_index",
          "type": "uint256"
        }
      ],
      "name": "ResultConfirmed",
      "type": "event"
    },
    {
      "inputs": [
        {
          "internalType": "uint256",
          "name": "_index",
          "type": "uint256"
        }
      ],
      "name": "challenge",
      "outputs": [],
      "stateMutability": "nonpayable",
      "type": "function"
    },
    {
      "inputs": [
        {
          "internalType": "uint256",
          "name": "_index",
          "type": "uint256"
        }
      ],
      "name": "claimVictoryByTime",
      "outputs": [],
      "stateMutability": "nonpayable",
      "type": "function"
    },
    {
      "inputs": [
        {
          "internalType": "uint256",
          "name": "_index",
          "type": "uint256"
        }
      ],
      "name": "confirm",
      "outputs": [],
      "stateMutability": "nonpayable",
      "type": "function"
    },
    {
      "inputs": [],
      "name": "currentIndex",
      "outputs": [
        {
          "internalType": "uint256",
          "name": "",
          "type": "uint256"
        }
      ],
      "stateMutability": "view",
      "type": "function"
    },
    {
      "inputs": [
        {
          "internalType": "uint256",
          "name": "_index",
          "type": "uint256"
        }
      ],
      "name": "deactivate",
      "outputs": [],
      "stateMutability": "nonpayable",
      "type": "function"
    },
    {
      "inputs": [
        {
          "internalType": "uint256",
          "name": "_index",
          "type": "uint256"
        }
      ],
      "name": "getCurrentState",
      "outputs": [
        {
          "internalType": "bytes32",
          "name": "",
          "type": "bytes32"
        }
      ],
      "stateMutability": "view",
      "type": "function"
    },
    {
      "inputs": [
        {
          "internalType": "uint256",
          "name": "_roundDuration",
          "type": "uint256"
        },
        {
          "internalType": "uint256",
          "name": "_timeToStartMachine",
          "type": "uint256"
        },
        {
          "internalType": "uint256",
          "name": "_partitionSize",
          "type": "uint256"
        },
        {
          "internalType": "uint256",
          "name": "_maxCycle",
          "type": "uint256"
        },
        {
          "internalType": "uint256",
          "name": "_picoSecondsToRunInsn",
          "type": "uint256"
        }
      ],
      "name": "getMaxInstanceDuration",
      "outputs": [
        {
          "internalType": "uint256",
          "name": "",
          "type": "uint256"
        }
      ],
      "stateMutability": "view",
      "type": "function"
    },
    {
      "inputs": [
        {
          "internalType": "uint256",
          "name": "_index",
          "type": "uint256"
        }
      ],
      "name": "getNonce",
      "outputs": [
        {
          "internalType": "uint256",
          "name": "currentNonce",
          "type": "uint256"
        }
      ],
      "stateMutability": "view",
      "type": "function"
    },
    {
      "inputs": [
        {
          "internalType": "uint256",
          "name": "_index",
          "type": "uint256"
        },
        {
          "internalType": "address",
          "name": "",
          "type": "address"
        }
      ],
      "name": "getState",
      "outputs": [
        {
          "internalType": "address",
          "name": "_challenger",
          "type": "address"
        },
        {
          "internalType": "address",
          "name": "_claimer",
          "type": "address"
        },
        {
          "internalType": "uint256",
          "name": "_deadline",
          "type": "uint256"
        },
        {
          "internalType": "address",
          "name": "_machine",
          "type": "address"
        },
        {
          "internalType": "bytes32",
          "name": "_initialHash",
          "type": "bytes32"
        },
        {
          "internalType": "uint256",
          "name": "_finalTime",
          "type": "uint256"
        },
        {
          "internalType": "bytes32",
          "name": "_claimedFinalHash",
          "type": "bytes32"
        },
        {
          "internalType": "bytes32",
          "name": "_currentState",
          "type": "bytes32"
        }
      ],
      "stateMutability": "view",
      "type": "function"
    },
    {
      "inputs": [
        {
          "internalType": "uint256",
          "name": "_index",
          "type": "uint256"
        },
        {
          "internalType": "address",
          "name": "",
          "type": "address"
        }
      ],
      "name": "getSubInstances",
      "outputs": [
        {
          "internalType": "address[]",
          "name": "_addresses",
          "type": "address[]"
        },
        {
          "internalType": "uint256[]",
          "name": "_indices",
          "type": "uint256[]"
        }
      ],
      "stateMutability": "view",
      "type": "function"
    },
    {
      "inputs": [
        {
          "internalType": "address",
          "name": "_challenger",
          "type": "address"
        },
        {
          "internalType": "address",
          "name": "_claimer",
          "type": "address"
        },
        {
          "internalType": "uint256",
          "name": "_roundDuration",
          "type": "uint256"
        },
        {
          "internalType": "address",
          "name": "_machineAddress",
          "type": "address"
        },
        {
          "internalType": "bytes32",
          "name": "_initialHash",
          "type": "bytes32"
        },
        {
          "internalType": "uint256",
          "name": "_finalTime",
          "type": "uint256"
        }
      ],
      "name": "instantiate",
      "outputs": [
        {
          "internalType": "uint256",
          "name": "",
          "type": "uint256"
        }
      ],
      "stateMutability": "nonpayable",
      "type": "function"
    },
    {
      "inputs": [
        {
          "internalType": "uint256",
          "name": "_index",
          "type": "uint256"
        }
      ],
      "name": "isActive",
      "outputs": [
        {
          "internalType": "bool",
          "name": "",
          "type": "bool"
        }
      ],
      "stateMutability": "view",
      "type": "function"
    },
    {
      "inputs": [
        {
          "internalType": "uint256",
          "name": "_index",
          "type": "uint256"
        },
        {
          "internalType": "address",
          "name": "_user",
          "type": "address"
        }
      ],
      "name": "isConcerned",
      "outputs": [
        {
          "internalType": "bool",
          "name": "",
          "type": "bool"
        }
      ],
      "stateMutability": "view",
      "type": "function"
    },
    {
      "inputs": [
        {
          "internalType": "uint256",
          "name": "_index",
          "type": "uint256"
        }
      ],
      "name": "stateIsChallengerWon",
      "outputs": [
        {
          "internalType": "bool",
          "name": "",
          "type": "bool"
        }
      ],
      "stateMutability": "view",
      "type": "function"
    },
    {
      "inputs": [
        {
          "internalType": "uint256",
          "name": "_index",
          "type": "uint256"
        }
      ],
      "name": "stateIsClaimerMissedDeadline",
      "outputs": [
        {
          "internalType": "bool",
          "name": "",
          "type": "bool"
        }
      ],
      "stateMutability": "view",
      "type": "function"
    },
    {
      "inputs": [
        {
          "internalType": "uint256",
          "name": "_index",
          "type": "uint256"
        }
      ],
      "name": "stateIsClaimerWon",
      "outputs": [
        {
          "internalType": "bool",
          "name": "",
          "type": "bool"
        }
      ],
      "stateMutability": "view",
      "type": "function"
    },
    {
      "inputs": [
        {
          "internalType": "uint256",
          "name": "_index",
          "type": "uint256"
        }
      ],
      "name": "stateIsConsensusResult",
      "outputs": [
        {
          "internalType": "bool",
          "name": "",
          "type": "bool"
        }
      ],
      "stateMutability": "view",
      "type": "function"
    },
    {
      "inputs": [
        {
          "internalType": "uint256",
          "name": "_index",
          "type": "uint256"
        }
      ],
      "name": "stateIsWaitingChallange",
      "outputs": [
        {
          "internalType": "bool",
          "name": "",
          "type": "bool"
        }
      ],
      "stateMutability": "view",
      "type": "function"
    },
    {
      "inputs": [
        {
          "internalType": "uint256",
          "name": "_index",
          "type": "uint256"
        }
      ],
      "name": "stateIsWaitingClaim",
      "outputs": [
        {
          "internalType": "bool",
          "name": "",
          "type": "bool"
        }
      ],
      "stateMutability": "view",
      "type": "function"
    },
    {
      "inputs": [
        {
          "internalType": "uint256",
          "name": "_index",
          "type": "uint256"
        }
      ],
      "name": "stateIsWaitingConfirmation",
      "outputs": [
        {
          "internalType": "bool",
          "name": "",
          "type": "bool"
        }
      ],
      "stateMutability": "view",
      "type": "function"
    },
    {
      "inputs": [
        {
          "internalType": "uint256",
          "name": "_index",
          "type": "uint256"
        },
        {
          "internalType": "bytes32",
          "name": "_claimedFinalHash",
          "type": "bytes32"
        }
      ],
      "name": "submitClaim",
      "outputs": [],
      "stateMutability": "nonpayable",
      "type": "function"
    },
    {
      "inputs": [
        {
          "internalType": "uint256",
          "name": "_index",
          "type": "uint256"
        }
      ],
      "name": "winByVG",
      "outputs": [],
      "stateMutability": "nonpayable",
      "type": "function"
    }
  ],
  "bytecode": "0x60806040526000805534801561001457600080fd5b506040516120083803806120088339818101604052602081101561003757600080fd5b5051600380546001600160a01b0319166001600160a01b03909216919091179055611fa1806100676000396000f3fe608060405234801561001057600080fd5b50600436106101425760003560e01c8063a0c222b4116100b8578063c19e71c31161007c578063c19e71c3146103c8578063c526656c14610412578063ce73b628146104d7578063d0a068cf146104f4578063ded4df6314610511578063e174b3bf1461052e57610142565b8063a0c222b414610331578063a20d952b14610354578063a2dc797314610371578063ab82d9a01461038e578063ba0179b5146103ab57610142565b80635748c1301161010a5780635748c130146102105780636547429e1461022d5780636c092edd1461024a57806373df16121461026757806382afd23b146102f5578063916b9bef1461031257610142565b806301ff62ab1461014757806326987b6014610187578063370f31aa146101a1578063388e43be146101d65780633d46b819146101f3575b600080fd5b6101736004803603604081101561015d57600080fd5b50803590602001356001600160a01b031661054b565b604080519115158252519081900360200190f35b61018f610596565b60408051918252519081900360200190f35b61018f600480360360a08110156101b757600080fd5b508035906020810135906040810135906060810135906080013561059c565b610173600480360360208110156101ec57600080fd5b50356105e4565b61018f6004803603602081101561020957600080fd5b5035610658565b61018f6004803603602081101561022657600080fd5b50356106fe565b6101736004803603602081101561024357600080fd5b5035610954565b6101736004803603602081101561026057600080fd5b50356109a2565b6102936004803603604081101561027d57600080fd5b50803590602001356001600160a01b03166109f0565b60405180896001600160a01b03168152602001886001600160a01b03168152602001878152602001866001600160a01b031681526020018581526020018481526020018381526020018281526020019850505050505050505060405180910390f35b6101736004803603602081101561030b57600080fd5b5035610d58565b61032f6004803603602081101561032857600080fd5b5035610d6d565b005b61032f6004803603604081101561034757600080fd5b5080359060200135610d90565b6101736004803603602081101561036a57600080fd5b5035610f2e565b61032f6004803603602081101561038757600080fd5b5035610f7c565b61032f600480360360208110156103a457600080fd5b50356111e4565b61032f600480360360208110156103c157600080fd5b503561143b565b61018f600480360360c08110156103de57600080fd5b506001600160a01b038135811691602081013582169160408201359160608101359091169060808101359060a001356115bb565b61043e6004803603604081101561042857600080fd5b50803590602001356001600160a01b0316611723565b604051808060200180602001838103835285818151815260200191508051906020019060200280838360005b8381101561048257818101518382015260200161046a565b50505050905001838103825284818151815260200191508051906020019060200280838360005b838110156104c15781810151838201526020016104a9565b5050505090500194505050505060405180910390f35b610173600480360360208110156104ed57600080fd5b5035611818565b6101736004803603602081101561050a57600080fd5b5035611866565b61032f6004803603602081101561052757600080fd5b50356118b4565b6101736004803603602081101561054457600080fd5b5035611adb565b6000828152600460205260408120546001600160a01b038381169116148061058f57506000838152600460205260409020600101546001600160a01b038381169116145b9392505050565b60005481565b6000806105ae60008888888888611b29565b905060006105c160018989898989611b29565b905060006105d460038a8a8a8a8a611b29565b9190920101979650505050505050565b600081806000541161062b576040805162461bcd60e51b81526020600482015260166024820152600080516020611f4c833981519152604482015290519081900360640190fd5b60015b60008481526004602052604090206009015460ff16600681111561064e57fe5b1491505b50919050565b600081806000541161069f576040805162461bcd60e51b81526020600482015260166024820152600080516020611f4c833981519152604482015290519081900360640190fd5b6106a881610d58565b6106ea576040805162461bcd60e51b815260206004820152600e60248201526d496e64657820696e61637469766560901b604482015290519081900360640190fd5b505060009081526002602052604090205490565b6000818060005411610745576040805162461bcd60e51b81526020600482015260166024820152600080516020611f4c833981519152604482015290519081900360640190fd5b60008381526004602052604081206009015460ff16600681111561076557fe5b1415610782576b57616974696e67436c61696d60a01b9150610652565b600160008481526004602052604090206009015460ff1660068111156107a457fe5b14156107c857722bb0b4ba34b733a1b7b73334b936b0ba34b7b760691b9150610652565b600260008481526004602052604090206009015460ff1660068111156107ea57fe5b14156108105774436c61696d65724d6973736564446561646c696e6560581b9150610652565b600360008481526004602052604090206009015460ff16600681111561083257fe5b1415610853576f57616974696e674368616c6c656e676560801b9150610652565b600460008481526004602052604090206009015460ff16600681111561087557fe5b1415610893576c21b430b63632b733b2b92bb7b760991b9150610652565b600560008481526004602052604090206009015460ff1660068111156108b557fe5b14156108d0576921b630b4b6b2b92bb7b760b11b9150610652565b600660008481526004602052604090206009015460ff1660068111156108f257fe5b1415610912576e10dbdb9cd95b9cdd5cd4995cdd5b1d608a1b9150610652565b6040805162461bcd60e51b8152602060048201526012602482015271556e7265636f676e697a656420737461746560701b604482015290519081900360640190fd5b600081806000541161099b576040805162461bcd60e51b81526020600482015260166024820152600080516020611f4c833981519152604482015290519081900360640190fd5b600461062e565b60008180600054116109e9576040805162461bcd60e51b81526020600482015260166024820152600080516020611f4c833981519152604482015290519081900360640190fd5b600261062e565b600080600080600080600080610a04611e29565b60008b81526004602081815260409283902083516101408101855281546001600160a01b03908116825260018301548116938201939093526002820154948101949094526003810154606085015291820154166080830152600581015460a083015260068082015460c0840152600782015460e08401526008820154610100840152600982015461012084019160ff90911690811115610aa057fe5b6006811115610aab57fe5b90525090506001806000808461012001516006811115610ac757fe5b1415610adf57506b57616974696e67436c61696d60a01b5b60018461012001516006811115610af257fe5b1415610b115750722bb0b4ba34b733a1b7b73334b936b0ba34b7b760691b5b60028461012001516006811115610b2457fe5b1415610b45575074436c61696d65724d6973736564446561646c696e6560581b5b60038461012001516006811115610b5857fe5b1415610c71575060035461010084015160408051630c91927b60e01b81526004810192909252516f57616974696e674368616c6c656e676560801b926001600160a01b031691630c91927b916024808301926020929190829003018186803b158015610bc357600080fd5b505afa158015610bd7573d6000803e3d6000fd5b505050506040513d6020811015610bed57600080fd5b505160035461010086015160408051622231c360e11b81526004810192909252519295506001600160a01b03909116916244638691602480820192602092909190829003018186803b158015610c4257600080fd5b505afa158015610c56573d6000803e3d6000fd5b505050506040513d6020811015610c6c57600080fd5b505191505b60048461012001516006811115610c8457fe5b1415610c9d57506c21b430b63632b733b2b92bb7b760991b5b60058461012001516006811115610cb057fe5b1415610cc657506921b630b4b6b2b92bb7b760b11b5b60068461012001516006811115610cd957fe5b1415610cf457506e10dbdb9cd95b9cdd5cd4995cdd5b1d608a1b5b83600001518460200151610d1c86610120015187604001516028888a60c001516101f4611b29565b86606001510186608001518760a001518860c001518960e00151879b509b509b509b509b509b509b509b50505050509295985092959890939650565b60009081526001602052604090205460ff1690565b6000908152600160209081526040808320805460ff191690556002909152812055565b818060005411610dd5576040805162461bcd60e51b81526020600482015260166024820152600080516020611f4c833981519152604482015290519081900360640190fd5b6000838152600460205260409020600101546001600160a01b0316338114610e3f576040805162461bcd60e51b815260206004820152601860248201527721b0b73737ba1031329031b0b63632b210313c903ab9b2b960411b604482015290519081900360640190fd5b600084815260026020526040812080546001019055849060008681526004602052604090206009015460ff166006811115610e7657fe5b14610ec8576040805162461bcd60e51b815260206004820152601c60248201527f53746174652073686f756c642062652057616974696e67436c61696d00000000604482015290519081900360640190fd5b60008581526004602090815260409182902060078101879055600901805460ff19166001179055815187815290810186905281517f1e9358f673ff367487ce56f136412ae5b69bf2c06e223aad2756d748c2a9b52a929181900390910190a15050505050565b6000818060005411610f75576040805162461bcd60e51b81526020600482015260166024820152600080516020611f4c833981519152604482015290519081900360640190fd5b600061062e565b808060005411610fc1576040805162461bcd60e51b81526020600482015260166024820152600080516020611f4c833981519152604482015290519081900360640190fd5b6000828152600260208181526040808420805460019081019091556004909252832060098101549281015460069091015486949361100c9360ff9091169291602891906101f4611b29565b60008581526004602052604090206003015401421190508061105f5760405162461bcd60e51b815260040180806020018281038252602c815260200180611e9f602c913960400191505060405180910390fd5b6000848152600460205260409020546001600160a01b0316331480156110a2575060008481526004602052604081206009015460ff1660068111156110a057fe5b145b1561113857600084815260046020526040902060090180546002919060ff19166001835b02179055506110d484610d6d565b6000848152600460205260409020600901547fce5d57dc06bffee515dc9f8ca3a267203dbbe503f6bfad687a7120d00756913e90859060ff16600681111561111857fe5b6040805192835260ff90911660208301528051918290030190a1506111df565b6000848152600460205260409020600101546001600160a01b0316331480156111805750600160008581526004602052604090206009015460ff16600681111561117e57fe5b145b156111a857600084815260046020526040902060090180546006919060ff19166001836110c6565b60405162461bcd60e51b815260040180806020018281038252602f815260200180611f1d602f913960400191505060405180910390fd5b505050565b808060005411611229576040805162461bcd60e51b81526020600482015260166024820152600080516020611f4c833981519152604482015290519081900360640190fd5b6000828152600460205260409020546001600160a01b0316338114611290576040805162461bcd60e51b815260206004820152601860248201527721b0b73737ba1031329031b0b63632b210313c903ab9b2b960411b604482015290519081900360640190fd5b600083815260026020526040902080546001908101909155839060008581526004602052604090206009015460ff1660068111156112ca57fe5b146113065760405162461bcd60e51b8152600401808060200182810382526023815260200180611e7c6023913960400191505060405180910390fd5b60035460008581526004602081815260408084208054600182015460028301548387015460058501546007860154600690960154875163020b738760e41b81526001600160a01b039687169a81019a909a5293851660248a0152604489019290925283166064880152608487015260a486019290925260c485019190915290519416936320b738709360e4808501948390030190829087803b1580156113ab57600080fd5b505af11580156113bf573d6000803e3d6000fd5b505050506040513d60208110156113d557600080fd5b50516000858152600460205260409020600881019190915560090180546003919060ff191660018302179055506040805185815290517fa895da4b794aeba8d8082db237265459db7b7ffdb5aa7c2332a7c5eafbfae7359181900360200190a150505050565b808060005411611480576040805162461bcd60e51b81526020600482015260166024820152600080516020611f4c833981519152604482015290519081900360640190fd5b6000828152600460205260409020546001600160a01b03163381146114e7576040805162461bcd60e51b815260206004820152601860248201527721b0b73737ba1031329031b0b63632b210313c903ab9b2b960411b604482015290519081900360640190fd5b600083815260026020526040902080546001908101909155839060008581526004602052604090206009015460ff16600681111561152157fe5b1461155d5760405162461bcd60e51b8152600401808060200182810382526023815260200180611e7c6023913960400191505060405180910390fd5b6000848152600460205260409020600901805460ff1916600617905561158284611c84565b6040805185815290517fa832892b4543448b594422a93bf38c889d54ae5938a065c6ec5f4636161f522a9181900360200190a150505050565b6000856001600160a01b0316876001600160a01b0316141561160e5760405162461bcd60e51b8152600401808060200182810382526025815260200180611ef86025913960400191505060405180910390fd5b600080548152600460208190526040822080546001600160a01b03808c166001600160a01b0319928316178355600180840180548d8416908516179055600284018b90559383018054918a16919092161790556005810186905560068101859055600981018054919392909160ff191690830217905550426003820155600054604080519182526001600160a01b03808b166020840152808a1683830152606083018990528716608083015260a0820186905260c08201859052517f9f53c9493351536908d5efd56da31dfb5a53a510ac3e216afe64af077b558d509181900360e00190a150506000805481526001602081905260408220805460ff19168217905581549081019091555b9695505050505050565b6060808080600360008781526004602052604090206009015460ff16600681111561174a57fe5b14156117f45760408051600180825281830190925290602080830190803683375050604080516001808252818301909252929450905060208083019080368337505060035484519293506001600160a01b0316918491506000906117aa57fe5b6001600160a01b039092166020928302919091018201526000878152600490915260408120600801548251909183916117df57fe5b60209081029190910101529092509050611811565b505060408051600080825260208201908152818301909252925090505b9250929050565b600081806000541161185f576040805162461bcd60e51b81526020600482015260166024820152600080516020611f4c833981519152604482015290519081900360640190fd5b600361062e565b60008180600054116118ad576040805162461bcd60e51b81526020600482015260166024820152600080516020611f4c833981519152604482015290519081900360640190fd5b600561062e565b8080600054116118f9576040805162461bcd60e51b81526020600482015260166024820152600080516020611f4c833981519152604482015290519081900360640190fd5b60008281526002602052604090208054600101905581600360008481526004602052604090206009015460ff16600681111561193157fe5b1461196d5760405162461bcd60e51b815260040180806020018281038252602d815260200180611ecb602d913960400191505060405180910390fd5b60008381526004602081815260409283902060080154600354845163b6b5c31960e01b8152938401829052935190936001600160a01b03169263b6b5c319926024808301939192829003018186803b1580156119c857600080fd5b505afa1580156119dc573d6000803e3d6000fd5b505050506040513d60208110156119f257600080fd5b505115611a0857611a0284611ce5565b506111df565b60035460408051633664f8bf60e11b81526004810184905290516001600160a01b0390921691636cc9f17e91602480820192602092909190829003018186803b158015611a5457600080fd5b505afa158015611a68573d6000803e3d6000fd5b505050506040513d6020811015611a7e57600080fd5b505115611a8e57611a0284611db8565b6040805162461bcd60e51b815260206004820152601860248201527f5374617465206f66205647206973206e6f742066696e616c0000000000000000604482015290519081900360640190fd5b6000818060005411611b22576040805162461bcd60e51b81526020600482015260166024820152600080516020611f4c833981519152604482015290519081900360640190fd5b600661062e565b600080876006811115611b3857fe5b1415611b54578564e8d4a510008484025b048601019050611719565b6001876006811115611b6257fe5b1415611b77578564e8d4a51000848402611b49565b6003876006811115611b8557fe5b1415611c265760035460408051631b8798d560e11b81526004810189905260248101889052604481018790526064810186905260848101859052905188926001600160a01b03169163370f31aa9160a4808301926020929190829003018186803b158015611bf257600080fd5b505afa158015611c06573d6000803e3d6000fd5b505050506040513d6020811015611c1c57600080fd5b5051019050611719565b6005876006811115611c3457fe5b1480611c4b57506004876006811115611c4957fe5b145b80611c6157506002876006811115611c5f57fe5b145b80611c7757506006876006811115611c7557fe5b145b1561171957506000611719565b6000818152600460208190526040822080546001600160a01b031990811682556001820180548216905560028201849055600382018490559181018054909216909155600581018290556006810182905560080155611ce281610d6d565b50565b808060005411611d2a576040805162461bcd60e51b81526020600482015260166024820152600080516020611f4c833981519152604482015290519081900360640190fd5b611d3382611c84565b6000828152600460208190526040909120600901805460ff19166001835b02179055506000828152600460205260409020600901547fce5d57dc06bffee515dc9f8ca3a267203dbbe503f6bfad687a7120d00756913e90839060ff166006811115611d9a57fe5b6040805192835260ff90911660208301528051918290030190a15050565b808060005411611dfd576040805162461bcd60e51b81526020600482015260166024820152600080516020611f4c833981519152604482015290519081900360640190fd5b611e0682611c84565b600082815260046020526040902060090180546005919060ff1916600183611d51565b6040805161014081018252600080825260208201819052918101829052606081018290526080810182905260a0810182905260c0810182905260e081018290526101008101829052906101208201529056fe53746174652073686f756c642062652057616974696e67436f6e6669726d6174696f6e446561646c696e65206973206e6f74206f76657220666f7220746869732073706563696669632073746174655374617465206973206e6f742057616974696e674368616c6c656e67652c2063616e6e6f742077696e427956474368616c6c656e67657220616e6420436c61696d6572206e65656420746f206469666665724661696c20746f20436c61696d566963746f7279427954696d6520696e2063757272656e7420636f6e646974696f6e496e646578206e6f7420696e7374616e74696174656400000000000000000000a26469706673582212202f9fad74884d545eec548dcbdf37ced9ce8b0b348b73e718ecb8bb5082026f3964736f6c63430007040033",
  "linkReferences": {},
  "deployedLinkReferences": {},
  "devdoc": {
    "kind": "dev",
    "methods": {
      "challenge(uint256)": {
        "params": {
          "_index": "Index of compute instance which challenger is starting the VG."
        }
      },
      "confirm(uint256)": {
        "params": {
          "_index": "Index of compute instance that the challenger is confirming the claim."
        }
      },
      "getMaxInstanceDuration(uint256,uint256,uint256,uint256,uint256)": {
        "params": {
          "_maxCycle": "number of instructions until the machine is forcibly halted",
          "_picoSecondsToRunInsn": "time the offchain will take to run one instruction"
        }
      },
      "instantiate(address,address,uint256,address,bytes32,uint256)": {
        "params": {
          "_challenger": "address of the challenger.",
          "_claimer": "address of the claimer.",
          "_finalTime": "max cycle of the machine for that computation",
          "_initialHash": "hash in which both claimer and challenger agree on",
          "_machineAddress": "address of the machine that will run the instruction",
          "_roundDuration": "duration of the round (security param)"
        },
        "returns": {
          "_0": "Compute index."
        }
      },
      "submitClaim(uint256,bytes32)": {
        "params": {
          "_claimedFinalHash": "hash of the machine after computation is completed.",
          "_index": "Index of instance that the claimer is interacting with"
        }
      },
      "winByVG(uint256)": {
        "params": {
          "_index": "Index of compute instance which challenger is starting the VG."
        }
      }
    },
    "version": 1
  },
  "evm": {
    "bytecode": {
      "linkReferences": {},
      "opcodes": "PUSH1 0x80 PUSH1 0x40 MSTORE PUSH1 0x0 DUP1 SSTORE CALLVALUE DUP1 ISZERO PUSH2 0x14 JUMPI PUSH1 0x0 DUP1 REVERT JUMPDEST POP PUSH1 0x40 MLOAD PUSH2 0x2008 CODESIZE SUB DUP1 PUSH2 0x2008 DUP4 CODECOPY DUP2 DUP2 ADD PUSH1 0x40 MSTORE PUSH1 0x20 DUP2 LT ISZERO PUSH2 0x37 JUMPI PUSH1 0x0 DUP1 REVERT JUMPDEST POP MLOAD PUSH1 0x3 DUP1 SLOAD PUSH1 0x1 PUSH1 0x1 PUSH1 0xA0 SHL SUB NOT AND PUSH1 0x1 PUSH1 0x1 PUSH1 0xA0 SHL SUB SWAP1 SWAP3 AND SWAP2 SWAP1 SWAP2 OR SWAP1 SSTORE PUSH2 0x1FA1 DUP1 PUSH2 0x67 PUSH1 0x0 CODECOPY PUSH1 0x0 RETURN INVALID PUSH1 0x80 PUSH1 0x40 MSTORE CALLVALUE DUP1 ISZERO PUSH2 0x10 JUMPI PUSH1 0x0 DUP1 REVERT JUMPDEST POP PUSH1 0x4 CALLDATASIZE LT PUSH2 0x142 JUMPI PUSH1 0x0 CALLDATALOAD PUSH1 0xE0 SHR DUP1 PUSH4 0xA0C222B4 GT PUSH2 0xB8 JUMPI DUP1 PUSH4 0xC19E71C3 GT PUSH2 0x7C JUMPI DUP1 PUSH4 0xC19E71C3 EQ PUSH2 0x3C8 JUMPI DUP1 PUSH4 0xC526656C EQ PUSH2 0x412 JUMPI DUP1 PUSH4 0xCE73B628 EQ PUSH2 0x4D7 JUMPI DUP1 PUSH4 0xD0A068CF EQ PUSH2 0x4F4 JUMPI DUP1 PUSH4 0xDED4DF63 EQ PUSH2 0x511 JUMPI DUP1 PUSH4 0xE174B3BF EQ PUSH2 0x52E JUMPI PUSH2 0x142 JUMP JUMPDEST DUP1 PUSH4 0xA0C222B4 EQ PUSH2 0x331 JUMPI DUP1 PUSH4 0xA20D952B EQ PUSH2 0x354 JUMPI DUP1 PUSH4 0xA2DC7973 EQ PUSH2 0x371 JUMPI DUP1 PUSH4 0xAB82D9A0 EQ PUSH2 0x38E JUMPI DUP1 PUSH4 0xBA0179B5 EQ PUSH2 0x3AB JUMPI PUSH2 0x142 JUMP JUMPDEST DUP1 PUSH4 0x5748C130 GT PUSH2 0x10A JUMPI DUP1 PUSH4 0x5748C130 EQ PUSH2 0x210 JUMPI DUP1 PUSH4 0x6547429E EQ PUSH2 0x22D JUMPI DUP1 PUSH4 0x6C092EDD EQ PUSH2 0x24A JUMPI DUP1 PUSH4 0x73DF1612 EQ PUSH2 0x267 JUMPI DUP1 PUSH4 0x82AFD23B EQ PUSH2 0x2F5 JUMPI DUP1 PUSH4 0x916B9BEF EQ PUSH2 0x312 JUMPI PUSH2 0x142 JUMP JUMPDEST DUP1 PUSH4 0x1FF62AB EQ PUSH2 0x147 JUMPI DUP1 PUSH4 0x26987B60 EQ PUSH2 0x187 JUMPI DUP1 PUSH4 0x370F31AA EQ PUSH2 0x1A1 JUMPI DUP1 PUSH4 0x388E43BE EQ PUSH2 0x1D6 JUMPI DUP1 PUSH4 0x3D46B819 EQ PUSH2 0x1F3 JUMPI JUMPDEST PUSH1 0x0 DUP1 REVERT JUMPDEST PUSH2 0x173 PUSH1 0x4 DUP1 CALLDATASIZE SUB PUSH1 0x40 DUP2 LT ISZERO PUSH2 0x15D JUMPI PUSH1 0x0 DUP1 REVERT JUMPDEST POP DUP1 CALLDATALOAD SWAP1 PUSH1 0x20 ADD CALLDATALOAD PUSH1 0x1 PUSH1 0x1 PUSH1 0xA0 SHL SUB AND PUSH2 0x54B JUMP JUMPDEST PUSH1 0x40 DUP1 MLOAD SWAP2 ISZERO ISZERO DUP3 MSTORE MLOAD SWAP1 DUP2 SWAP1 SUB PUSH1 0x20 ADD SWAP1 RETURN JUMPDEST PUSH2 0x18F PUSH2 0x596 JUMP JUMPDEST PUSH1 0x40 DUP1 MLOAD SWAP2 DUP3 MSTORE MLOAD SWAP1 DUP2 SWAP1 SUB PUSH1 0x20 ADD SWAP1 RETURN JUMPDEST PUSH2 0x18F PUSH1 0x4 DUP1 CALLDATASIZE SUB PUSH1 0xA0 DUP2 LT ISZERO PUSH2 0x1B7 JUMPI PUSH1 0x0 DUP1 REVERT JUMPDEST POP DUP1 CALLDATALOAD SWAP1 PUSH1 0x20 DUP2 ADD CALLDATALOAD SWAP1 PUSH1 0x40 DUP2 ADD CALLDATALOAD SWAP1 PUSH1 0x60 DUP2 ADD CALLDATALOAD SWAP1 PUSH1 0x80 ADD CALLDATALOAD PUSH2 0x59C JUMP JUMPDEST PUSH2 0x173 PUSH1 0x4 DUP1 CALLDATASIZE SUB PUSH1 0x20 DUP2 LT ISZERO PUSH2 0x1EC JUMPI PUSH1 0x0 DUP1 REVERT JUMPDEST POP CALLDATALOAD PUSH2 0x5E4 JUMP JUMPDEST PUSH2 0x18F PUSH1 0x4 DUP1 CALLDATASIZE SUB PUSH1 0x20 DUP2 LT ISZERO PUSH2 0x209 JUMPI PUSH1 0x0 DUP1 REVERT JUMPDEST POP CALLDATALOAD PUSH2 0x658 JUMP JUMPDEST PUSH2 0x18F PUSH1 0x4 DUP1 CALLDATASIZE SUB PUSH1 0x20 DUP2 LT ISZERO PUSH2 0x226 JUMPI PUSH1 0x0 DUP1 REVERT JUMPDEST POP CALLDATALOAD PUSH2 0x6FE JUMP JUMPDEST PUSH2 0x173 PUSH1 0x4 DUP1 CALLDATASIZE SUB PUSH1 0x20 DUP2 LT ISZERO PUSH2 0x243 JUMPI PUSH1 0x0 DUP1 REVERT JUMPDEST POP CALLDATALOAD PUSH2 0x954 JUMP JUMPDEST PUSH2 0x173 PUSH1 0x4 DUP1 CALLDATASIZE SUB PUSH1 0x20 DUP2 LT ISZERO PUSH2 0x260 JUMPI PUSH1 0x0 DUP1 REVERT JUMPDEST POP CALLDATALOAD PUSH2 0x9A2 JUMP JUMPDEST PUSH2 0x293 PUSH1 0x4 DUP1 CALLDATASIZE SUB PUSH1 0x40 DUP2 LT ISZERO PUSH2 0x27D JUMPI PUSH1 0x0 DUP1 REVERT JUMPDEST POP DUP1 CALLDATALOAD SWAP1 PUSH1 0x20 ADD CALLDATALOAD PUSH1 0x1 PUSH1 0x1 PUSH1 0xA0 SHL SUB AND PUSH2 0x9F0 JUMP JUMPDEST PUSH1 0x40 MLOAD DUP1 DUP10 PUSH1 0x1 PUSH1 0x1 PUSH1 0xA0 SHL SUB AND DUP2 MSTORE PUSH1 0x20 ADD DUP9 PUSH1 0x1 PUSH1 0x1 PUSH1 0xA0 SHL SUB AND DUP2 MSTORE PUSH1 0x20 ADD DUP8 DUP2 MSTORE PUSH1 0x20 ADD DUP7 PUSH1 0x1 PUSH1 0x1 PUSH1 0xA0 SHL SUB AND DUP2 MSTORE PUSH1 0x20 ADD DUP6 DUP2 MSTORE PUSH1 0x20 ADD DUP5 DUP2 MSTORE PUSH1 0x20 ADD DUP4 DUP2 MSTORE PUSH1 0x20 ADD DUP3 DUP2 MSTORE PUSH1 0x20 ADD SWAP9 POP POP POP POP POP POP POP POP POP PUSH1 0x40 MLOAD DUP1 SWAP2 SUB SWAP1 RETURN JUMPDEST PUSH2 0x173 PUSH1 0x4 DUP1 CALLDATASIZE SUB PUSH1 0x20 DUP2 LT ISZERO PUSH2 0x30B JUMPI PUSH1 0x0 DUP1 REVERT JUMPDEST POP CALLDATALOAD PUSH2 0xD58 JUMP JUMPDEST PUSH2 0x32F PUSH1 0x4 DUP1 CALLDATASIZE SUB PUSH1 0x20 DUP2 LT ISZERO PUSH2 0x328 JUMPI PUSH1 0x0 DUP1 REVERT JUMPDEST POP CALLDATALOAD PUSH2 0xD6D JUMP JUMPDEST STOP JUMPDEST PUSH2 0x32F PUSH1 0x4 DUP1 CALLDATASIZE SUB PUSH1 0x40 DUP2 LT ISZERO PUSH2 0x347 JUMPI PUSH1 0x0 DUP1 REVERT JUMPDEST POP DUP1 CALLDATALOAD SWAP1 PUSH1 0x20 ADD CALLDATALOAD PUSH2 0xD90 JUMP JUMPDEST PUSH2 0x173 PUSH1 0x4 DUP1 CALLDATASIZE SUB PUSH1 0x20 DUP2 LT ISZERO PUSH2 0x36A JUMPI PUSH1 0x0 DUP1 REVERT JUMPDEST POP CALLDATALOAD PUSH2 0xF2E JUMP JUMPDEST PUSH2 0x32F PUSH1 0x4 DUP1 CALLDATASIZE SUB PUSH1 0x20 DUP2 LT ISZERO PUSH2 0x387 JUMPI PUSH1 0x0 DUP1 REVERT JUMPDEST POP CALLDATALOAD PUSH2 0xF7C JUMP JUMPDEST PUSH2 0x32F PUSH1 0x4 DUP1 CALLDATASIZE SUB PUSH1 0x20 DUP2 LT ISZERO PUSH2 0x3A4 JUMPI PUSH1 0x0 DUP1 REVERT JUMPDEST POP CALLDATALOAD PUSH2 0x11E4 JUMP JUMPDEST PUSH2 0x32F PUSH1 0x4 DUP1 CALLDATASIZE SUB PUSH1 0x20 DUP2 LT ISZERO PUSH2 0x3C1 JUMPI PUSH1 0x0 DUP1 REVERT JUMPDEST POP CALLDATALOAD PUSH2 0x143B JUMP JUMPDEST PUSH2 0x18F PUSH1 0x4 DUP1 CALLDATASIZE SUB PUSH1 0xC0 DUP2 LT ISZERO PUSH2 0x3DE JUMPI PUSH1 0x0 DUP1 REVERT JUMPDEST POP PUSH1 0x1 PUSH1 0x1 PUSH1 0xA0 SHL SUB DUP2 CALLDATALOAD DUP2 AND SWAP2 PUSH1 0x20 DUP2 ADD CALLDATALOAD DUP3 AND SWAP2 PUSH1 0x40 DUP3 ADD CALLDATALOAD SWAP2 PUSH1 0x60 DUP2 ADD CALLDATALOAD SWAP1 SWAP2 AND SWAP1 PUSH1 0x80 DUP2 ADD CALLDATALOAD SWAP1 PUSH1 0xA0 ADD CALLDATALOAD PUSH2 0x15BB JUMP JUMPDEST PUSH2 0x43E PUSH1 0x4 DUP1 CALLDATASIZE SUB PUSH1 0x40 DUP2 LT ISZERO PUSH2 0x428 JUMPI PUSH1 0x0 DUP1 REVERT JUMPDEST POP DUP1 CALLDATALOAD SWAP1 PUSH1 0x20 ADD CALLDATALOAD PUSH1 0x1 PUSH1 0x1 PUSH1 0xA0 SHL SUB AND PUSH2 0x1723 JUMP JUMPDEST PUSH1 0x40 MLOAD DUP1 DUP1 PUSH1 0x20 ADD DUP1 PUSH1 0x20 ADD DUP4 DUP2 SUB DUP4 MSTORE DUP6 DUP2 DUP2 MLOAD DUP2 MSTORE PUSH1 0x20 ADD SWAP2 POP DUP1 MLOAD SWAP1 PUSH1 0x20 ADD SWAP1 PUSH1 0x20 MUL DUP1 DUP4 DUP4 PUSH1 0x0 JUMPDEST DUP4 DUP2 LT ISZERO PUSH2 0x482 JUMPI DUP2 DUP2 ADD MLOAD DUP4 DUP3 ADD MSTORE PUSH1 0x20 ADD PUSH2 0x46A JUMP JUMPDEST POP POP POP POP SWAP1 POP ADD DUP4 DUP2 SUB DUP3 MSTORE DUP5 DUP2 DUP2 MLOAD DUP2 MSTORE PUSH1 0x20 ADD SWAP2 POP DUP1 MLOAD SWAP1 PUSH1 0x20 ADD SWAP1 PUSH1 0x20 MUL DUP1 DUP4 DUP4 PUSH1 0x0 JUMPDEST DUP4 DUP2 LT ISZERO PUSH2 0x4C1 JUMPI DUP2 DUP2 ADD MLOAD DUP4 DUP3 ADD MSTORE PUSH1 0x20 ADD PUSH2 0x4A9 JUMP JUMPDEST POP POP POP POP SWAP1 POP ADD SWAP5 POP POP POP POP POP PUSH1 0x40 MLOAD DUP1 SWAP2 SUB SWAP1 RETURN JUMPDEST PUSH2 0x173 PUSH1 0x4 DUP1 CALLDATASIZE SUB PUSH1 0x20 DUP2 LT ISZERO PUSH2 0x4ED JUMPI PUSH1 0x0 DUP1 REVERT JUMPDEST POP CALLDATALOAD PUSH2 0x1818 JUMP JUMPDEST PUSH2 0x173 PUSH1 0x4 DUP1 CALLDATASIZE SUB PUSH1 0x20 DUP2 LT ISZERO PUSH2 0x50A JUMPI PUSH1 0x0 DUP1 REVERT JUMPDEST POP CALLDATALOAD PUSH2 0x1866 JUMP JUMPDEST PUSH2 0x32F PUSH1 0x4 DUP1 CALLDATASIZE SUB PUSH1 0x20 DUP2 LT ISZERO PUSH2 0x527 JUMPI PUSH1 0x0 DUP1 REVERT JUMPDEST POP CALLDATALOAD PUSH2 0x18B4 JUMP JUMPDEST PUSH2 0x173 PUSH1 0x4 DUP1 CALLDATASIZE SUB PUSH1 0x20 DUP2 LT ISZERO PUSH2 0x544 JUMPI PUSH1 0x0 DUP1 REVERT JUMPDEST POP CALLDATALOAD PUSH2 0x1ADB JUMP JUMPDEST PUSH1 0x0 DUP3 DUP2 MSTORE PUSH1 0x4 PUSH1 0x20 MSTORE PUSH1 0x40 DUP2 KECCAK256 SLOAD PUSH1 0x1 PUSH1 0x1 PUSH1 0xA0 SHL SUB DUP4 DUP2 AND SWAP2 AND EQ DUP1 PUSH2 0x58F JUMPI POP PUSH1 0x0 DUP4 DUP2 MSTORE PUSH1 0x4 PUSH1 0x20 MSTORE PUSH1 0x40 SWAP1 KECCAK256 PUSH1 0x1 ADD SLOAD PUSH1 0x1 PUSH1 0x1 PUSH1 0xA0 SHL SUB DUP4 DUP2 AND SWAP2 AND EQ JUMPDEST SWAP4 SWAP3 POP POP POP JUMP JUMPDEST PUSH1 0x0 SLOAD DUP2 JUMP JUMPDEST PUSH1 0x0 DUP1 PUSH2 0x5AE PUSH1 0x0 DUP9 DUP9 DUP9 DUP9 DUP9 PUSH2 0x1B29 JUMP JUMPDEST SWAP1 POP PUSH1 0x0 PUSH2 0x5C1 PUSH1 0x1 DUP10 DUP10 DUP10 DUP10 DUP10 PUSH2 0x1B29 JUMP JUMPDEST SWAP1 POP PUSH1 0x0 PUSH2 0x5D4 PUSH1 0x3 DUP11 DUP11 DUP11 DUP11 DUP11 PUSH2 0x1B29 JUMP JUMPDEST SWAP2 SWAP1 SWAP3 ADD ADD SWAP8 SWAP7 POP POP POP POP POP POP POP JUMP JUMPDEST PUSH1 0x0 DUP2 DUP1 PUSH1 0x0 SLOAD GT PUSH2 0x62B JUMPI PUSH1 0x40 DUP1 MLOAD PUSH3 0x461BCD PUSH1 0xE5 SHL DUP2 MSTORE PUSH1 0x20 PUSH1 0x4 DUP3 ADD MSTORE PUSH1 0x16 PUSH1 0x24 DUP3 ADD MSTORE PUSH1 0x0 DUP1 MLOAD PUSH1 0x20 PUSH2 0x1F4C DUP4 CODECOPY DUP2 MLOAD SWAP2 MSTORE PUSH1 0x44 DUP3 ADD MSTORE SWAP1 MLOAD SWAP1 DUP2 SWAP1 SUB PUSH1 0x64 ADD SWAP1 REVERT JUMPDEST PUSH1 0x1 JUMPDEST PUSH1 0x0 DUP5 DUP2 MSTORE PUSH1 0x4 PUSH1 0x20 MSTORE PUSH1 0x40 SWAP1 KECCAK256 PUSH1 0x9 ADD SLOAD PUSH1 0xFF AND PUSH1 0x6 DUP2 GT ISZERO PUSH2 0x64E JUMPI INVALID JUMPDEST EQ SWAP2 POP JUMPDEST POP SWAP2 SWAP1 POP JUMP JUMPDEST PUSH1 0x0 DUP2 DUP1 PUSH1 0x0 SLOAD GT PUSH2 0x69F JUMPI PUSH1 0x40 DUP1 MLOAD PUSH3 0x461BCD PUSH1 0xE5 SHL DUP2 MSTORE PUSH1 0x20 PUSH1 0x4 DUP3 ADD MSTORE PUSH1 0x16 PUSH1 0x24 DUP3 ADD MSTORE PUSH1 0x0 DUP1 MLOAD PUSH1 0x20 PUSH2 0x1F4C DUP4 CODECOPY DUP2 MLOAD SWAP2 MSTORE PUSH1 0x44 DUP3 ADD MSTORE SWAP1 MLOAD SWAP1 DUP2 SWAP1 SUB PUSH1 0x64 ADD SWAP1 REVERT JUMPDEST PUSH2 0x6A8 DUP2 PUSH2 0xD58 JUMP JUMPDEST PUSH2 0x6EA JUMPI PUSH1 0x40 DUP1 MLOAD PUSH3 0x461BCD PUSH1 0xE5 SHL DUP2 MSTORE PUSH1 0x20 PUSH1 0x4 DUP3 ADD MSTORE PUSH1 0xE PUSH1 0x24 DUP3 ADD MSTORE PUSH14 0x496E64657820696E616374697665 PUSH1 0x90 SHL PUSH1 0x44 DUP3 ADD MSTORE SWAP1 MLOAD SWAP1 DUP2 SWAP1 SUB PUSH1 0x64 ADD SWAP1 REVERT JUMPDEST POP POP PUSH1 0x0 SWAP1 DUP2 MSTORE PUSH1 0x2 PUSH1 0x20 MSTORE PUSH1 0x40 SWAP1 KECCAK256 SLOAD SWAP1 JUMP JUMPDEST PUSH1 0x0 DUP2 DUP1 PUSH1 0x0 SLOAD GT PUSH2 0x745 JUMPI PUSH1 0x40 DUP1 MLOAD PUSH3 0x461BCD PUSH1 0xE5 SHL DUP2 MSTORE PUSH1 0x20 PUSH1 0x4 DUP3 ADD MSTORE PUSH1 0x16 PUSH1 0x24 DUP3 ADD MSTORE PUSH1 0x0 DUP1 MLOAD PUSH1 0x20 PUSH2 0x1F4C DUP4 CODECOPY DUP2 MLOAD SWAP2 MSTORE PUSH1 0x44 DUP3 ADD MSTORE SWAP1 MLOAD SWAP1 DUP2 SWAP1 SUB PUSH1 0x64 ADD SWAP1 REVERT JUMPDEST PUSH1 0x0 DUP4 DUP2 MSTORE PUSH1 0x4 PUSH1 0x20 MSTORE PUSH1 0x40 DUP2 KECCAK256 PUSH1 0x9 ADD SLOAD PUSH1 0xFF AND PUSH1 0x6 DUP2 GT ISZERO PUSH2 0x765 JUMPI INVALID JUMPDEST EQ ISZERO PUSH2 0x782 JUMPI PUSH12 0x57616974696E67436C61696D PUSH1 0xA0 SHL SWAP2 POP PUSH2 0x652 JUMP JUMPDEST PUSH1 0x1 PUSH1 0x0 DUP5 DUP2 MSTORE PUSH1 0x4 PUSH1 0x20 MSTORE PUSH1 0x40 SWAP1 KECCAK256 PUSH1 0x9 ADD SLOAD PUSH1 0xFF AND PUSH1 0x6 DUP2 GT ISZERO PUSH2 0x7A4 JUMPI INVALID JUMPDEST EQ ISZERO PUSH2 0x7C8 JUMPI PUSH19 0x2BB0B4BA34B733A1B7B73334B936B0BA34B7B7 PUSH1 0x69 SHL SWAP2 POP PUSH2 0x652 JUMP JUMPDEST PUSH1 0x2 PUSH1 0x0 DUP5 DUP2 MSTORE PUSH1 0x4 PUSH1 0x20 MSTORE PUSH1 0x40 SWAP1 KECCAK256 PUSH1 0x9 ADD SLOAD PUSH1 0xFF AND PUSH1 0x6 DUP2 GT ISZERO PUSH2 0x7EA JUMPI INVALID JUMPDEST EQ ISZERO PUSH2 0x810 JUMPI PUSH21 0x436C61696D65724D6973736564446561646C696E65 PUSH1 0x58 SHL SWAP2 POP PUSH2 0x652 JUMP JUMPDEST PUSH1 0x3 PUSH1 0x0 DUP5 DUP2 MSTORE PUSH1 0x4 PUSH1 0x20 MSTORE PUSH1 0x40 SWAP1 KECCAK256 PUSH1 0x9 ADD SLOAD PUSH1 0xFF AND PUSH1 0x6 DUP2 GT ISZERO PUSH2 0x832 JUMPI INVALID JUMPDEST EQ ISZERO PUSH2 0x853 JUMPI PUSH16 0x57616974696E674368616C6C656E6765 PUSH1 0x80 SHL SWAP2 POP PUSH2 0x652 JUMP JUMPDEST PUSH1 0x4 PUSH1 0x0 DUP5 DUP2 MSTORE PUSH1 0x4 PUSH1 0x20 MSTORE PUSH1 0x40 SWAP1 KECCAK256 PUSH1 0x9 ADD SLOAD PUSH1 0xFF AND PUSH1 0x6 DUP2 GT ISZERO PUSH2 0x875 JUMPI INVALID JUMPDEST EQ ISZERO PUSH2 0x893 JUMPI PUSH13 0x21B430B63632B733B2B92BB7B7 PUSH1 0x99 SHL SWAP2 POP PUSH2 0x652 JUMP JUMPDEST PUSH1 0x5 PUSH1 0x0 DUP5 DUP2 MSTORE PUSH1 0x4 PUSH1 0x20 MSTORE PUSH1 0x40 SWAP1 KECCAK256 PUSH1 0x9 ADD SLOAD PUSH1 0xFF AND PUSH1 0x6 DUP2 GT ISZERO PUSH2 0x8B5 JUMPI INVALID JUMPDEST EQ ISZERO PUSH2 0x8D0 JUMPI PUSH10 0x21B630B4B6B2B92BB7B7 PUSH1 0xB1 SHL SWAP2 POP PUSH2 0x652 JUMP JUMPDEST PUSH1 0x6 PUSH1 0x0 DUP5 DUP2 MSTORE PUSH1 0x4 PUSH1 0x20 MSTORE PUSH1 0x40 SWAP1 KECCAK256 PUSH1 0x9 ADD SLOAD PUSH1 0xFF AND PUSH1 0x6 DUP2 GT ISZERO PUSH2 0x8F2 JUMPI INVALID JUMPDEST EQ ISZERO PUSH2 0x912 JUMPI PUSH15 0x10DBDB9CD95B9CDD5CD4995CDD5B1D PUSH1 0x8A SHL SWAP2 POP PUSH2 0x652 JUMP JUMPDEST PUSH1 0x40 DUP1 MLOAD PUSH3 0x461BCD PUSH1 0xE5 SHL DUP2 MSTORE PUSH1 0x20 PUSH1 0x4 DUP3 ADD MSTORE PUSH1 0x12 PUSH1 0x24 DUP3 ADD MSTORE PUSH18 0x556E7265636F676E697A6564207374617465 PUSH1 0x70 SHL PUSH1 0x44 DUP3 ADD MSTORE SWAP1 MLOAD SWAP1 DUP2 SWAP1 SUB PUSH1 0x64 ADD SWAP1 REVERT JUMPDEST PUSH1 0x0 DUP2 DUP1 PUSH1 0x0 SLOAD GT PUSH2 0x99B JUMPI PUSH1 0x40 DUP1 MLOAD PUSH3 0x461BCD PUSH1 0xE5 SHL DUP2 MSTORE PUSH1 0x20 PUSH1 0x4 DUP3 ADD MSTORE PUSH1 0x16 PUSH1 0x24 DUP3 ADD MSTORE PUSH1 0x0 DUP1 MLOAD PUSH1 0x20 PUSH2 0x1F4C DUP4 CODECOPY DUP2 MLOAD SWAP2 MSTORE PUSH1 0x44 DUP3 ADD MSTORE SWAP1 MLOAD SWAP1 DUP2 SWAP1 SUB PUSH1 0x64 ADD SWAP1 REVERT JUMPDEST PUSH1 0x4 PUSH2 0x62E JUMP JUMPDEST PUSH1 0x0 DUP2 DUP1 PUSH1 0x0 SLOAD GT PUSH2 0x9E9 JUMPI PUSH1 0x40 DUP1 MLOAD PUSH3 0x461BCD PUSH1 0xE5 SHL DUP2 MSTORE PUSH1 0x20 PUSH1 0x4 DUP3 ADD MSTORE PUSH1 0x16 PUSH1 0x24 DUP3 ADD MSTORE PUSH1 0x0 DUP1 MLOAD PUSH1 0x20 PUSH2 0x1F4C DUP4 CODECOPY DUP2 MLOAD SWAP2 MSTORE PUSH1 0x44 DUP3 ADD MSTORE SWAP1 MLOAD SWAP1 DUP2 SWAP1 SUB PUSH1 0x64 ADD SWAP1 REVERT JUMPDEST PUSH1 0x2 PUSH2 0x62E JUMP JUMPDEST PUSH1 0x0 DUP1 PUSH1 0x0 DUP1 PUSH1 0x0 DUP1 PUSH1 0x0 DUP1 PUSH2 0xA04 PUSH2 0x1E29 JUMP JUMPDEST PUSH1 0x0 DUP12 DUP2 MSTORE PUSH1 0x4 PUSH1 0x20 DUP2 DUP2 MSTORE PUSH1 0x40 SWAP3 DUP4 SWAP1 KECCAK256 DUP4 MLOAD PUSH2 0x140 DUP2 ADD DUP6 MSTORE DUP2 SLOAD PUSH1 0x1 PUSH1 0x1 PUSH1 0xA0 SHL SUB SWAP1 DUP2 AND DUP3 MSTORE PUSH1 0x1 DUP4 ADD SLOAD DUP2 AND SWAP4 DUP3 ADD SWAP4 SWAP1 SWAP4 MSTORE PUSH1 0x2 DUP3 ADD SLOAD SWAP5 DUP2 ADD SWAP5 SWAP1 SWAP5 MSTORE PUSH1 0x3 DUP2 ADD SLOAD PUSH1 0x60 DUP6 ADD MSTORE SWAP2 DUP3 ADD SLOAD AND PUSH1 0x80 DUP4 ADD MSTORE PUSH1 0x5 DUP2 ADD SLOAD PUSH1 0xA0 DUP4 ADD MSTORE PUSH1 0x6 DUP1 DUP3 ADD SLOAD PUSH1 0xC0 DUP5 ADD MSTORE PUSH1 0x7 DUP3 ADD SLOAD PUSH1 0xE0 DUP5 ADD MSTORE PUSH1 0x8 DUP3 ADD SLOAD PUSH2 0x100 DUP5 ADD MSTORE PUSH1 0x9 DUP3 ADD SLOAD PUSH2 0x120 DUP5 ADD SWAP2 PUSH1 0xFF SWAP1 SWAP2 AND SWAP1 DUP2 GT ISZERO PUSH2 0xAA0 JUMPI INVALID JUMPDEST PUSH1 0x6 DUP2 GT ISZERO PUSH2 0xAAB JUMPI INVALID JUMPDEST SWAP1 MSTORE POP SWAP1 POP PUSH1 0x1 DUP1 PUSH1 0x0 DUP1 DUP5 PUSH2 0x120 ADD MLOAD PUSH1 0x6 DUP2 GT ISZERO PUSH2 0xAC7 JUMPI INVALID JUMPDEST EQ ISZERO PUSH2 0xADF JUMPI POP PUSH12 0x57616974696E67436C61696D PUSH1 0xA0 SHL JUMPDEST PUSH1 0x1 DUP5 PUSH2 0x120 ADD MLOAD PUSH1 0x6 DUP2 GT ISZERO PUSH2 0xAF2 JUMPI INVALID JUMPDEST EQ ISZERO PUSH2 0xB11 JUMPI POP PUSH19 0x2BB0B4BA34B733A1B7B73334B936B0BA34B7B7 PUSH1 0x69 SHL JUMPDEST PUSH1 0x2 DUP5 PUSH2 0x120 ADD MLOAD PUSH1 0x6 DUP2 GT ISZERO PUSH2 0xB24 JUMPI INVALID JUMPDEST EQ ISZERO PUSH2 0xB45 JUMPI POP PUSH21 0x436C61696D65724D6973736564446561646C696E65 PUSH1 0x58 SHL JUMPDEST PUSH1 0x3 DUP5 PUSH2 0x120 ADD MLOAD PUSH1 0x6 DUP2 GT ISZERO PUSH2 0xB58 JUMPI INVALID JUMPDEST EQ ISZERO PUSH2 0xC71 JUMPI POP PUSH1 0x3 SLOAD PUSH2 0x100 DUP5 ADD MLOAD PUSH1 0x40 DUP1 MLOAD PUSH4 0xC91927B PUSH1 0xE0 SHL DUP2 MSTORE PUSH1 0x4 DUP2 ADD SWAP3 SWAP1 SWAP3 MSTORE MLOAD PUSH16 0x57616974696E674368616C6C656E6765 PUSH1 0x80 SHL SWAP3 PUSH1 0x1 PUSH1 0x1 PUSH1 0xA0 SHL SUB AND SWAP2 PUSH4 0xC91927B SWAP2 PUSH1 0x24 DUP1 DUP4 ADD SWAP3 PUSH1 0x20 SWAP3 SWAP2 SWAP1 DUP3 SWAP1 SUB ADD DUP2 DUP7 DUP1 EXTCODESIZE ISZERO DUP1 ISZERO PUSH2 0xBC3 JUMPI PUSH1 0x0 DUP1 REVERT JUMPDEST POP GAS STATICCALL ISZERO DUP1 ISZERO PUSH2 0xBD7 JUMPI RETURNDATASIZE PUSH1 0x0 DUP1 RETURNDATACOPY RETURNDATASIZE PUSH1 0x0 REVERT JUMPDEST POP POP POP POP PUSH1 0x40 MLOAD RETURNDATASIZE PUSH1 0x20 DUP2 LT ISZERO PUSH2 0xBED JUMPI PUSH1 0x0 DUP1 REVERT JUMPDEST POP MLOAD PUSH1 0x3 SLOAD PUSH2 0x100 DUP7 ADD MLOAD PUSH1 0x40 DUP1 MLOAD PUSH3 0x2231C3 PUSH1 0xE1 SHL DUP2 MSTORE PUSH1 0x4 DUP2 ADD SWAP3 SWAP1 SWAP3 MSTORE MLOAD SWAP3 SWAP6 POP PUSH1 0x1 PUSH1 0x1 PUSH1 0xA0 SHL SUB SWAP1 SWAP2 AND SWAP2 PUSH3 0x446386 SWAP2 PUSH1 0x24 DUP1 DUP3 ADD SWAP3 PUSH1 0x20 SWAP3 SWAP1 SWAP2 SWAP1 DUP3 SWAP1 SUB ADD DUP2 DUP7 DUP1 EXTCODESIZE ISZERO DUP1 ISZERO PUSH2 0xC42 JUMPI PUSH1 0x0 DUP1 REVERT JUMPDEST POP GAS STATICCALL ISZERO DUP1 ISZERO PUSH2 0xC56 JUMPI RETURNDATASIZE PUSH1 0x0 DUP1 RETURNDATACOPY RETURNDATASIZE PUSH1 0x0 REVERT JUMPDEST POP POP POP POP PUSH1 0x40 MLOAD RETURNDATASIZE PUSH1 0x20 DUP2 LT ISZERO PUSH2 0xC6C JUMPI PUSH1 0x0 DUP1 REVERT JUMPDEST POP MLOAD SWAP2 POP JUMPDEST PUSH1 0x4 DUP5 PUSH2 0x120 ADD MLOAD PUSH1 0x6 DUP2 GT ISZERO PUSH2 0xC84 JUMPI INVALID JUMPDEST EQ ISZERO PUSH2 0xC9D JUMPI POP PUSH13 0x21B430B63632B733B2B92BB7B7 PUSH1 0x99 SHL JUMPDEST PUSH1 0x5 DUP5 PUSH2 0x120 ADD MLOAD PUSH1 0x6 DUP2 GT ISZERO PUSH2 0xCB0 JUMPI INVALID JUMPDEST EQ ISZERO PUSH2 0xCC6 JUMPI POP PUSH10 0x21B630B4B6B2B92BB7B7 PUSH1 0xB1 SHL JUMPDEST PUSH1 0x6 DUP5 PUSH2 0x120 ADD MLOAD PUSH1 0x6 DUP2 GT ISZERO PUSH2 0xCD9 JUMPI INVALID JUMPDEST EQ ISZERO PUSH2 0xCF4 JUMPI POP PUSH15 0x10DBDB9CD95B9CDD5CD4995CDD5B1D PUSH1 0x8A SHL JUMPDEST DUP4 PUSH1 0x0 ADD MLOAD DUP5 PUSH1 0x20 ADD MLOAD PUSH2 0xD1C DUP7 PUSH2 0x120 ADD MLOAD DUP8 PUSH1 0x40 ADD MLOAD PUSH1 0x28 DUP9 DUP11 PUSH1 0xC0 ADD MLOAD PUSH2 0x1F4 PUSH2 0x1B29 JUMP JUMPDEST DUP7 PUSH1 0x60 ADD MLOAD ADD DUP7 PUSH1 0x80 ADD MLOAD DUP8 PUSH1 0xA0 ADD MLOAD DUP9 PUSH1 0xC0 ADD MLOAD DUP10 PUSH1 0xE0 ADD MLOAD DUP8 SWAP12 POP SWAP12 POP SWAP12 POP SWAP12 POP SWAP12 POP SWAP12 POP SWAP12 POP SWAP12 POP POP POP POP POP SWAP3 SWAP6 SWAP9 POP SWAP3 SWAP6 SWAP9 SWAP1 SWAP4 SWAP7 POP JUMP JUMPDEST PUSH1 0x0 SWAP1 DUP2 MSTORE PUSH1 0x1 PUSH1 0x20 MSTORE PUSH1 0x40 SWAP1 KECCAK256 SLOAD PUSH1 0xFF AND SWAP1 JUMP JUMPDEST PUSH1 0x0 SWAP1 DUP2 MSTORE PUSH1 0x1 PUSH1 0x20 SWAP1 DUP2 MSTORE PUSH1 0x40 DUP1 DUP4 KECCAK256 DUP1 SLOAD PUSH1 0xFF NOT AND SWAP1 SSTORE PUSH1 0x2 SWAP1 SWAP2 MSTORE DUP2 KECCAK256 SSTORE JUMP JUMPDEST DUP2 DUP1 PUSH1 0x0 SLOAD GT PUSH2 0xDD5 JUMPI PUSH1 0x40 DUP1 MLOAD PUSH3 0x461BCD PUSH1 0xE5 SHL DUP2 MSTORE PUSH1 0x20 PUSH1 0x4 DUP3 ADD MSTORE PUSH1 0x16 PUSH1 0x24 DUP3 ADD MSTORE PUSH1 0x0 DUP1 MLOAD PUSH1 0x20 PUSH2 0x1F4C DUP4 CODECOPY DUP2 MLOAD SWAP2 MSTORE PUSH1 0x44 DUP3 ADD MSTORE SWAP1 MLOAD SWAP1 DUP2 SWAP1 SUB PUSH1 0x64 ADD SWAP1 REVERT JUMPDEST PUSH1 0x0 DUP4 DUP2 MSTORE PUSH1 0x4 PUSH1 0x20 MSTORE PUSH1 0x40 SWAP1 KECCAK256 PUSH1 0x1 ADD SLOAD PUSH1 0x1 PUSH1 0x1 PUSH1 0xA0 SHL SUB AND CALLER DUP2 EQ PUSH2 0xE3F JUMPI PUSH1 0x40 DUP1 MLOAD PUSH3 0x461BCD PUSH1 0xE5 SHL DUP2 MSTORE PUSH1 0x20 PUSH1 0x4 DUP3 ADD MSTORE PUSH1 0x18 PUSH1 0x24 DUP3 ADD MSTORE PUSH24 0x21B0B73737BA1031329031B0B63632B210313C903AB9B2B9 PUSH1 0x41 SHL PUSH1 0x44 DUP3 ADD MSTORE SWAP1 MLOAD SWAP1 DUP2 SWAP1 SUB PUSH1 0x64 ADD SWAP1 REVERT JUMPDEST PUSH1 0x0 DUP5 DUP2 MSTORE PUSH1 0x2 PUSH1 0x20 MSTORE PUSH1 0x40 DUP2 KECCAK256 DUP1 SLOAD PUSH1 0x1 ADD SWAP1 SSTORE DUP5 SWAP1 PUSH1 0x0 DUP7 DUP2 MSTORE PUSH1 0x4 PUSH1 0x20 MSTORE PUSH1 0x40 SWAP1 KECCAK256 PUSH1 0x9 ADD SLOAD PUSH1 0xFF AND PUSH1 0x6 DUP2 GT ISZERO PUSH2 0xE76 JUMPI INVALID JUMPDEST EQ PUSH2 0xEC8 JUMPI PUSH1 0x40 DUP1 MLOAD PUSH3 0x461BCD PUSH1 0xE5 SHL DUP2 MSTORE PUSH1 0x20 PUSH1 0x4 DUP3 ADD MSTORE PUSH1 0x1C PUSH1 0x24 DUP3 ADD MSTORE PUSH32 0x53746174652073686F756C642062652057616974696E67436C61696D00000000 PUSH1 0x44 DUP3 ADD MSTORE SWAP1 MLOAD SWAP1 DUP2 SWAP1 SUB PUSH1 0x64 ADD SWAP1 REVERT JUMPDEST PUSH1 0x0 DUP6 DUP2 MSTORE PUSH1 0x4 PUSH1 0x20 SWAP1 DUP2 MSTORE PUSH1 0x40 SWAP2 DUP3 SWAP1 KECCAK256 PUSH1 0x7 DUP2 ADD DUP8 SWAP1 SSTORE PUSH1 0x9 ADD DUP1 SLOAD PUSH1 0xFF NOT AND PUSH1 0x1 OR SWAP1 SSTORE DUP2 MLOAD DUP8 DUP2 MSTORE SWAP1 DUP2 ADD DUP7 SWAP1 MSTORE DUP2 MLOAD PUSH32 0x1E9358F673FF367487CE56F136412AE5B69BF2C06E223AAD2756D748C2A9B52A SWAP3 SWAP2 DUP2 SWAP1 SUB SWAP1 SWAP2 ADD SWAP1 LOG1 POP POP POP POP POP JUMP JUMPDEST PUSH1 0x0 DUP2 DUP1 PUSH1 0x0 SLOAD GT PUSH2 0xF75 JUMPI PUSH1 0x40 DUP1 MLOAD PUSH3 0x461BCD PUSH1 0xE5 SHL DUP2 MSTORE PUSH1 0x20 PUSH1 0x4 DUP3 ADD MSTORE PUSH1 0x16 PUSH1 0x24 DUP3 ADD MSTORE PUSH1 0x0 DUP1 MLOAD PUSH1 0x20 PUSH2 0x1F4C DUP4 CODECOPY DUP2 MLOAD SWAP2 MSTORE PUSH1 0x44 DUP3 ADD MSTORE SWAP1 MLOAD SWAP1 DUP2 SWAP1 SUB PUSH1 0x64 ADD SWAP1 REVERT JUMPDEST PUSH1 0x0 PUSH2 0x62E JUMP JUMPDEST DUP1 DUP1 PUSH1 0x0 SLOAD GT PUSH2 0xFC1 JUMPI PUSH1 0x40 DUP1 MLOAD PUSH3 0x461BCD PUSH1 0xE5 SHL DUP2 MSTORE PUSH1 0x20 PUSH1 0x4 DUP3 ADD MSTORE PUSH1 0x16 PUSH1 0x24 DUP3 ADD MSTORE PUSH1 0x0 DUP1 MLOAD PUSH1 0x20 PUSH2 0x1F4C DUP4 CODECOPY DUP2 MLOAD SWAP2 MSTORE PUSH1 0x44 DUP3 ADD MSTORE SWAP1 MLOAD SWAP1 DUP2 SWAP1 SUB PUSH1 0x64 ADD SWAP1 REVERT JUMPDEST PUSH1 0x0 DUP3 DUP2 MSTORE PUSH1 0x2 PUSH1 0x20 DUP2 DUP2 MSTORE PUSH1 0x40 DUP1 DUP5 KECCAK256 DUP1 SLOAD PUSH1 0x1 SWAP1 DUP2 ADD SWAP1 SWAP2 SSTORE PUSH1 0x4 SWAP1 SWAP3 MSTORE DUP4 KECCAK256 PUSH1 0x9 DUP2 ADD SLOAD SWAP3 DUP2 ADD SLOAD PUSH1 0x6 SWAP1 SWAP2 ADD SLOAD DUP7 SWAP5 SWAP4 PUSH2 0x100C SWAP4 PUSH1 0xFF SWAP1 SWAP2 AND SWAP3 SWAP2 PUSH1 0x28 SWAP2 SWAP1 PUSH2 0x1F4 PUSH2 0x1B29 JUMP JUMPDEST PUSH1 0x0 DUP6 DUP2 MSTORE PUSH1 0x4 PUSH1 0x20 MSTORE PUSH1 0x40 SWAP1 KECCAK256 PUSH1 0x3 ADD SLOAD ADD TIMESTAMP GT SWAP1 POP DUP1 PUSH2 0x105F JUMPI PUSH1 0x40 MLOAD PUSH3 0x461BCD PUSH1 0xE5 SHL DUP2 MSTORE PUSH1 0x4 ADD DUP1 DUP1 PUSH1 0x20 ADD DUP3 DUP2 SUB DUP3 MSTORE PUSH1 0x2C DUP2 MSTORE PUSH1 0x20 ADD DUP1 PUSH2 0x1E9F PUSH1 0x2C SWAP2 CODECOPY PUSH1 0x40 ADD SWAP2 POP POP PUSH1 0x40 MLOAD DUP1 SWAP2 SUB SWAP1 REVERT JUMPDEST PUSH1 0x0 DUP5 DUP2 MSTORE PUSH1 0x4 PUSH1 0x20 MSTORE PUSH1 0x40 SWAP1 KECCAK256 SLOAD PUSH1 0x1 PUSH1 0x1 PUSH1 0xA0 SHL SUB AND CALLER EQ DUP1 ISZERO PUSH2 0x10A2 JUMPI POP PUSH1 0x0 DUP5 DUP2 MSTORE PUSH1 0x4 PUSH1 0x20 MSTORE PUSH1 0x40 DUP2 KECCAK256 PUSH1 0x9 ADD SLOAD PUSH1 0xFF AND PUSH1 0x6 DUP2 GT ISZERO PUSH2 0x10A0 JUMPI INVALID JUMPDEST EQ JUMPDEST ISZERO PUSH2 0x1138 JUMPI PUSH1 0x0 DUP5 DUP2 MSTORE PUSH1 0x4 PUSH1 0x20 MSTORE PUSH1 0x40 SWAP1 KECCAK256 PUSH1 0x9 ADD DUP1 SLOAD PUSH1 0x2 SWAP2 SWAP1 PUSH1 0xFF NOT AND PUSH1 0x1 DUP4 JUMPDEST MUL OR SWAP1 SSTORE POP PUSH2 0x10D4 DUP5 PUSH2 0xD6D JUMP JUMPDEST PUSH1 0x0 DUP5 DUP2 MSTORE PUSH1 0x4 PUSH1 0x20 MSTORE PUSH1 0x40 SWAP1 KECCAK256 PUSH1 0x9 ADD SLOAD PUSH32 0xCE5D57DC06BFFEE515DC9F8CA3A267203DBBE503F6BFAD687A7120D00756913E SWAP1 DUP6 SWAP1 PUSH1 0xFF AND PUSH1 0x6 DUP2 GT ISZERO PUSH2 0x1118 JUMPI INVALID JUMPDEST PUSH1 0x40 DUP1 MLOAD SWAP3 DUP4 MSTORE PUSH1 0xFF SWAP1 SWAP2 AND PUSH1 0x20 DUP4 ADD MSTORE DUP1 MLOAD SWAP2 DUP3 SWAP1 SUB ADD SWAP1 LOG1 POP PUSH2 0x11DF JUMP JUMPDEST PUSH1 0x0 DUP5 DUP2 MSTORE PUSH1 0x4 PUSH1 0x20 MSTORE PUSH1 0x40 SWAP1 KECCAK256 PUSH1 0x1 ADD SLOAD PUSH1 0x1 PUSH1 0x1 PUSH1 0xA0 SHL SUB AND CALLER EQ DUP1 ISZERO PUSH2 0x1180 JUMPI POP PUSH1 0x1 PUSH1 0x0 DUP6 DUP2 MSTORE PUSH1 0x4 PUSH1 0x20 MSTORE PUSH1 0x40 SWAP1 KECCAK256 PUSH1 0x9 ADD SLOAD PUSH1 0xFF AND PUSH1 0x6 DUP2 GT ISZERO PUSH2 0x117E JUMPI INVALID JUMPDEST EQ JUMPDEST ISZERO PUSH2 0x11A8 JUMPI PUSH1 0x0 DUP5 DUP2 MSTORE PUSH1 0x4 PUSH1 0x20 MSTORE PUSH1 0x40 SWAP1 KECCAK256 PUSH1 0x9 ADD DUP1 SLOAD PUSH1 0x6 SWAP2 SWAP1 PUSH1 0xFF NOT AND PUSH1 0x1 DUP4 PUSH2 0x10C6 JUMP JUMPDEST PUSH1 0x40 MLOAD PUSH3 0x461BCD PUSH1 0xE5 SHL DUP2 MSTORE PUSH1 0x4 ADD DUP1 DUP1 PUSH1 0x20 ADD DUP3 DUP2 SUB DUP3 MSTORE PUSH1 0x2F DUP2 MSTORE PUSH1 0x20 ADD DUP1 PUSH2 0x1F1D PUSH1 0x2F SWAP2 CODECOPY PUSH1 0x40 ADD SWAP2 POP POP PUSH1 0x40 MLOAD DUP1 SWAP2 SUB SWAP1 REVERT JUMPDEST POP POP POP JUMP JUMPDEST DUP1 DUP1 PUSH1 0x0 SLOAD GT PUSH2 0x1229 JUMPI PUSH1 0x40 DUP1 MLOAD PUSH3 0x461BCD PUSH1 0xE5 SHL DUP2 MSTORE PUSH1 0x20 PUSH1 0x4 DUP3 ADD MSTORE PUSH1 0x16 PUSH1 0x24 DUP3 ADD MSTORE PUSH1 0x0 DUP1 MLOAD PUSH1 0x20 PUSH2 0x1F4C DUP4 CODECOPY DUP2 MLOAD SWAP2 MSTORE PUSH1 0x44 DUP3 ADD MSTORE SWAP1 MLOAD SWAP1 DUP2 SWAP1 SUB PUSH1 0x64 ADD SWAP1 REVERT JUMPDEST PUSH1 0x0 DUP3 DUP2 MSTORE PUSH1 0x4 PUSH1 0x20 MSTORE PUSH1 0x40 SWAP1 KECCAK256 SLOAD PUSH1 0x1 PUSH1 0x1 PUSH1 0xA0 SHL SUB AND CALLER DUP2 EQ PUSH2 0x1290 JUMPI PUSH1 0x40 DUP1 MLOAD PUSH3 0x461BCD PUSH1 0xE5 SHL DUP2 MSTORE PUSH1 0x20 PUSH1 0x4 DUP3 ADD MSTORE PUSH1 0x18 PUSH1 0x24 DUP3 ADD MSTORE PUSH24 0x21B0B73737BA1031329031B0B63632B210313C903AB9B2B9 PUSH1 0x41 SHL PUSH1 0x44 DUP3 ADD MSTORE SWAP1 MLOAD SWAP1 DUP2 SWAP1 SUB PUSH1 0x64 ADD SWAP1 REVERT JUMPDEST PUSH1 0x0 DUP4 DUP2 MSTORE PUSH1 0x2 PUSH1 0x20 MSTORE PUSH1 0x40 SWAP1 KECCAK256 DUP1 SLOAD PUSH1 0x1 SWAP1 DUP2 ADD SWAP1 SWAP2 SSTORE DUP4 SWAP1 PUSH1 0x0 DUP6 DUP2 MSTORE PUSH1 0x4 PUSH1 0x20 MSTORE PUSH1 0x40 SWAP1 KECCAK256 PUSH1 0x9 ADD SLOAD PUSH1 0xFF AND PUSH1 0x6 DUP2 GT ISZERO PUSH2 0x12CA JUMPI INVALID JUMPDEST EQ PUSH2 0x1306 JUMPI PUSH1 0x40 MLOAD PUSH3 0x461BCD PUSH1 0xE5 SHL DUP2 MSTORE PUSH1 0x4 ADD DUP1 DUP1 PUSH1 0x20 ADD DUP3 DUP2 SUB DUP3 MSTORE PUSH1 0x23 DUP2 MSTORE PUSH1 0x20 ADD DUP1 PUSH2 0x1E7C PUSH1 0x23 SWAP2 CODECOPY PUSH1 0x40 ADD SWAP2 POP POP PUSH1 0x40 MLOAD DUP1 SWAP2 SUB SWAP1 REVERT JUMPDEST PUSH1 0x3 SLOAD PUSH1 0x0 DUP6 DUP2 MSTORE PUSH1 0x4 PUSH1 0x20 DUP2 DUP2 MSTORE PUSH1 0x40 DUP1 DUP5 KECCAK256 DUP1 SLOAD PUSH1 0x1 DUP3 ADD SLOAD PUSH1 0x2 DUP4 ADD SLOAD DUP4 DUP8 ADD SLOAD PUSH1 0x5 DUP6 ADD SLOAD PUSH1 0x7 DUP7 ADD SLOAD PUSH1 0x6 SWAP1 SWAP7 ADD SLOAD DUP8 MLOAD PUSH4 0x20B7387 PUSH1 0xE4 SHL DUP2 MSTORE PUSH1 0x1 PUSH1 0x1 PUSH1 0xA0 SHL SUB SWAP7 DUP8 AND SWAP11 DUP2 ADD SWAP11 SWAP1 SWAP11 MSTORE SWAP4 DUP6 AND PUSH1 0x24 DUP11 ADD MSTORE PUSH1 0x44 DUP10 ADD SWAP3 SWAP1 SWAP3 MSTORE DUP4 AND PUSH1 0x64 DUP9 ADD MSTORE PUSH1 0x84 DUP8 ADD MSTORE PUSH1 0xA4 DUP7 ADD SWAP3 SWAP1 SWAP3 MSTORE PUSH1 0xC4 DUP6 ADD SWAP2 SWAP1 SWAP2 MSTORE SWAP1 MLOAD SWAP5 AND SWAP4 PUSH4 0x20B73870 SWAP4 PUSH1 0xE4 DUP1 DUP6 ADD SWAP5 DUP4 SWAP1 SUB ADD SWAP1 DUP3 SWAP1 DUP8 DUP1 EXTCODESIZE ISZERO DUP1 ISZERO PUSH2 0x13AB JUMPI PUSH1 0x0 DUP1 REVERT JUMPDEST POP GAS CALL ISZERO DUP1 ISZERO PUSH2 0x13BF JUMPI RETURNDATASIZE PUSH1 0x0 DUP1 RETURNDATACOPY RETURNDATASIZE PUSH1 0x0 REVERT JUMPDEST POP POP POP POP PUSH1 0x40 MLOAD RETURNDATASIZE PUSH1 0x20 DUP2 LT ISZERO PUSH2 0x13D5 JUMPI PUSH1 0x0 DUP1 REVERT JUMPDEST POP MLOAD PUSH1 0x0 DUP6 DUP2 MSTORE PUSH1 0x4 PUSH1 0x20 MSTORE PUSH1 0x40 SWAP1 KECCAK256 PUSH1 0x8 DUP2 ADD SWAP2 SWAP1 SWAP2 SSTORE PUSH1 0x9 ADD DUP1 SLOAD PUSH1 0x3 SWAP2 SWAP1 PUSH1 0xFF NOT AND PUSH1 0x1 DUP4 MUL OR SWAP1 SSTORE POP PUSH1 0x40 DUP1 MLOAD DUP6 DUP2 MSTORE SWAP1 MLOAD PUSH32 0xA895DA4B794AEBA8D8082DB237265459DB7B7FFDB5AA7C2332A7C5EAFBFAE735 SWAP2 DUP2 SWAP1 SUB PUSH1 0x20 ADD SWAP1 LOG1 POP POP POP POP JUMP JUMPDEST DUP1 DUP1 PUSH1 0x0 SLOAD GT PUSH2 0x1480 JUMPI PUSH1 0x40 DUP1 MLOAD PUSH3 0x461BCD PUSH1 0xE5 SHL DUP2 MSTORE PUSH1 0x20 PUSH1 0x4 DUP3 ADD MSTORE PUSH1 0x16 PUSH1 0x24 DUP3 ADD MSTORE PUSH1 0x0 DUP1 MLOAD PUSH1 0x20 PUSH2 0x1F4C DUP4 CODECOPY DUP2 MLOAD SWAP2 MSTORE PUSH1 0x44 DUP3 ADD MSTORE SWAP1 MLOAD SWAP1 DUP2 SWAP1 SUB PUSH1 0x64 ADD SWAP1 REVERT JUMPDEST PUSH1 0x0 DUP3 DUP2 MSTORE PUSH1 0x4 PUSH1 0x20 MSTORE PUSH1 0x40 SWAP1 KECCAK256 SLOAD PUSH1 0x1 PUSH1 0x1 PUSH1 0xA0 SHL SUB AND CALLER DUP2 EQ PUSH2 0x14E7 JUMPI PUSH1 0x40 DUP1 MLOAD PUSH3 0x461BCD PUSH1 0xE5 SHL DUP2 MSTORE PUSH1 0x20 PUSH1 0x4 DUP3 ADD MSTORE PUSH1 0x18 PUSH1 0x24 DUP3 ADD MSTORE PUSH24 0x21B0B73737BA1031329031B0B63632B210313C903AB9B2B9 PUSH1 0x41 SHL PUSH1 0x44 DUP3 ADD MSTORE SWAP1 MLOAD SWAP1 DUP2 SWAP1 SUB PUSH1 0x64 ADD SWAP1 REVERT JUMPDEST PUSH1 0x0 DUP4 DUP2 MSTORE PUSH1 0x2 PUSH1 0x20 MSTORE PUSH1 0x40 SWAP1 KECCAK256 DUP1 SLOAD PUSH1 0x1 SWAP1 DUP2 ADD SWAP1 SWAP2 SSTORE DUP4 SWAP1 PUSH1 0x0 DUP6 DUP2 MSTORE PUSH1 0x4 PUSH1 0x20 MSTORE PUSH1 0x40 SWAP1 KECCAK256 PUSH1 0x9 ADD SLOAD PUSH1 0xFF AND PUSH1 0x6 DUP2 GT ISZERO PUSH2 0x1521 JUMPI INVALID JUMPDEST EQ PUSH2 0x155D JUMPI PUSH1 0x40 MLOAD PUSH3 0x461BCD PUSH1 0xE5 SHL DUP2 MSTORE PUSH1 0x4 ADD DUP1 DUP1 PUSH1 0x20 ADD DUP3 DUP2 SUB DUP3 MSTORE PUSH1 0x23 DUP2 MSTORE PUSH1 0x20 ADD DUP1 PUSH2 0x1E7C PUSH1 0x23 SWAP2 CODECOPY PUSH1 0x40 ADD SWAP2 POP POP PUSH1 0x40 MLOAD DUP1 SWAP2 SUB SWAP1 REVERT JUMPDEST PUSH1 0x0 DUP5 DUP2 MSTORE PUSH1 0x4 PUSH1 0x20 MSTORE PUSH1 0x40 SWAP1 KECCAK256 PUSH1 0x9 ADD DUP1 SLOAD PUSH1 0xFF NOT AND PUSH1 0x6 OR SWAP1 SSTORE PUSH2 0x1582 DUP5 PUSH2 0x1C84 JUMP JUMPDEST PUSH1 0x40 DUP1 MLOAD DUP6 DUP2 MSTORE SWAP1 MLOAD PUSH32 0xA832892B4543448B594422A93BF38C889D54AE5938A065C6EC5F4636161F522A SWAP2 DUP2 SWAP1 SUB PUSH1 0x20 ADD SWAP1 LOG1 POP POP POP POP JUMP JUMPDEST PUSH1 0x0 DUP6 PUSH1 0x1 PUSH1 0x1 PUSH1 0xA0 SHL SUB AND DUP8 PUSH1 0x1 PUSH1 0x1 PUSH1 0xA0 SHL SUB AND EQ ISZERO PUSH2 0x160E JUMPI PUSH1 0x40 MLOAD PUSH3 0x461BCD PUSH1 0xE5 SHL DUP2 MSTORE PUSH1 0x4 ADD DUP1 DUP1 PUSH1 0x20 ADD DUP3 DUP2 SUB DUP3 MSTORE PUSH1 0x25 DUP2 MSTORE PUSH1 0x20 ADD DUP1 PUSH2 0x1EF8 PUSH1 0x25 SWAP2 CODECOPY PUSH1 0x40 ADD SWAP2 POP POP PUSH1 0x40 MLOAD DUP1 SWAP2 SUB SWAP1 REVERT JUMPDEST PUSH1 0x0 DUP1 SLOAD DUP2 MSTORE PUSH1 0x4 PUSH1 0x20 DUP2 SWAP1 MSTORE PUSH1 0x40 DUP3 KECCAK256 DUP1 SLOAD PUSH1 0x1 PUSH1 0x1 PUSH1 0xA0 SHL SUB DUP1 DUP13 AND PUSH1 0x1 PUSH1 0x1 PUSH1 0xA0 SHL SUB NOT SWAP3 DUP4 AND OR DUP4 SSTORE PUSH1 0x1 DUP1 DUP5 ADD DUP1 SLOAD DUP14 DUP5 AND SWAP1 DUP6 AND OR SWAP1 SSTORE PUSH1 0x2 DUP5 ADD DUP12 SWAP1 SSTORE SWAP4 DUP4 ADD DUP1 SLOAD SWAP2 DUP11 AND SWAP2 SWAP1 SWAP3 AND OR SWAP1 SSTORE PUSH1 0x5 DUP2 ADD DUP7 SWAP1 SSTORE PUSH1 0x6 DUP2 ADD DUP6 SWAP1 SSTORE PUSH1 0x9 DUP2 ADD DUP1 SLOAD SWAP2 SWAP4 SWAP3 SWAP1 SWAP2 PUSH1 0xFF NOT AND SWAP1 DUP4 MUL OR SWAP1 SSTORE POP TIMESTAMP PUSH1 0x3 DUP3 ADD SSTORE PUSH1 0x0 SLOAD PUSH1 0x40 DUP1 MLOAD SWAP2 DUP3 MSTORE PUSH1 0x1 PUSH1 0x1 PUSH1 0xA0 SHL SUB DUP1 DUP12 AND PUSH1 0x20 DUP5 ADD MSTORE DUP1 DUP11 AND DUP4 DUP4 ADD MSTORE PUSH1 0x60 DUP4 ADD DUP10 SWAP1 MSTORE DUP8 AND PUSH1 0x80 DUP4 ADD MSTORE PUSH1 0xA0 DUP3 ADD DUP7 SWAP1 MSTORE PUSH1 0xC0 DUP3 ADD DUP6 SWAP1 MSTORE MLOAD PUSH32 0x9F53C9493351536908D5EFD56DA31DFB5A53A510AC3E216AFE64AF077B558D50 SWAP2 DUP2 SWAP1 SUB PUSH1 0xE0 ADD SWAP1 LOG1 POP POP PUSH1 0x0 DUP1 SLOAD DUP2 MSTORE PUSH1 0x1 PUSH1 0x20 DUP2 SWAP1 MSTORE PUSH1 0x40 DUP3 KECCAK256 DUP1 SLOAD PUSH1 0xFF NOT AND DUP3 OR SWAP1 SSTORE DUP2 SLOAD SWAP1 DUP2 ADD SWAP1 SWAP2 SSTORE JUMPDEST SWAP7 SWAP6 POP POP POP POP POP POP JUMP JUMPDEST PUSH1 0x60 DUP1 DUP1 DUP1 PUSH1 0x3 PUSH1 0x0 DUP8 DUP2 MSTORE PUSH1 0x4 PUSH1 0x20 MSTORE PUSH1 0x40 SWAP1 KECCAK256 PUSH1 0x9 ADD SLOAD PUSH1 0xFF AND PUSH1 0x6 DUP2 GT ISZERO PUSH2 0x174A JUMPI INVALID JUMPDEST EQ ISZERO PUSH2 0x17F4 JUMPI PUSH1 0x40 DUP1 MLOAD PUSH1 0x1 DUP1 DUP3 MSTORE DUP2 DUP4 ADD SWAP1 SWAP3 MSTORE SWAP1 PUSH1 0x20 DUP1 DUP4 ADD SWAP1 DUP1 CALLDATASIZE DUP4 CALLDATACOPY POP POP PUSH1 0x40 DUP1 MLOAD PUSH1 0x1 DUP1 DUP3 MSTORE DUP2 DUP4 ADD SWAP1 SWAP3 MSTORE SWAP3 SWAP5 POP SWAP1 POP PUSH1 0x20 DUP1 DUP4 ADD SWAP1 DUP1 CALLDATASIZE DUP4 CALLDATACOPY POP POP PUSH1 0x3 SLOAD DUP5 MLOAD SWAP3 SWAP4 POP PUSH1 0x1 PUSH1 0x1 PUSH1 0xA0 SHL SUB AND SWAP2 DUP5 SWAP2 POP PUSH1 0x0 SWAP1 PUSH2 0x17AA JUMPI INVALID JUMPDEST PUSH1 0x1 PUSH1 0x1 PUSH1 0xA0 SHL SUB SWAP1 SWAP3 AND PUSH1 0x20 SWAP3 DUP4 MUL SWAP2 SWAP1 SWAP2 ADD DUP3 ADD MSTORE PUSH1 0x0 DUP8 DUP2 MSTORE PUSH1 0x4 SWAP1 SWAP2 MSTORE PUSH1 0x40 DUP2 KECCAK256 PUSH1 0x8 ADD SLOAD DUP3 MLOAD SWAP1 SWAP2 DUP4 SWAP2 PUSH2 0x17DF JUMPI INVALID JUMPDEST PUSH1 0x20 SWAP1 DUP2 MUL SWAP2 SWAP1 SWAP2 ADD ADD MSTORE SWAP1 SWAP3 POP SWAP1 POP PUSH2 0x1811 JUMP JUMPDEST POP POP PUSH1 0x40 DUP1 MLOAD PUSH1 0x0 DUP1 DUP3 MSTORE PUSH1 0x20 DUP3 ADD SWAP1 DUP2 MSTORE DUP2 DUP4 ADD SWAP1 SWAP3 MSTORE SWAP3 POP SWAP1 POP JUMPDEST SWAP3 POP SWAP3 SWAP1 POP JUMP JUMPDEST PUSH1 0x0 DUP2 DUP1 PUSH1 0x0 SLOAD GT PUSH2 0x185F JUMPI PUSH1 0x40 DUP1 MLOAD PUSH3 0x461BCD PUSH1 0xE5 SHL DUP2 MSTORE PUSH1 0x20 PUSH1 0x4 DUP3 ADD MSTORE PUSH1 0x16 PUSH1 0x24 DUP3 ADD MSTORE PUSH1 0x0 DUP1 MLOAD PUSH1 0x20 PUSH2 0x1F4C DUP4 CODECOPY DUP2 MLOAD SWAP2 MSTORE PUSH1 0x44 DUP3 ADD MSTORE SWAP1 MLOAD SWAP1 DUP2 SWAP1 SUB PUSH1 0x64 ADD SWAP1 REVERT JUMPDEST PUSH1 0x3 PUSH2 0x62E JUMP JUMPDEST PUSH1 0x0 DUP2 DUP1 PUSH1 0x0 SLOAD GT PUSH2 0x18AD JUMPI PUSH1 0x40 DUP1 MLOAD PUSH3 0x461BCD PUSH1 0xE5 SHL DUP2 MSTORE PUSH1 0x20 PUSH1 0x4 DUP3 ADD MSTORE PUSH1 0x16 PUSH1 0x24 DUP3 ADD MSTORE PUSH1 0x0 DUP1 MLOAD PUSH1 0x20 PUSH2 0x1F4C DUP4 CODECOPY DUP2 MLOAD SWAP2 MSTORE PUSH1 0x44 DUP3 ADD MSTORE SWAP1 MLOAD SWAP1 DUP2 SWAP1 SUB PUSH1 0x64 ADD SWAP1 REVERT JUMPDEST PUSH1 0x5 PUSH2 0x62E JUMP JUMPDEST DUP1 DUP1 PUSH1 0x0 SLOAD GT PUSH2 0x18F9 JUMPI PUSH1 0x40 DUP1 MLOAD PUSH3 0x461BCD PUSH1 0xE5 SHL DUP2 MSTORE PUSH1 0x20 PUSH1 0x4 DUP3 ADD MSTORE PUSH1 0x16 PUSH1 0x24 DUP3 ADD MSTORE PUSH1 0x0 DUP1 MLOAD PUSH1 0x20 PUSH2 0x1F4C DUP4 CODECOPY DUP2 MLOAD SWAP2 MSTORE PUSH1 0x44 DUP3 ADD MSTORE SWAP1 MLOAD SWAP1 DUP2 SWAP1 SUB PUSH1 0x64 ADD SWAP1 REVERT JUMPDEST PUSH1 0x0 DUP3 DUP2 MSTORE PUSH1 0x2 PUSH1 0x20 MSTORE PUSH1 0x40 SWAP1 KECCAK256 DUP1 SLOAD PUSH1 0x1 ADD SWAP1 SSTORE DUP2 PUSH1 0x3 PUSH1 0x0 DUP5 DUP2 MSTORE PUSH1 0x4 PUSH1 0x20 MSTORE PUSH1 0x40 SWAP1 KECCAK256 PUSH1 0x9 ADD SLOAD PUSH1 0xFF AND PUSH1 0x6 DUP2 GT ISZERO PUSH2 0x1931 JUMPI INVALID JUMPDEST EQ PUSH2 0x196D JUMPI PUSH1 0x40 MLOAD PUSH3 0x461BCD PUSH1 0xE5 SHL DUP2 MSTORE PUSH1 0x4 ADD DUP1 DUP1 PUSH1 0x20 ADD DUP3 DUP2 SUB DUP3 MSTORE PUSH1 0x2D DUP2 MSTORE PUSH1 0x20 ADD DUP1 PUSH2 0x1ECB PUSH1 0x2D SWAP2 CODECOPY PUSH1 0x40 ADD SWAP2 POP POP PUSH1 0x40 MLOAD DUP1 SWAP2 SUB SWAP1 REVERT JUMPDEST PUSH1 0x0 DUP4 DUP2 MSTORE PUSH1 0x4 PUSH1 0x20 DUP2 DUP2 MSTORE PUSH1 0x40 SWAP3 DUP4 SWAP1 KECCAK256 PUSH1 0x8 ADD SLOAD PUSH1 0x3 SLOAD DUP5 MLOAD PUSH4 0xB6B5C319 PUSH1 0xE0 SHL DUP2 MSTORE SWAP4 DUP5 ADD DUP3 SWAP1 MSTORE SWAP4 MLOAD SWAP1 SWAP4 PUSH1 0x1 PUSH1 0x1 PUSH1 0xA0 SHL SUB AND SWAP3 PUSH4 0xB6B5C319 SWAP3 PUSH1 0x24 DUP1 DUP4 ADD SWAP4 SWAP2 SWAP3 DUP3 SWAP1 SUB ADD DUP2 DUP7 DUP1 EXTCODESIZE ISZERO DUP1 ISZERO PUSH2 0x19C8 JUMPI PUSH1 0x0 DUP1 REVERT JUMPDEST POP GAS STATICCALL ISZERO DUP1 ISZERO PUSH2 0x19DC JUMPI RETURNDATASIZE PUSH1 0x0 DUP1 RETURNDATACOPY RETURNDATASIZE PUSH1 0x0 REVERT JUMPDEST POP POP POP POP PUSH1 0x40 MLOAD RETURNDATASIZE PUSH1 0x20 DUP2 LT ISZERO PUSH2 0x19F2 JUMPI PUSH1 0x0 DUP1 REVERT JUMPDEST POP MLOAD ISZERO PUSH2 0x1A08 JUMPI PUSH2 0x1A02 DUP5 PUSH2 0x1CE5 JUMP JUMPDEST POP PUSH2 0x11DF JUMP JUMPDEST PUSH1 0x3 SLOAD PUSH1 0x40 DUP1 MLOAD PUSH4 0x3664F8BF PUSH1 0xE1 SHL DUP2 MSTORE PUSH1 0x4 DUP2 ADD DUP5 SWAP1 MSTORE SWAP1 MLOAD PUSH1 0x1 PUSH1 0x1 PUSH1 0xA0 SHL SUB SWAP1 SWAP3 AND SWAP2 PUSH4 0x6CC9F17E SWAP2 PUSH1 0x24 DUP1 DUP3 ADD SWAP3 PUSH1 0x20 SWAP3 SWAP1 SWAP2 SWAP1 DUP3 SWAP1 SUB ADD DUP2 DUP7 DUP1 EXTCODESIZE ISZERO DUP1 ISZERO PUSH2 0x1A54 JUMPI PUSH1 0x0 DUP1 REVERT JUMPDEST POP GAS STATICCALL ISZERO DUP1 ISZERO PUSH2 0x1A68 JUMPI RETURNDATASIZE PUSH1 0x0 DUP1 RETURNDATACOPY RETURNDATASIZE PUSH1 0x0 REVERT JUMPDEST POP POP POP POP PUSH1 0x40 MLOAD RETURNDATASIZE PUSH1 0x20 DUP2 LT ISZERO PUSH2 0x1A7E JUMPI PUSH1 0x0 DUP1 REVERT JUMPDEST POP MLOAD ISZERO PUSH2 0x1A8E JUMPI PUSH2 0x1A02 DUP5 PUSH2 0x1DB8 JUMP JUMPDEST PUSH1 0x40 DUP1 MLOAD PUSH3 0x461BCD PUSH1 0xE5 SHL DUP2 MSTORE PUSH1 0x20 PUSH1 0x4 DUP3 ADD MSTORE PUSH1 0x18 PUSH1 0x24 DUP3 ADD MSTORE PUSH32 0x5374617465206F66205647206973206E6F742066696E616C0000000000000000 PUSH1 0x44 DUP3 ADD MSTORE SWAP1 MLOAD SWAP1 DUP2 SWAP1 SUB PUSH1 0x64 ADD SWAP1 REVERT JUMPDEST PUSH1 0x0 DUP2 DUP1 PUSH1 0x0 SLOAD GT PUSH2 0x1B22 JUMPI PUSH1 0x40 DUP1 MLOAD PUSH3 0x461BCD PUSH1 0xE5 SHL DUP2 MSTORE PUSH1 0x20 PUSH1 0x4 DUP3 ADD MSTORE PUSH1 0x16 PUSH1 0x24 DUP3 ADD MSTORE PUSH1 0x0 DUP1 MLOAD PUSH1 0x20 PUSH2 0x1F4C DUP4 CODECOPY DUP2 MLOAD SWAP2 MSTORE PUSH1 0x44 DUP3 ADD MSTORE SWAP1 MLOAD SWAP1 DUP2 SWAP1 SUB PUSH1 0x64 ADD SWAP1 REVERT JUMPDEST PUSH1 0x6 PUSH2 0x62E JUMP JUMPDEST PUSH1 0x0 DUP1 DUP8 PUSH1 0x6 DUP2 GT ISZERO PUSH2 0x1B38 JUMPI INVALID JUMPDEST EQ ISZERO PUSH2 0x1B54 JUMPI DUP6 PUSH5 0xE8D4A51000 DUP5 DUP5 MUL JUMPDEST DIV DUP7 ADD ADD SWAP1 POP PUSH2 0x1719 JUMP JUMPDEST PUSH1 0x1 DUP8 PUSH1 0x6 DUP2 GT ISZERO PUSH2 0x1B62 JUMPI INVALID JUMPDEST EQ ISZERO PUSH2 0x1B77 JUMPI DUP6 PUSH5 0xE8D4A51000 DUP5 DUP5 MUL PUSH2 0x1B49 JUMP JUMPDEST PUSH1 0x3 DUP8 PUSH1 0x6 DUP2 GT ISZERO PUSH2 0x1B85 JUMPI INVALID JUMPDEST EQ ISZERO PUSH2 0x1C26 JUMPI PUSH1 0x3 SLOAD PUSH1 0x40 DUP1 MLOAD PUSH4 0x1B8798D5 PUSH1 0xE1 SHL DUP2 MSTORE PUSH1 0x4 DUP2 ADD DUP10 SWAP1 MSTORE PUSH1 0x24 DUP2 ADD DUP9 SWAP1 MSTORE PUSH1 0x44 DUP2 ADD DUP8 SWAP1 MSTORE PUSH1 0x64 DUP2 ADD DUP7 SWAP1 MSTORE PUSH1 0x84 DUP2 ADD DUP6 SWAP1 MSTORE SWAP1 MLOAD DUP9 SWAP3 PUSH1 0x1 PUSH1 0x1 PUSH1 0xA0 SHL SUB AND SWAP2 PUSH4 0x370F31AA SWAP2 PUSH1 0xA4 DUP1 DUP4 ADD SWAP3 PUSH1 0x20 SWAP3 SWAP2 SWAP1 DUP3 SWAP1 SUB ADD DUP2 DUP7 DUP1 EXTCODESIZE ISZERO DUP1 ISZERO PUSH2 0x1BF2 JUMPI PUSH1 0x0 DUP1 REVERT JUMPDEST POP GAS STATICCALL ISZERO DUP1 ISZERO PUSH2 0x1C06 JUMPI RETURNDATASIZE PUSH1 0x0 DUP1 RETURNDATACOPY RETURNDATASIZE PUSH1 0x0 REVERT JUMPDEST POP POP POP POP PUSH1 0x40 MLOAD RETURNDATASIZE PUSH1 0x20 DUP2 LT ISZERO PUSH2 0x1C1C JUMPI PUSH1 0x0 DUP1 REVERT JUMPDEST POP MLOAD ADD SWAP1 POP PUSH2 0x1719 JUMP JUMPDEST PUSH1 0x5 DUP8 PUSH1 0x6 DUP2 GT ISZERO PUSH2 0x1C34 JUMPI INVALID JUMPDEST EQ DUP1 PUSH2 0x1C4B JUMPI POP PUSH1 0x4 DUP8 PUSH1 0x6 DUP2 GT ISZERO PUSH2 0x1C49 JUMPI INVALID JUMPDEST EQ JUMPDEST DUP1 PUSH2 0x1C61 JUMPI POP PUSH1 0x2 DUP8 PUSH1 0x6 DUP2 GT ISZERO PUSH2 0x1C5F JUMPI INVALID JUMPDEST EQ JUMPDEST DUP1 PUSH2 0x1C77 JUMPI POP PUSH1 0x6 DUP8 PUSH1 0x6 DUP2 GT ISZERO PUSH2 0x1C75 JUMPI INVALID JUMPDEST EQ JUMPDEST ISZERO PUSH2 0x1719 JUMPI POP PUSH1 0x0 PUSH2 0x1719 JUMP JUMPDEST PUSH1 0x0 DUP2 DUP2 MSTORE PUSH1 0x4 PUSH1 0x20 DUP2 SWAP1 MSTORE PUSH1 0x40 DUP3 KECCAK256 DUP1 SLOAD PUSH1 0x1 PUSH1 0x1 PUSH1 0xA0 SHL SUB NOT SWAP1 DUP2 AND DUP3 SSTORE PUSH1 0x1 DUP3 ADD DUP1 SLOAD DUP3 AND SWAP1 SSTORE PUSH1 0x2 DUP3 ADD DUP5 SWAP1 SSTORE PUSH1 0x3 DUP3 ADD DUP5 SWAP1 SSTORE SWAP2 DUP2 ADD DUP1 SLOAD SWAP1 SWAP3 AND SWAP1 SWAP2 SSTORE PUSH1 0x5 DUP2 ADD DUP3 SWAP1 SSTORE PUSH1 0x6 DUP2 ADD DUP3 SWAP1 SSTORE PUSH1 0x8 ADD SSTORE PUSH2 0x1CE2 DUP2 PUSH2 0xD6D JUMP JUMPDEST POP JUMP JUMPDEST DUP1 DUP1 PUSH1 0x0 SLOAD GT PUSH2 0x1D2A JUMPI PUSH1 0x40 DUP1 MLOAD PUSH3 0x461BCD PUSH1 0xE5 SHL DUP2 MSTORE PUSH1 0x20 PUSH1 0x4 DUP3 ADD MSTORE PUSH1 0x16 PUSH1 0x24 DUP3 ADD MSTORE PUSH1 0x0 DUP1 MLOAD PUSH1 0x20 PUSH2 0x1F4C DUP4 CODECOPY DUP2 MLOAD SWAP2 MSTORE PUSH1 0x44 DUP3 ADD MSTORE SWAP1 MLOAD SWAP1 DUP2 SWAP1 SUB PUSH1 0x64 ADD SWAP1 REVERT JUMPDEST PUSH2 0x1D33 DUP3 PUSH2 0x1C84 JUMP JUMPDEST PUSH1 0x0 DUP3 DUP2 MSTORE PUSH1 0x4 PUSH1 0x20 DUP2 SWAP1 MSTORE PUSH1 0x40 SWAP1 SWAP2 KECCAK256 PUSH1 0x9 ADD DUP1 SLOAD PUSH1 0xFF NOT AND PUSH1 0x1 DUP4 JUMPDEST MUL OR SWAP1 SSTORE POP PUSH1 0x0 DUP3 DUP2 MSTORE PUSH1 0x4 PUSH1 0x20 MSTORE PUSH1 0x40 SWAP1 KECCAK256 PUSH1 0x9 ADD SLOAD PUSH32 0xCE5D57DC06BFFEE515DC9F8CA3A267203DBBE503F6BFAD687A7120D00756913E SWAP1 DUP4 SWAP1 PUSH1 0xFF AND PUSH1 0x6 DUP2 GT ISZERO PUSH2 0x1D9A JUMPI INVALID JUMPDEST PUSH1 0x40 DUP1 MLOAD SWAP3 DUP4 MSTORE PUSH1 0xFF SWAP1 SWAP2 AND PUSH1 0x20 DUP4 ADD MSTORE DUP1 MLOAD SWAP2 DUP3 SWAP1 SUB ADD SWAP1 LOG1 POP POP JUMP JUMPDEST DUP1 DUP1 PUSH1 0x0 SLOAD GT PUSH2 0x1DFD JUMPI PUSH1 0x40 DUP1 MLOAD PUSH3 0x461BCD PUSH1 0xE5 SHL DUP2 MSTORE PUSH1 0x20 PUSH1 0x4 DUP3 ADD MSTORE PUSH1 0x16 PUSH1 0x24 DUP3 ADD MSTORE PUSH1 0x0 DUP1 MLOAD PUSH1 0x20 PUSH2 0x1F4C DUP4 CODECOPY DUP2 MLOAD SWAP2 MSTORE PUSH1 0x44 DUP3 ADD MSTORE SWAP1 MLOAD SWAP1 DUP2 SWAP1 SUB PUSH1 0x64 ADD SWAP1 REVERT JUMPDEST PUSH2 0x1E06 DUP3 PUSH2 0x1C84 JUMP JUMPDEST PUSH1 0x0 DUP3 DUP2 MSTORE PUSH1 0x4 PUSH1 0x20 MSTORE PUSH1 0x40 SWAP1 KECCAK256 PUSH1 0x9 ADD DUP1 SLOAD PUSH1 0x5 SWAP2 SWAP1 PUSH1 0xFF NOT AND PUSH1 0x1 DUP4 PUSH2 0x1D51 JUMP JUMPDEST PUSH1 0x40 DUP1 MLOAD PUSH2 0x140 DUP2 ADD DUP3 MSTORE PUSH1 0x0 DUP1 DUP3 MSTORE PUSH1 0x20 DUP3 ADD DUP2 SWAP1 MSTORE SWAP2 DUP2 ADD DUP3 SWAP1 MSTORE PUSH1 0x60 DUP2 ADD DUP3 SWAP1 MSTORE PUSH1 0x80 DUP2 ADD DUP3 SWAP1 MSTORE PUSH1 0xA0 DUP2 ADD DUP3 SWAP1 MSTORE PUSH1 0xC0 DUP2 ADD DUP3 SWAP1 MSTORE PUSH1 0xE0 DUP2 ADD DUP3 SWAP1 MSTORE PUSH2 0x100 DUP2 ADD DUP3 SWAP1 MSTORE SWAP1 PUSH2 0x120 DUP3 ADD MSTORE SWAP1 JUMP INVALID MSTORE8 PUSH21 0x6174652073686F756C642062652057616974696E67 NUMBER PUSH16 0x6E6669726D6174696F6E446561646C69 PUSH15 0x65206973206E6F74206F7665722066 PUSH16 0x72207468697320737065636966696320 PUSH20 0x746174655374617465206973206E6F7420576169 PUSH21 0x696E674368616C6C656E67652C2063616E6E6F7420 PUSH24 0x696E427956474368616C6C656E67657220616E6420436C61 PUSH10 0x6D6572206E6565642074 PUSH16 0x206469666665724661696C20746F2043 PUSH13 0x61696D566963746F7279427954 PUSH10 0x6D6520696E2063757272 PUSH6 0x6E7420636F6E PUSH5 0x6974696F6E 0x49 PUSH15 0x646578206E6F7420696E7374616E74 PUSH10 0x61746564000000000000 STOP STOP STOP STOP LOG2 PUSH5 0x6970667358 0x22 SLT KECCAK256 0x2F SWAP16 0xAD PUSH21 0x884D545EEC548DCBDF37CED9CE8B0B348B73E718EC 0xB8 0xBB POP DUP3 MUL PUSH16 0x3964736F6C6343000704003300000000 "
    },
    "gasEstimates": {
      "creation": {
        "codeDepositCost": "1619400",
        "executionCost": "infinite",
        "totalCost": "infinite"
      },
      "external": {
        "challenge(uint256)": "infinite",
        "claimVictoryByTime(uint256)": "infinite",
        "confirm(uint256)": "infinite",
        "currentIndex()": "1044",
        "deactivate(uint256)": "26269",
        "getCurrentState(uint256)": "infinite",
        "getMaxInstanceDuration(uint256,uint256,uint256,uint256,uint256)": "infinite",
        "getNonce(uint256)": "infinite",
        "getState(uint256,address)": "infinite",
        "getSubInstances(uint256,address)": "infinite",
        "instantiate(address,address,uint256,address,bytes32,uint256)": "infinite",
        "isActive(uint256)": "1229",
        "isConcerned(uint256,address)": "2138",
        "stateIsChallengerWon(uint256)": "infinite",
        "stateIsClaimerMissedDeadline(uint256)": "infinite",
        "stateIsClaimerWon(uint256)": "infinite",
        "stateIsConsensusResult(uint256)": "infinite",
        "stateIsWaitingChallange(uint256)": "infinite",
        "stateIsWaitingClaim(uint256)": "infinite",
        "stateIsWaitingConfirmation(uint256)": "infinite",
        "submitClaim(uint256,bytes32)": "infinite",
        "winByVG(uint256)": "infinite"
      },
      "internal": {
        "challengerWins(uint256)": "infinite",
        "claimerWins(uint256)": "infinite",
        "clearInstance(uint256)": "113616",
        "getMaxStateDuration(enum ComputeInterface.state,uint256,uint256,uint256,uint256,uint256)": "infinite"
      }
    },
    "methodIdentifiers": {
      "challenge(uint256)": "ab82d9a0",
      "claimVictoryByTime(uint256)": "a2dc7973",
      "confirm(uint256)": "ba0179b5",
      "currentIndex()": "26987b60",
      "deactivate(uint256)": "916b9bef",
      "getCurrentState(uint256)": "5748c130",
      "getMaxInstanceDuration(uint256,uint256,uint256,uint256,uint256)": "370f31aa",
      "getNonce(uint256)": "3d46b819",
      "getState(uint256,address)": "73df1612",
      "getSubInstances(uint256,address)": "c526656c",
      "instantiate(address,address,uint256,address,bytes32,uint256)": "c19e71c3",
      "isActive(uint256)": "82afd23b",
      "isConcerned(uint256,address)": "01ff62ab",
      "stateIsChallengerWon(uint256)": "6547429e",
      "stateIsClaimerMissedDeadline(uint256)": "6c092edd",
      "stateIsClaimerWon(uint256)": "d0a068cf",
      "stateIsConsensusResult(uint256)": "e174b3bf",
      "stateIsWaitingChallange(uint256)": "ce73b628",
      "stateIsWaitingClaim(uint256)": "a20d952b",
      "stateIsWaitingConfirmation(uint256)": "388e43be",
      "submitClaim(uint256,bytes32)": "a0c222b4",
      "winByVG(uint256)": "ded4df63"
    }
  },
  "storageLayout": {
    "storage": [
      {
        "astId": 94,
        "contract": "contracts/ComputeInstantiator.sol:ComputeInstantiator",
        "label": "currentIndex",
        "offset": 0,
        "slot": "0",
        "type": "t_uint256"
      },
      {
        "astId": 98,
        "contract": "contracts/ComputeInstantiator.sol:ComputeInstantiator",
        "label": "active",
        "offset": 0,
        "slot": "1",
        "type": "t_mapping(t_uint256,t_bool)"
      },
      {
        "astId": 102,
        "contract": "contracts/ComputeInstantiator.sol:ComputeInstantiator",
        "label": "nonce",
        "offset": 0,
        "slot": "2",
        "type": "t_mapping(t_uint256,t_uint256)"
      },
      {
        "astId": 587,
        "contract": "contracts/ComputeInstantiator.sol:ComputeInstantiator",
        "label": "vg",
        "offset": 0,
        "slot": "3",
        "type": "t_contract(VGInterface)6226"
      },
      {
        "astId": 612,
        "contract": "contracts/ComputeInstantiator.sol:ComputeInstantiator",
        "label": "instance",
        "offset": 0,
        "slot": "4",
        "type": "t_mapping(t_uint256,t_struct(ComputeCtx)608_storage)"
      }
    ],
    "types": {
      "t_address": {
        "encoding": "inplace",
        "label": "address",
        "numberOfBytes": "20"
      },
      "t_bool": {
        "encoding": "inplace",
        "label": "bool",
        "numberOfBytes": "1"
      },
      "t_bytes32": {
        "encoding": "inplace",
        "label": "bytes32",
        "numberOfBytes": "32"
      },
      "t_contract(VGInterface)6226": {
        "encoding": "inplace",
        "label": "contract VGInterface",
        "numberOfBytes": "20"
      },
      "t_enum(state)1941": {
        "encoding": "inplace",
        "label": "enum ComputeInterface.state",
        "numberOfBytes": "1"
      },
      "t_mapping(t_uint256,t_bool)": {
        "encoding": "mapping",
        "key": "t_uint256",
        "label": "mapping(uint256 => bool)",
        "numberOfBytes": "32",
        "value": "t_bool"
      },
      "t_mapping(t_uint256,t_struct(ComputeCtx)608_storage)": {
        "encoding": "mapping",
        "key": "t_uint256",
        "label": "mapping(uint256 => struct ComputeInstantiator.ComputeCtx)",
        "numberOfBytes": "32",
        "value": "t_struct(ComputeCtx)608_storage"
      },
      "t_mapping(t_uint256,t_uint256)": {
        "encoding": "mapping",
        "key": "t_uint256",
        "label": "mapping(uint256 => uint256)",
        "numberOfBytes": "32",
        "value": "t_uint256"
      },
      "t_struct(ComputeCtx)608_storage": {
        "encoding": "inplace",
        "label": "struct ComputeInstantiator.ComputeCtx",
        "members": [
          {
            "astId": 589,
            "contract": "contracts/ComputeInstantiator.sol:ComputeInstantiator",
            "label": "challenger",
            "offset": 0,
            "slot": "0",
            "type": "t_address"
          },
          {
            "astId": 591,
            "contract": "contracts/ComputeInstantiator.sol:ComputeInstantiator",
            "label": "claimer",
            "offset": 0,
            "slot": "1",
            "type": "t_address"
          },
          {
            "astId": 593,
            "contract": "contracts/ComputeInstantiator.sol:ComputeInstantiator",
            "label": "roundDuration",
            "offset": 0,
            "slot": "2",
            "type": "t_uint256"
          },
          {
            "astId": 595,
            "contract": "contracts/ComputeInstantiator.sol:ComputeInstantiator",
            "label": "timeOfLastMove",
            "offset": 0,
            "slot": "3",
            "type": "t_uint256"
          },
          {
            "astId": 597,
            "contract": "contracts/ComputeInstantiator.sol:ComputeInstantiator",
            "label": "machine",
            "offset": 0,
            "slot": "4",
            "type": "t_address"
          },
          {
            "astId": 599,
            "contract": "contracts/ComputeInstantiator.sol:ComputeInstantiator",
            "label": "initialHash",
            "offset": 0,
            "slot": "5",
            "type": "t_bytes32"
          },
          {
            "astId": 601,
            "contract": "contracts/ComputeInstantiator.sol:ComputeInstantiator",
            "label": "finalTime",
            "offset": 0,
            "slot": "6",
            "type": "t_uint256"
          },
          {
            "astId": 603,
            "contract": "contracts/ComputeInstantiator.sol:ComputeInstantiator",
            "label": "claimedFinalHash",
            "offset": 0,
            "slot": "7",
            "type": "t_bytes32"
          },
          {
            "astId": 605,
            "contract": "contracts/ComputeInstantiator.sol:ComputeInstantiator",
            "label": "vgInstance",
            "offset": 0,
            "slot": "8",
            "type": "t_uint256"
          },
          {
            "astId": 607,
            "contract": "contracts/ComputeInstantiator.sol:ComputeInstantiator",
            "label": "currentState",
            "offset": 0,
            "slot": "9",
            "type": "t_enum(state)1941"
          }
        ],
        "numberOfBytes": "320"
      },
      "t_uint256": {
        "encoding": "inplace",
        "label": "uint256",
        "numberOfBytes": "32"
      }
    }
  },
  "userdoc": {
    "kind": "user",
    "methods": {
      "challenge(uint256)": {
        "notice": "Challenger disputes the claim, starting a verification game."
      },
      "claimVictoryByTime(uint256)": {
        "notice": "Claim victory for opponent timeout."
      },
      "confirm(uint256)": {
        "notice": "Challenger accepts claim."
      },
      "instantiate(address,address,uint256,address,bytes32,uint256)": {
        "notice": "Instantiates a compute instance."
      },
      "submitClaim(uint256,bytes32)": {
        "notice": "Claimer claims the hash of the result of a computation"
      },
      "winByVG(uint256)": {
        "notice": "In case one of the parties wins the verification game, then he or she can call this function to claim victory in this contract as well."
      }
    },
    "version": 1
  }
}