{
  "abi": [
    {
      "inputs": [
        {
          "internalType": "address",
          "name": "_mmAddress",
          "type": "address"
        }
      ],
      "stateMutability": "nonpayable",
      "type": "constructor"
    },
    {
      "anonymous": false,
      "inputs": [
        {
          "indexed": false,
          "internalType": "bytes32",
          "name": "message",
          "type": "bytes32"
        },
        {
          "indexed": false,
          "internalType": "uint64",
          "name": "word",
          "type": "uint64"
        }
      ],
      "name": "Debug",
      "type": "event"
    },
    {
      "anonymous": false,
      "inputs": [
        {
          "indexed": false,
          "internalType": "uint8",
          "name": "exitCode",
          "type": "uint8"
        }
      ],
      "name": "StepGiven",
      "type": "event"
    },
    {
      "inputs": [],
      "name": "getAddress",
      "outputs": [
        {
          "internalType": "address",
          "name": "",
          "type": "address"
        }
      ],
      "stateMutability": "view",
      "type": "function"
    },
    {
      "inputs": [],
      "name": "getMemoryInteractor",
      "outputs": [
        {
          "internalType": "address",
          "name": "",
          "type": "address"
        }
      ],
      "stateMutability": "view",
      "type": "function"
    },
    {
      "inputs": [
        {
          "internalType": "uint256",
          "name": "_mmIndex",
          "type": "uint256"
        }
      ],
      "name": "step",
      "outputs": [
        {
          "internalType": "uint8",
          "name": "",
          "type": "uint8"
        }
      ],
      "stateMutability": "nonpayable",
      "type": "function"
    }
  ],
  "address": "0xFa88aDb853f48Eb533940Af2C33A99803531870c",
  "args": [
    "0x399A465c28D3FFc5e6e0d1d6962Df48372c8A6e8"
  ],
  "solcInputHash": "0x42b609482474b272bec93b3bfa26f2c87c2a0a56d0daaf2511deb7af6d8c3952",
  "bytecode": "0x608060405234801561001057600080fd5b506040516103583803806103588339818101604052602081101561003357600080fd5b5051600080546001600160a01b039092166001600160a01b03199092169190911790556102f3806100656000396000f3fe608060405234801561001057600080fd5b50600436106100415760003560e01c806338cc4831146100465780633a1cde751461006a578063a35b2d0714610046575b600080fd5b61004e61009d565b604080516001600160a01b039092168252519081900360200190f35b6100876004803603602081101561008057600080fd5b50356100a1565b6040805160ff9092168252519081900360200190f35b3090565b60008054604080516346336cd360e01b8152600481018590526024810184905290516001600160a01b03909216918391829184916346336cd391604480830192602092919082900301818787803b1580156100fb57600080fd5b505af115801561010f573d6000803e3d6000fd5b505050506040513d602081101561012557600080fd5b505160c01c905067ffffffffffffffff811061017e576040805162461bcd60e51b81526020600482015260136024820152724f766572666c6f77696e67206d616368696e6560681b604482015290519081900360640190fd5b6040805163140e539f60e11b81526004810187905267ffffffffffffffff841660248201526001600160c01b03196001840160c01b16604482015290516001600160a01b0385169163281ca73e91606480830192600092919082900301818387803b1580156101ec57600080fd5b505af1158015610200573d6000803e3d6000fd5b5050505061020f856000610218565b95945050505050565b6000805460408051631f6aea2b60e11b81526004810186905290516001600160a01b03909216918291633ed5d456916024808301928792919082900301818387803b15801561026657600080fd5b505af115801561027a573d6000803e3d6000fd5b50506040805160ff8716815290517f7ab9c6180230b32e97c918b15c3ccdb0d19d07b998239db4ac2b444998ac258c9350908190036020019150a150909291505056fea2646970667358221220b29b5684211094cbf04d9fa6955cb66162efeb8997c46f5c7ff324c48d7b037b64736f6c63430007010033",
  "devdoc": {
    "kind": "dev",
    "methods": {
      "step(uint256)": {
        "returns": {
          "_0": "false indicates a halted machine or invalid instruction"
        }
      }
    },
    "version": 1
  },
  "userdoc": {
    "kind": "user",
    "methods": {
      "step(uint256)": {
        "notice": "Performs one step of the hasher machine on memory"
      }
    },
    "version": 1
  },
  "storageLayout": {
    "storage": [
      {
        "astId": 2007,
        "contract": "contracts/Hasher.sol:Hasher",
        "label": "mmAddress",
        "offset": 0,
        "slot": "0",
        "type": "t_address"
      }
    ],
    "types": {
      "t_address": {
        "encoding": "inplace",
        "label": "address",
        "numberOfBytes": "20"
      }
    }
  },
  "gasEstimates": {
    "creation": {
      "codeDepositCost": "151000",
      "executionCost": "infinite",
      "totalCost": "infinite"
    },
    "external": {
      "getAddress()": "196",
      "getMemoryInteractor()": "240",
      "step(uint256)": "infinite"
    },
    "internal": {
      "endStep(uint256,uint8)": "infinite"
    }
  }
}