{
  "abi": [
    {
      "anonymous": false,
      "inputs": [
        {
          "indexed": false,
          "internalType": "bytes32",
          "name": "_out",
          "type": "bytes32"
        }
      ],
      "name": "OutB32",
      "type": "event"
    },
    {
      "anonymous": false,
      "inputs": [
        {
          "indexed": false,
          "internalType": "uint64",
          "name": "_out",
          "type": "uint64"
        }
      ],
      "name": "OutUint64",
      "type": "event"
    },
    {
      "inputs": [
        {
          "internalType": "bytes8",
          "name": "",
          "type": "bytes8"
        },
        {
          "internalType": "uint64",
          "name": "",
          "type": "uint64"
        }
      ],
      "name": "testing",
      "outputs": [],
      "stateMutability": "nonpayable",
      "type": "function"
    }
  ],
  "address": "0xc9129903751dA0855c7a7df7ab4b2b5e1DDd0C5c",
  "args": [],
  "solcInputHash": "0x42b609482474b272bec93b3bfa26f2c87c2a0a56d0daaf2511deb7af6d8c3952",
  "bytecode": "0x6080604052348015600f57600080fd5b506102168061001f6000396000f3fe608060405234801561001057600080fd5b506004361061002b5760003560e01c80630946c50614610030575b600080fd5b6100676004803603604081101561004657600080fd5b5080356001600160c01b031916906020013567ffffffffffffffff16610069565b005b60408051600160c01b60208083019190915282518083036008018152602883018085528151919092012090529051600191670100000000000000916000805160206101c18339815191529181900360480190a1604080516001600160c01b031960c084901b16602080830191909152825180830360080181526028830180855281519190920120905290516000805160206101c18339815191529181900360480190a1604080516001600160c01b031960c085811b82166020808501919091529085901b9091166028830152825160108184030181526030830180855281519190920120905290516000805160206101c18339815191529181900360500190a1604080516001600160c01b031984840160c01b16602080830191909152825180830360080181526028830180855281519190920120905290516000805160206101c18339815191529181900360480190a15050505056fe28994c6335dbf41500ab3c26d53d481fe33bc2fa178f0ac34f77e44a04646671a264697066735822122007e66f80c4718af8952af204ce34f8cf8ad92cca176e6af042ad18a4c303de0564736f6c63430007010033",
  "devdoc": {
    "kind": "dev",
    "methods": {},
    "version": 1
  },
  "userdoc": {
    "kind": "user",
    "methods": {},
    "version": 1
  },
  "storageLayout": {
    "storage": [],
    "types": null
  },
  "gasEstimates": {
    "creation": {
      "codeDepositCost": "106800",
      "executionCost": "153",
      "totalCost": "106953"
    },
    "external": {
      "testing(bytes8,uint64)": "infinite"
    }
  }
}