{
  "address": "0xb79960e28819fE97ECF9F951344fbc325b9E17CA",
  "abi": [
    {
      "inputs": [
        {
          "internalType": "address",
          "name": "_partitionInstantiatorAddress",
          "type": "address"
        },
        {
          "internalType": "address",
          "name": "_mmInstantiatorAddress",
          "type": "address"
        }
      ],
      "stateMutability": "nonpayable",
      "type": "constructor"
    },
    {
      "anonymous": false,
      "inputs": [
        {
          "indexed": false,
          "internalType": "uint256",
          "name": "_index",
          "type": "uint256"
        }
      ],
      "name": "MemoryWriten",
      "type": "event"
    },
    {
      "anonymous": false,
      "inputs": [
        {
          "indexed": false,
          "internalType": "uint256",
          "name": "_index",
          "type": "uint256"
        },
        {
          "indexed": false,
          "internalType": "uint256",
          "name": "_mmInstance",
          "type": "uint256"
        }
      ],
      "name": "PartitionDivergenceFound",
      "type": "event"
    },
    {
      "anonymous": false,
      "inputs": [
        {
          "indexed": false,
          "internalType": "uint256",
          "name": "_index",
          "type": "uint256"
        },
        {
          "indexed": false,
          "internalType": "address",
          "name": "_challenger",
          "type": "address"
        },
        {
          "indexed": false,
          "internalType": "address",
          "name": "_claimer",
          "type": "address"
        },
        {
          "indexed": false,
          "internalType": "uint256",
          "name": "_roundDuration",
          "type": "uint256"
        },
        {
          "indexed": false,
          "internalType": "address",
          "name": "_machineAddress",
          "type": "address"
        },
        {
          "indexed": false,
          "internalType": "bytes32",
          "name": "_initialHash",
          "type": "bytes32"
        },
        {
          "indexed": false,
          "internalType": "bytes32",
          "name": "_claimerFinalHash",
          "type": "bytes32"
        },
        {
          "indexed": false,
          "internalType": "uint256",
          "name": "_finalTime",
          "type": "uint256"
        },
        {
          "indexed": false,
          "internalType": "uint256",
          "name": "_partitionInstance",
          "type": "uint256"
        }
      ],
      "name": "VGCreated",
      "type": "event"
    },
    {
      "anonymous": false,
      "inputs": [
        {
          "indexed": false,
          "internalType": "enum VGInterface.state",
          "name": "_finalState",
          "type": "uint8"
        }
      ],
      "name": "VGFinished",
      "type": "event"
    },
    {
      "inputs": [
        {
          "internalType": "uint256",
          "name": "_index",
          "type": "uint256"
        }
      ],
      "name": "claimVictoryByTime",
      "outputs": [],
      "stateMutability": "nonpayable",
      "type": "function"
    },
    {
      "inputs": [],
      "name": "currentIndex",
      "outputs": [
        {
          "internalType": "uint256",
          "name": "",
          "type": "uint256"
        }
      ],
      "stateMutability": "view",
      "type": "function"
    },
    {
      "inputs": [
        {
          "internalType": "uint256",
          "name": "_index",
          "type": "uint256"
        }
      ],
      "name": "deactivate",
      "outputs": [],
      "stateMutability": "nonpayable",
      "type": "function"
    },
    {
      "inputs": [
        {
          "internalType": "uint256",
          "name": "_index",
          "type": "uint256"
        }
      ],
      "name": "getCurrentState",
      "outputs": [
        {
          "internalType": "bytes32",
          "name": "",
          "type": "bytes32"
        }
      ],
      "stateMutability": "view",
      "type": "function"
    },
    {
      "inputs": [
        {
          "internalType": "uint256",
          "name": "_roundDuration",
          "type": "uint256"
        },
        {
          "internalType": "uint256",
          "name": "_timeToStartMachine",
          "type": "uint256"
        },
        {
          "internalType": "uint256",
          "name": "_partitionSize",
          "type": "uint256"
        },
        {
          "internalType": "uint256",
          "name": "_maxCycle",
          "type": "uint256"
        },
        {
          "internalType": "uint256",
          "name": "_picoSecondsToRunInsn",
          "type": "uint256"
        }
      ],
      "name": "getMaxInstanceDuration",
      "outputs": [
        {
          "internalType": "uint256",
          "name": "",
          "type": "uint256"
        }
      ],
      "stateMutability": "view",
      "type": "function"
    },
    {
      "inputs": [
        {
          "internalType": "uint256",
          "name": "_index",
          "type": "uint256"
        }
      ],
      "name": "getNonce",
      "outputs": [
        {
          "internalType": "uint256",
          "name": "currentNonce",
          "type": "uint256"
        }
      ],
      "stateMutability": "view",
      "type": "function"
    },
    {
      "inputs": [
        {
          "internalType": "uint256",
          "name": "_index",
          "type": "uint256"
        }
      ],
      "name": "getPartitionGameIndex",
      "outputs": [
        {
          "internalType": "uint256",
          "name": "",
          "type": "uint256"
        }
      ],
      "stateMutability": "view",
      "type": "function"
    },
    {
      "inputs": [
        {
          "internalType": "uint256",
          "name": "_index",
          "type": "uint256"
        }
      ],
      "name": "getPartitionQuerySize",
      "outputs": [
        {
          "internalType": "uint256",
          "name": "",
          "type": "uint256"
        }
      ],
      "stateMutability": "view",
      "type": "function"
    },
    {
      "inputs": [
        {
          "internalType": "uint256",
          "name": "_index",
          "type": "uint256"
        },
        {
          "internalType": "address",
          "name": "",
          "type": "address"
        }
      ],
      "name": "getState",
      "outputs": [
        {
          "internalType": "address",
          "name": "_challenger",
          "type": "address"
        },
        {
          "internalType": "address",
          "name": "_claimer",
          "type": "address"
        },
        {
          "internalType": "contract MachineInterface",
          "name": "_machine",
          "type": "address"
        },
        {
          "internalType": "bytes32",
          "name": "_initialHash",
          "type": "bytes32"
        },
        {
          "internalType": "bytes32",
          "name": "_claimerFinalHash",
          "type": "bytes32"
        },
        {
          "internalType": "bytes32",
          "name": "_hashBeforeDivergence",
          "type": "bytes32"
        },
        {
          "internalType": "bytes32",
          "name": "_hashAfterDivergence",
          "type": "bytes32"
        },
        {
          "internalType": "bytes32",
          "name": "_currentState",
          "type": "bytes32"
        },
        {
          "internalType": "uint256[]",
          "name": "_uintValues",
          "type": "uint256[]"
        }
      ],
      "stateMutability": "view",
      "type": "function"
    },
    {
      "inputs": [
        {
          "internalType": "uint256",
          "name": "_index",
          "type": "uint256"
        },
        {
          "internalType": "address",
          "name": "",
          "type": "address"
        }
      ],
      "name": "getSubInstances",
      "outputs": [
        {
          "internalType": "address[]",
          "name": "_addresses",
          "type": "address[]"
        },
        {
          "internalType": "uint256[]",
          "name": "_indices",
          "type": "uint256[]"
        }
      ],
      "stateMutability": "view",
      "type": "function"
    },
    {
      "inputs": [
        {
          "internalType": "address",
          "name": "_challenger",
          "type": "address"
        },
        {
          "internalType": "address",
          "name": "_claimer",
          "type": "address"
        },
        {
          "internalType": "uint256",
          "name": "_roundDuration",
          "type": "uint256"
        },
        {
          "internalType": "address",
          "name": "_machineAddress",
          "type": "address"
        },
        {
          "internalType": "bytes32",
          "name": "_initialHash",
          "type": "bytes32"
        },
        {
          "internalType": "bytes32",
          "name": "_claimerFinalHash",
          "type": "bytes32"
        },
        {
          "internalType": "uint256",
          "name": "_finalTime",
          "type": "uint256"
        }
      ],
      "name": "instantiate",
      "outputs": [
        {
          "internalType": "uint256",
          "name": "",
          "type": "uint256"
        }
      ],
      "stateMutability": "nonpayable",
      "type": "function"
    },
    {
      "inputs": [
        {
          "internalType": "uint256",
          "name": "_index",
          "type": "uint256"
        }
      ],
      "name": "isActive",
      "outputs": [
        {
          "internalType": "bool",
          "name": "",
          "type": "bool"
        }
      ],
      "stateMutability": "view",
      "type": "function"
    },
    {
      "inputs": [
        {
          "internalType": "uint256",
          "name": "_index",
          "type": "uint256"
        },
        {
          "internalType": "address",
          "name": "_user",
          "type": "address"
        }
      ],
      "name": "isConcerned",
      "outputs": [
        {
          "internalType": "bool",
          "name": "",
          "type": "bool"
        }
      ],
      "stateMutability": "view",
      "type": "function"
    },
    {
      "inputs": [
        {
          "internalType": "uint256",
          "name": "x",
          "type": "uint256"
        }
      ],
      "name": "log2OverTwo",
      "outputs": [
        {
          "internalType": "uint256",
          "name": "y",
          "type": "uint256"
        }
      ],
      "stateMutability": "pure",
      "type": "function"
    },
    {
      "inputs": [
        {
          "internalType": "uint256",
          "name": "_index",
          "type": "uint256"
        }
      ],
      "name": "settleVerificationGame",
      "outputs": [],
      "stateMutability": "nonpayable",
      "type": "function"
    },
    {
      "inputs": [
        {
          "internalType": "uint256",
          "name": "_index",
          "type": "uint256"
        }
      ],
      "name": "startMachineRunChallenge",
      "outputs": [],
      "stateMutability": "nonpayable",
      "type": "function"
    },
    {
      "inputs": [
        {
          "internalType": "uint256",
          "name": "_index",
          "type": "uint256"
        }
      ],
      "name": "stateIsFinishedChallengerWon",
      "outputs": [
        {
          "internalType": "bool",
          "name": "",
          "type": "bool"
        }
      ],
      "stateMutability": "view",
      "type": "function"
    },
    {
      "inputs": [
        {
          "internalType": "uint256",
          "name": "_index",
          "type": "uint256"
        }
      ],
      "name": "stateIsFinishedClaimerWon",
      "outputs": [
        {
          "internalType": "bool",
          "name": "",
          "type": "bool"
        }
      ],
      "stateMutability": "view",
      "type": "function"
    },
    {
      "inputs": [
        {
          "internalType": "uint256",
          "name": "_index",
          "type": "uint256"
        }
      ],
      "name": "winByPartitionTimeout",
      "outputs": [],
      "stateMutability": "nonpayable",
      "type": "function"
    }
  ],
  "transactionHash": "0x27b92cc29016d6f14af00b60ccd75e9338519480605bab074a0d5aad3be6b40c",
  "args": [
    "0xdB973FEC327153d797E430be61A3B99f32319892",
    "0xb6FdA390148f87292aFD559119B6d569D0bd3CD6"
  ],
  "solcInputHash": "b59e44a656b8d96acc689e22056aa2b6",
  "bytecode": "0x60806040526000805534801561001457600080fd5b5060405161285d38038061285d8339818101604052604081101561003757600080fd5b508051602090910151600380546001600160a01b039384166001600160a01b031991821617909155600480549390921692169190911790556127df8061007e6000396000f3fe608060405234801561001057600080fd5b50600436106101205760003560e01c806373df1612116100ad578063b6b5c31911610071578063b6b5c319146103de578063bfa69ed8146103fb578063c526656c14610418578063cd3784e7146104dd578063daaadf4e146104fa57610120565b806373df16121461029557806382afd23b14610368578063916b9bef14610385578063a2dc7973146103a4578063a703df28146103c157610120565b806326987b60116100f457806326987b6014610201578063370f31aa146102095780633d46b8191461023e5780635748c1301461025b5780636cc9f17e1461027857610120565b80624463861461012557806301ff62ab146101545780630c91927b1461019457806320b73870146101b1575b600080fd5b6101426004803603602081101561013b57600080fd5b5035610517565b60408051918252519081900360200190f35b6101806004803603604081101561016a57600080fd5b50803590602001356001600160a01b03166105a4565b604080519115158252519081900360200190f35b610142600480360360208110156101aa57600080fd5b50356105ef565b610142600480360360e08110156101c757600080fd5b506001600160a01b038135811691602081013582169160408201359160608101359091169060808101359060a08101359060c0013561064c565b6101426108e8565b610142600480360360a081101561021f57600080fd5b50803590602081013590604081013590606081013590608001356108ee565b6101426004803603602081101561025457600080fd5b5035610922565b6101426004803603602081101561027157600080fd5b50356109cc565b6101806004803603602081101561028e57600080fd5b5035610b68565b6102c1600480360360408110156102ab57600080fd5b50803590602001356001600160a01b0316610bda565b604051808a6001600160a01b03168152602001896001600160a01b03168152602001886001600160a01b0316815260200187815260200186815260200185815260200184815260200183815260200180602001828103825283818151815260200191508051906020019060200280838360005b8381101561034c578181015183820152602001610334565b505050509050019a505050505050505050505060405180910390f35b6101806004803603602081101561037e57600080fd5b5035610f84565b6103a26004803603602081101561039b57600080fd5b5035610f99565b005b6103a2600480360360208110156103ba57600080fd5b5035610fbc565b6103a2600480360360208110156103d757600080fd5b50356111e3565b610180600480360360208110156103f457600080fd5b50356119d1565b6103a26004803603602081101561041157600080fd5b5035611a1f565b6104446004803603604081101561042e57600080fd5b50803590602001356001600160a01b0316611c33565b604051808060200180602001838103835285818151815260200191508051906020019060200280838360005b83811015610488578181015183820152602001610470565b50505050905001838103825284818151815260200191508051906020019060200280838360005b838110156104c75781810151838201526020016104af565b5050505090500194505050505060405180910390f35b6103a2600480360360208110156104f357600080fd5b5035611dde565b6101426004803603602081101561051057600080fd5b503561224d565b6003546000828152600560209081526040808320600901548151622231c360e11b81526004810191909152905192936001600160a01b0316926244638692602480840193919291829003018186803b15801561057257600080fd5b505afa158015610586573d6000803e3d6000fd5b505050506040513d602081101561059c57600080fd5b505192915050565b6000828152600560205260408120546001600160a01b03838116911614806105e857506000838152600560205260409020600101546001600160a01b038381169116145b9392505050565b60035460008281526005602090815260408083206009015481516341fde16f60e01b81526004810191909152905192936001600160a01b0316926341fde16f92602480840193919291829003018186803b15801561057257600080fd5b600080821161068c5760405162461bcd60e51b81526004018080602001828103825260248152602001806126616024913960400191505060405180910390fd5b6000805481526005602052604080822080546001600160a01b03808d166001600160a01b03199283161790925583548452919092206001018054928a16929091169190911790556106dc8261224d565b6000805481526005602081815260408084206004958c02860160029091015583548452808420600390810180546001600160a01b03808e166001600160a01b0319909216919091179091558554865282862087018b905585548652828620909401899055845485528185206006018890558454855281852042600790910155548151633562820d60e01b81528e8516968101969096528c84166024870152604486018a90526064860189905260848601889052600a60a487015260c486018c90529051921693633562820d9360e480830194928390030190829087803b1580156107c557600080fd5b505af11580156107d9573d6000803e3d6000fd5b505050506040513d60208110156107ef57600080fd5b5051600080548152600560205260408082206009019290925580548152908120600d01805460ff19169055547fd4ad9a0f11913813f7818801ad85d597c0dfd1d2c01bcb1a02f29c6d6544fdd59089896108488661224d565b600080548152600560209081526040918290206009015482519687526001600160a01b0395861691870191909152928416858201526004918c02919091016060850152918916608084015260a0830188905260c0830187905260e0830186905261010083015251908190036101200190a1506000805481526001602081905260408220805460ff1916821790558154908101909155979650505050505050565b60005481565b6000806109006000888888888861227e565b905060006109136000898989898961227e565b91909101979650505050505050565b6000818060005411610969576040805162461bcd60e51b8152602060048201526016602482015260008051602061278a833981519152604482015290519081900360640190fd5b61097281610f84565b6109b4576040805162461bcd60e51b815260206004820152600e60248201526d496e64657820696e61637469766560901b604482015290519081900360640190fd5b60008381526002602052604090205491505b50919050565b6000818060005411610a13576040805162461bcd60e51b8152602060048201526016602482015260008051602061278a833981519152604482015290519081900360640190fd5b6000838152600560205260408120600d015460ff166003811115610a3357fe5b1415610a51576c2bb0b4ba2830b93a34ba34b7b760991b91506109c6565b60016000848152600560205260409020600d015460ff166003811115610a7357fe5b1415610a995774576169744d656d6f727950726f766556616c75657360581b91506109c6565b60026000848152600560205260409020600d015460ff166003811115610abb57fe5b1415610ade57712334b734b9b432b221b630b4b6b2b92bb7b760711b91506109c6565b60036000848152600560205260409020600d015460ff166003811115610b0057fe5b1415610b2657742334b734b9b432b221b430b63632b733b2b92bb7b760591b91506109c6565b6040805162461bcd60e51b8152602060048201526012602482015271556e7265636f676e697a656420737461746560701b604482015290519081900360640190fd5b6000818060005411610baf576040805162461bcd60e51b8152602060048201526016602482015260008051602061278a833981519152604482015290519081900360640190fd5b60025b6000848152600560205260409020600d015460ff166003811115610bd257fe5b149392505050565b60008060008060008060008060608a8060005411610c2d576040805162461bcd60e51b8152602060048201526016602482015260008051602061278a833981519152604482015290519081900360640190fd5b610c356125c9565b60008d81526005602081815260409283902083516101c08101855281546001600160a01b03908116825260018301548116938201939093526002820154948101949094526003808201549092166060850152600481015460808501529182015460a0840152600682015460c0840152600782015460e084015260088201546101008401526009820154610120840152600a820154610140840152600b820154610160840152600c820154610180840152600d8201546101a084019160ff90911690811115610cff57fe5b6003811115610d0a57fe5b90525060408051600580825260c08201909252919250606091906020820160a0803683370190505090508160c0015181600081518110610d4657fe5b602002602001018181525050610df9826101a0015183604001516028600360009054906101000a90046001600160a01b03166001600160a01b03166341fde16f8761012001516040518263ffffffff1660e01b81526004018082815260200191505060206040518083038186803b158015610dc057600080fd5b505afa158015610dd4573d6000803e3d6000fd5b505050506040513d6020811015610dea57600080fd5b505160c08701516101f461227e565b8260e001510181600181518110610e0c57fe5b60200260200101818152505081610100015181600281518110610e2b57fe5b60200260200101818152505081610120015181600381518110610e4a57fe5b60200260200101818152505081610140015181600481518110610e6957fe5b6020908102919091010152600080836101a001516003811115610e8857fe5b1415610ea157506c2bb0b4ba2830b93a34ba34b7b760991b5b6001836101a001516003811115610eb457fe5b1415610ed5575074576169744d656d6f727950726f766556616c75657360581b5b6002836101a001516003811115610ee857fe5b1415610f065750712334b734b9b432b221b630b4b6b2b92bb7b760711b5b6003836101a001516003811115610f1957fe5b1415610f3a5750742334b734b9b432b221b430b63632b733b2b92bb7b760591b5b82600001518360200151846060015185608001518660a0015187610160015188610180015187899c509c509c509c509c509c509c509c509c50505050509295985092959850929598565b60009081526001602052604090205460ff1690565b6000908152600160209081526040808320805460ff191690556002909152812055565b808060005411611001576040805162461bcd60e51b8152602060048201526016602482015260008051602061278a833981519152604482015290519081900360640190fd5b6000828152600560205260409020600101546001600160a01b031633811461106b576040805162461bcd60e51b815260206004820152601860248201527721b0b73737ba1031329031b0b63632b210313c903ab9b2b960411b604482015290519081900360640190fd5b600083815260056020908152604091829020600d810154600282015460035460099093015485516341fde16f60e01b8152600481019190915294516111279560ff9093169491936028936001600160a01b03909116926341fde16f92602480840193829003018186803b1580156110e157600080fd5b505afa1580156110f5573d6000803e3d6000fd5b505050506040513d602081101561110b57600080fd5b50516000888152600560205260409020600601546101f461227e565b6000848152600560205260409020600701540142116111775760405162461bcd60e51b815260040180806020018281038252602e8152602001806126e3602e913960400191505060405180910390fd5b60016000848152600560205260409020600d015460ff16600381111561119957fe5b146111d55760405162461bcd60e51b815260040180806020018281038252602581526020018061263c6025913960400191505060405180910390fd5b6111de836123cb565b505050565b808060005411611228576040805162461bcd60e51b8152602060048201526016602482015260008051602061278a833981519152604482015290519081900360640190fd5b6000828152600560205260409020546001600160a01b031633811461128f576040805162461bcd60e51b815260206004820152601860248201527721b0b73737ba1031329031b0b63632b210313c903ab9b2b960411b604482015290519081900360640190fd5b60016000848152600560205260409020600d015460ff1660038111156112b157fe5b146112ed5760405162461bcd60e51b815260040180806020018281038252602581526020018061263c6025913960400191505060405180910390fd5b600083815260056020908152604091829020600801546004805484516343d4b78b60e01b8152918201839052935191936001600160a01b0316926343d4b78b92602480840193829003018186803b15801561134757600080fd5b505afa15801561135b573d6000803e3d6000fd5b505050506040513d602081101561137157600080fd5b50516113ae5760405162461bcd60e51b81526004018080602001828103825260238152602001806127436023913960400191505060405180910390fd5b600480546040805163f154f91d60e01b815292830184905251606092839283926001600160a01b039091169163f154f91d916024808301926000929190829003018186803b1580156113ff57600080fd5b505afa158015611413573d6000803e3d6000fd5b505050506040513d6000823e601f3d908101601f19168201604052606081101561143c57600080fd5b810190808051604051939291908464010000000082111561145c57600080fd5b90830190602082018581111561147157600080fd5b825186602082028301116401000000008211171561148e57600080fd5b82525081516020918201928201910280838360005b838110156114bb5781810151838201526020016114a3565b50505050905001604052602001805160405193929190846401000000008211156114e457600080fd5b9083019060208201858111156114f957600080fd5b825186602082028301116401000000008211171561151657600080fd5b82525081516020918201928201910280838360005b8381101561154357818101518382015260200161152b565b505050509050016040526020018051604051939291908464010000000082111561156c57600080fd5b90830190602082018581111561158157600080fd5b825186602082028301116401000000008211171561159e57600080fd5b82525081516020918201928201910280838360005b838110156115cb5781810151838201526020016115b3565b50505050905001604052505050925092509250600080600560008a815260200190815260200160002060030160009054906101000a90046001600160a01b03166001600160a01b0316637718d4c88686866040518463ffffffff1660e01b815260040180806020018060200180602001848103845287818151815260200191508051906020019060200280838360005b8381101561167357818101518382015260200161165b565b50505050905001848103835286818151815260200191508051906020019060200280838360005b838110156116b257818101518382015260200161169a565b50505050905001848103825285818151815260200191508051906020019060200280838360005b838110156116f15781810151838201526020016116d9565b5050505090500196505050505050506040805180830381600087803b15801561171957600080fd5b505af115801561172d573d6000803e3d6000fd5b505050506040513d604081101561174357600080fd5b508051602090910151909250905060ff8216156117a7576040805162461bcd60e51b815260206004820152601960248201527f53746570206469646e74206578697420636f72726563746c7900000000000000604482015290519081900360640190fd5b845181146117e65760405162461bcd60e51b81526004018080602001828103825260248152602001806127666024913960400191505060405180910390fd5b6004805460408051631f6aea2b60e11b8152928301899052516001600160a01b0390911691633ed5d45691602480830192600092919082900301818387803b15801561183157600080fd5b505af1158015611845573d6000803e3d6000fd5b50506004805460408051634b7a14dd60e11b81529283018b9052516001600160a01b0390911693506396f429ba92506024808301926020929190829003018186803b15801561189357600080fd5b505afa1580156118a7573d6000803e3d6000fd5b505050506040513d60208110156118bd57600080fd5b50516118fa5760405162461bcd60e51b81526004018080602001828103825260258152602001806126856025913960400191505060405180910390fd5b600089815260056020908152604091829020600c0154600480548451630241916160e61b81529182018b9052935191936001600160a01b031692639064584092602480840193829003018186803b15801561195457600080fd5b505afa158015611968573d6000803e3d6000fd5b505050506040513d602081101561197e57600080fd5b505114156119bd5760405162461bcd60e51b81526004018080602001828103825260398152602001806126aa6039913960400191505060405180910390fd5b6119c68961249a565b505050505050505050565b6000818060005411611a18576040805162461bcd60e51b8152602060048201526016602482015260008051602061278a833981519152604482015290519081900360640190fd5b6003610bb2565b808060005411611a64576040805162461bcd60e51b8152602060048201526016602482015260008051602061278a833981519152604482015290519081900360640190fd5b6000828152600560205260408120600d015460ff166003811115611a8457fe5b14611ad6576040805162461bcd60e51b815260206004820152601d60248201527f53746174652073686f756c642062652057616974506172746974696f6e000000604482015290519081900360640190fd5b6000828152600560209081526040918290206009015460035483516332a3a14f60e11b815260048101839052935191936001600160a01b0390911692636547429e92602480840193829003018186803b158015611b3257600080fd5b505afa158015611b46573d6000803e3d6000fd5b505050506040513d6020811015611b5c57600080fd5b505115611b7257611b6c8361249a565b50611c2f565b6003546040805163d0a068cf60e01b81526004810184905290516001600160a01b039092169163d0a068cf91602480820192602092909190829003018186803b158015611bbe57600080fd5b505afa158015611bd2573d6000803e3d6000fd5b505050506040513d6020811015611be857600080fd5b505115611bf857611b6c836123cb565b60405162461bcd60e51b81526004018080602001828103825260328152602001806127116032913960400191505060405180910390fd5b5050565b6060808080600080878152600560205260409020600d015460ff166003811115611c5957fe5b1415611d035760408051600180825281830190925290602080830190803683375050604080516001808252818301909252929450905060208083019080368337505060035484519293506001600160a01b031691849150600090611cb957fe5b6001600160a01b03909216602092830291909101820152600087815260059091526040812060090154825190918391611cee57fe5b60209081029190910101529092509050611dd7565b60016000878152600560205260409020600d015460ff166003811115611d2557fe5b1415611dba5760408051600180825281830190925290602080830190803683375050604080516001808252818301909252929450905060208083019080368337505060045484519293506001600160a01b031691849150600090611d8557fe5b6001600160a01b03909216602092830291909101820152600087815260059091526040812060080154825190918391611cee57fe5b505060408051600080825260208201908152818301909252925090505b9250929050565b808060005411611e23576040805162461bcd60e51b8152602060048201526016602482015260008051602061278a833981519152604482015290519081900360640190fd5b60008281526002602052604081208054600101905582906000848152600560205260409020600d015460ff166003811115611e5a57fe5b14611eac576040805162461bcd60e51b815260206004820152601d60248201527f53746174652073686f756c642062652057616974506172746974696f6e000000604482015290519081900360640190fd5b600354600084815260056020908152604091829020600901548251631d9f2d7760e01b8152600481019190915291516001600160a01b0390931692631d9f2d77926024808201939291829003018186803b158015611f0957600080fd5b505afa158015611f1d573d6000803e3d6000fd5b505050506040513d6020811015611f3357600080fd5b5051611f86576040805162461bcd60e51b815260206004820152601a60248201527f446976657267656e63652073686f756c6420626520666f756e64000000000000604482015290519081900360640190fd5b600083815260056020908152604080832060090154600354825163326ff2f560e01b81526004810183905292519194936001600160a01b039091169263326ff2f59260248083019392829003018186803b158015611fe357600080fd5b505afa158015611ff7573d6000803e3d6000fd5b505050506040513d602081101561200d57600080fd5b5051600086815260056020908152604091829020600a0183905560035482516360696f8160e01b8152600481018790526024810185905292519394506001600160a01b0316926360696f81926044808201939291829003018186803b15801561207557600080fd5b505afa158015612089573d6000803e3d6000fd5b505050506040513d602081101561209f57600080fd5b5051600086815260056020908152604091829020600b019290925560035481516360696f8160e01b81526004810186905260018501602482015291516001600160a01b03909116926360696f819260448082019391829003018186803b15801561210857600080fd5b505afa15801561211c573d6000803e3d6000fd5b505050506040513d602081101561213257600080fd5b50516000868152600560209081526040808320600c810194909455600480548554600b909601548351631140bc8f60e31b815230938101939093526001600160a01b039687166024840152604483015291519490911693638a05e47893606480840194938390030190829087803b1580156121ac57600080fd5b505af11580156121c0573d6000803e3d6000fd5b505050506040513d60208110156121d657600080fd5b50516000868152600560209081526040808320600881018590556009810193909355426007840155600d909201805460ff1916600117905581518881529081019290925280517fe6772c68f52fac01f8694176345ad126ec91d30c32f27a57e8d20c076c2b063d9281900390910190a15050505050565b60006101005b82156122695760019290921c9160001901612253565b60028160ff038161227657fe5b049392505050565b60008087600381111561228d57fe5b141561232e5760035460408051631b8798d560e11b8152600481018990526024810188905260448101879052606481018690526084810185905290516001600160a01b039092169163370f31aa9160a480820192602092909190829003018186803b1580156122fb57600080fd5b505afa15801561230f573d6000803e3d6000fd5b505050506040513d602081101561232557600080fd5b505190506123c1565b600187600381111561233c57fe5b14156123935760048054604080516384dfd44d60e01b815292830189905260248301889052516001600160a01b03909116916384dfd44d916044808301926020929190829003018186803b1580156122fb57600080fd5b60028760038111156123a157fe5b14806123b8575060038760038111156123b657fe5b145b15610b26575060005b9695505050505050565b808060005411612410576040805162461bcd60e51b8152602060048201526016602482015260008051602061278a833981519152604482015290519081900360640190fd5b6124198261250b565b6000828152600560205260409020600d0180546002919060ff19166001835b021790555060008281526005602052604090819020600d015490517f2b38fc22e74e632df708aa11ee5b00b21845d40c64ccf39fafc8ef018b82b9b19160ff16908082600381111561248657fe5b815260200191505060405180910390a15050565b8080600054116124df576040805162461bcd60e51b8152602060048201526016602482015260008051602061278a833981519152604482015290519081900360640190fd5b6124e88261250b565b6000828152600560205260409020600d0180546003919060ff1916600183612438565b808060005411612550576040805162461bcd60e51b8152602060048201526016602482015260008051602061278a833981519152604482015290519081900360640190fd5b6000828152600560208190526040822080546001600160a01b031990811682556001820180548216905560028201849055600382018054909116905560048101839055908101829055600681018290556007810182905560088101829055600a8101829055600b8101829055600c0155611c2f82610f99565b604080516101c081018252600080825260208201819052918101829052606081018290526080810182905260a0810182905260c0810182905260e0810182905261010081018290526101208101829052610140810182905261016081018290526101808101829052906101a08201529056fe53746174652073686f756c6420626520576169744d656d6f727950726f766556616c75657346696e616c2074696d65206d7573742062652067726561746572207468616e207a65726f5374617465206f66204d4d202073686f756c642062652046696e69736865645265706c61796e657748617368206166746572206368616c6c656e6765722070726f6f6673206d75737420646976657267652066726f6d20636c61696d65724475726174696f6e206f6620576169744d656d6f727950726f766556616c756573206d757374206265206f7665724661696c20746f2057696e4279506172746974696f6e54696d656f757420696e2063757272656e7420636f6e646974696f6e5374617465206f66204d4d2073686f756c642062652057616974696e675265706c61794e756d626572206f66206d656d6f72792061636365736573206469646e74206d61746368496e646578206e6f7420696e7374616e74696174656400000000000000000000a2646970667358221220501cbb885a812a78280524054c218e0783534c85edf5d6939ad7a2cb7725da3b64736f6c63430007040033",
  "devdoc": {
    "kind": "dev",
    "methods": {
      "getMaxInstanceDuration(uint256,uint256,uint256,uint256,uint256)": {
        "params": {
          "_maxCycle": "is the maximum amount of steps a machine can perform"
        }
      },
      "instantiate(address,address,uint256,address,bytes32,bytes32,uint256)": {
        "params": {
          "_challenger": "address of the challenger.",
          "_claimer": "address of the claimer.",
          "_claimerFinalHash": "final hash claimed by claimer",
          "_finalTime": "max cycle of the machine for that computation",
          "_initialHash": "hash in which both claimer and challenger agree on",
          "_machineAddress": "address of the machine that will run the instruction",
          "_roundDuration": "duration of the round (security param)"
        },
        "returns": {
          "_0": "VG index."
        }
      }
    },
    "version": 1
  },
  "userdoc": {
    "kind": "user",
    "methods": {
      "claimVictoryByTime(uint256)": {
        "notice": "Claimer can claim victory if challenger has lost the deadline for some of the steps in the protocol."
      },
      "instantiate(address,address,uint256,address,bytes32,bytes32,uint256)": {
        "notice": "Instantiate a vg instance."
      },
      "settleVerificationGame(uint256)": {
        "notice": "After having filled the memory manager with the necessary data, the provider calls this function to instantiate the machine and perform one step on it. The machine will write to memory now. Later, the provider will be expected to update the memory hash accordingly."
      },
      "startMachineRunChallenge(uint256)": {
        "notice": "After the partition challenge has lead to a divergence in the hash within one time step, anyone can start a mechine run challenge to decide whether the claimer was correct about that particular step transition. This function call solely instantiate a memory manager, so the provider must fill the appropriate addresses that will be read by the machine."
      },
      "winByPartitionTimeout(uint256)": {
        "notice": "In case one of the parties wins the partition challenge by timeout, then he or she can call this function to claim victory in the hireCPU contract as well."
      }
    },
    "version": 1
  },
  "storageLayout": {
    "storage": [
      {
        "astId": 94,
        "contract": "contracts/VGInstantiator.sol:VGInstantiator",
        "label": "currentIndex",
        "offset": 0,
        "slot": "0",
        "type": "t_uint256"
      },
      {
        "astId": 98,
        "contract": "contracts/VGInstantiator.sol:VGInstantiator",
        "label": "active",
        "offset": 0,
        "slot": "1",
        "type": "t_mapping(t_uint256,t_bool)"
      },
      {
        "astId": 102,
        "contract": "contracts/VGInstantiator.sol:VGInstantiator",
        "label": "nonce",
        "offset": 0,
        "slot": "2",
        "type": "t_mapping(t_uint256,t_uint256)"
      },
      {
        "astId": 4759,
        "contract": "contracts/VGInstantiator.sol:VGInstantiator",
        "label": "partition",
        "offset": 0,
        "slot": "3",
        "type": "t_contract(PartitionInterface)4743"
      },
      {
        "astId": 4761,
        "contract": "contracts/VGInstantiator.sol:VGInstantiator",
        "label": "mm",
        "offset": 0,
        "slot": "4",
        "type": "t_contract(MMInterface)2927"
      },
      {
        "astId": 4794,
        "contract": "contracts/VGInstantiator.sol:VGInstantiator",
        "label": "instance",
        "offset": 0,
        "slot": "5",
        "type": "t_mapping(t_uint256,t_struct(VGCtx)4790_storage)"
      }
    ],
    "types": {
      "t_address": {
        "encoding": "inplace",
        "label": "address",
        "numberOfBytes": "20"
      },
      "t_bool": {
        "encoding": "inplace",
        "label": "bool",
        "numberOfBytes": "1"
      },
      "t_bytes32": {
        "encoding": "inplace",
        "label": "bytes32",
        "numberOfBytes": "32"
      },
      "t_contract(MMInterface)2927": {
        "encoding": "inplace",
        "label": "contract MMInterface",
        "numberOfBytes": "20"
      },
      "t_contract(MachineInterface)2955": {
        "encoding": "inplace",
        "label": "contract MachineInterface",
        "numberOfBytes": "20"
      },
      "t_contract(PartitionInterface)4743": {
        "encoding": "inplace",
        "label": "contract PartitionInterface",
        "numberOfBytes": "20"
      },
      "t_enum(state)6136": {
        "encoding": "inplace",
        "label": "enum VGInterface.state",
        "numberOfBytes": "1"
      },
      "t_mapping(t_uint256,t_bool)": {
        "encoding": "mapping",
        "key": "t_uint256",
        "label": "mapping(uint256 => bool)",
        "numberOfBytes": "32",
        "value": "t_bool"
      },
      "t_mapping(t_uint256,t_struct(VGCtx)4790_storage)": {
        "encoding": "mapping",
        "key": "t_uint256",
        "label": "mapping(uint256 => struct VGInstantiator.VGCtx)",
        "numberOfBytes": "32",
        "value": "t_struct(VGCtx)4790_storage"
      },
      "t_mapping(t_uint256,t_uint256)": {
        "encoding": "mapping",
        "key": "t_uint256",
        "label": "mapping(uint256 => uint256)",
        "numberOfBytes": "32",
        "value": "t_uint256"
      },
      "t_struct(VGCtx)4790_storage": {
        "encoding": "inplace",
        "label": "struct VGInstantiator.VGCtx",
        "members": [
          {
            "astId": 4763,
            "contract": "contracts/VGInstantiator.sol:VGInstantiator",
            "label": "challenger",
            "offset": 0,
            "slot": "0",
            "type": "t_address"
          },
          {
            "astId": 4765,
            "contract": "contracts/VGInstantiator.sol:VGInstantiator",
            "label": "claimer",
            "offset": 0,
            "slot": "1",
            "type": "t_address"
          },
          {
            "astId": 4767,
            "contract": "contracts/VGInstantiator.sol:VGInstantiator",
            "label": "roundDuration",
            "offset": 0,
            "slot": "2",
            "type": "t_uint256"
          },
          {
            "astId": 4769,
            "contract": "contracts/VGInstantiator.sol:VGInstantiator",
            "label": "machine",
            "offset": 0,
            "slot": "3",
            "type": "t_contract(MachineInterface)2955"
          },
          {
            "astId": 4771,
            "contract": "contracts/VGInstantiator.sol:VGInstantiator",
            "label": "initialHash",
            "offset": 0,
            "slot": "4",
            "type": "t_bytes32"
          },
          {
            "astId": 4773,
            "contract": "contracts/VGInstantiator.sol:VGInstantiator",
            "label": "claimerFinalHash",
            "offset": 0,
            "slot": "5",
            "type": "t_bytes32"
          },
          {
            "astId": 4775,
            "contract": "contracts/VGInstantiator.sol:VGInstantiator",
            "label": "finalTime",
            "offset": 0,
            "slot": "6",
            "type": "t_uint256"
          },
          {
            "astId": 4777,
            "contract": "contracts/VGInstantiator.sol:VGInstantiator",
            "label": "timeOfLastMove",
            "offset": 0,
            "slot": "7",
            "type": "t_uint256"
          },
          {
            "astId": 4779,
            "contract": "contracts/VGInstantiator.sol:VGInstantiator",
            "label": "mmInstance",
            "offset": 0,
            "slot": "8",
            "type": "t_uint256"
          },
          {
            "astId": 4781,
            "contract": "contracts/VGInstantiator.sol:VGInstantiator",
            "label": "partitionInstance",
            "offset": 0,
            "slot": "9",
            "type": "t_uint256"
          },
          {
            "astId": 4783,
            "contract": "contracts/VGInstantiator.sol:VGInstantiator",
            "label": "divergenceTime",
            "offset": 0,
            "slot": "10",
            "type": "t_uint256"
          },
          {
            "astId": 4785,
            "contract": "contracts/VGInstantiator.sol:VGInstantiator",
            "label": "hashBeforeDivergence",
            "offset": 0,
            "slot": "11",
            "type": "t_bytes32"
          },
          {
            "astId": 4787,
            "contract": "contracts/VGInstantiator.sol:VGInstantiator",
            "label": "hashAfterDivergence",
            "offset": 0,
            "slot": "12",
            "type": "t_bytes32"
          },
          {
            "astId": 4789,
            "contract": "contracts/VGInstantiator.sol:VGInstantiator",
            "label": "currentState",
            "offset": 0,
            "slot": "13",
            "type": "t_enum(state)6136"
          }
        ],
        "numberOfBytes": "448"
      },
      "t_uint256": {
        "encoding": "inplace",
        "label": "uint256",
        "numberOfBytes": "32"
      }
    }
  }
}